:100000000C9446050C9463050C9463050C941C1B1E
:100010000C9463050C9463050C9463050C94511BBC
:100020000C9463050C9463050C9463050C946305B0
:100030000C9463050C94F01A0C9463050C946305FE
:100040000C9463050C9463050C9463050C94630590
:100050000C9463050C9463050C9463050C94630580
:100060000C9463050C9463050C9463050C94630570
:100070000C9463050C9463050C946305DF12FC1269
:10008000271365137A1387139B13C2132010C0E044
:10009000F0F0F8F8FCFCFEFEFFFFFFFFFFFFFFFFA4
:1000A000FFFFFFFFFEFEFCFCF8F8F0F0E0C0070FDA
:1000B0001F1F1F1F1F1F1F1F1F3F3F7FFFFFFFFF30
:1000C0007F3F3F1F1F1F1F1F1F1F1F1F0F070040C6
:1000D000606070504848646472727A7A7A7A7A7A88
:1000E0007A7E7E7E7C7C7878707060604000000351
:1000F0000B0B0B0B0B080808081B1B3B7B7B7B6B5C
:100100002B1B1B080808080B0B0B0B0B0300101014
:1001100000C6DFFEFCF8F0F0FEF0E0F0784C4600A0
:10012000010347FF7F3F1F1F3F7F3F1F0F1E1C2004
:100130000000461CB8B0C0C0F4C060B00844000065
:1001400000010145311F0F051F3F0316060C10006B
:100150000FDFE32B12389C1C3BC0C49627733F1E55
:100160007079FBFA64410C3072E3FB7158993F1EC1
:10017000060BC12A00180C0C0100C0920321311E8D
:100180006070D9CA4001082060C2F3611890311E26
:10019000464701022440000C00001232A8892326A1
:1001A00070F2C294B4401008006031029880F07878
:1001B00046010002200000040000001220880122F5
:1001C00070C28014A00010000040200210808070D7
:1001D0001018000000000000E0F8E000000000003F
:1001E00000000000C00CFCF0FFFFFFE0E0E818009A
:1001F00000807070F1FFFFFFFFFF7FFFFF7FFEEFCA
:10020000E34000000000000000D0000000000000FB
:1002100000000000800430E080FFE080C060080043
:1002200000802020A052747DFF373F7DBF3E6C428E
:1002300040000040C0847CF8C0FEFEF07E8EF8FED8
:100240000600001071FF9EFFFFFFFFFCFCCFF73C94
:100250000E02000C38717F7FFF030703FFFF1308B6
:1002600004040040800478C0007E8000700E80F896
:1002700006000010619E0093E07CEFFCC008C730D0
:100280000C020008300106770000030001FE03089D
:100290000004060F2333FFEE066783FBE26EE7C31D
:1002A0001F3E0002331B73C61C7C00FFFF00780C4E
:1002B000868000040C000001060000180100000008
:1002C00001010601211336E00227037B222026C309
:1002D000071E0002110932C4180000007F00380414
:1002E000028000040000000002000008000000007E
:1002F00000003C7F67E3C0000408201041E1E7FFF5
:10030000FE7C00070F0C0840820400004020090F0B
:100310000E0018180000000000000000303000003F
:1003200006063C6643C18000040000100041C1E69F
:100330007C1800070C0800400200000000200008A4
:100340000600100000000000000000000020000077
:1003500000041008183C7E7FFFFFFFFFFFFFFFFF38
:10036000FFA581810018343C7E7E7E7E7E242400A1
:100370002400000008083078FEFFFFFF7B310030CA
:1003800068F6FD79310008080F7FFCFFFFFC7F0F46
:10039000070C70C6C6700C071010001C3E7F7F7FD4
:1003A000FEFCC0E0F0F0F0E0C0000000387CFEFE93
:1003B000FF7F3F0307070703010000001C3A3E3E92
:1003C0005C8000C0E0A0E0C00000000000387C7C41
:1003D0005C3A00010303030100001008387C7C7CB8
:1003E0007E7EFFFFFFFF7E7E7C7C7C3800282828F5
:1003F0002420686C6E4E2C2C282828001808010335
:100400000307070F0F0F1F3F7FFFFFFFFFFFFF3F98
:100410001F0F07030101FEFCFCF8F8F0F0F0E0C04C
:1004200080000000000000C0E0F0F8FCFEFE1008B4
:1004300001030307070F1F7FFFFF3F1F0F0301018A
:10044000FEFCFCF8F8F0E0800000C0E0F0FCFEFEEE
:100450001010C0E0F8FCFEFEFEFEFEFEFCF8F0E030
:10046000C080FFFFFFFFFFFFFFFFFFFFFFFFFFFF5A
:10047000FFFFC0E0B8D4FAFEFEFEBEFAFCD8B0E042
:10048000C080F7FEFFFFFFFFFFFFFFFFFFFFFFFF43
:10049000FEF7081080E0FCFEFEFCF880FFFFFFFF87
:1004A000FFFFFFFF80E0BCEAFEFCF880FBFEFFFFE1
:1004B000FFFFF7FF0808067FFF7F7FFF7F0600062C
:1004C000AF0000AF060010081800425A185A5A5AD6
:1004D000FFFFFFFFFF7E3C1818004218001842186B
:1004E0005A7E767E7A3418004242185A5A5A187E3A
:1004F000FFFFFFFFFF7E3C18420000184218002457
:100500007E6E7E7E5E2C1800180878F8F8F8FFFFE3
:10051000FEFCF8F8F8FEFFFFFFFFFFFFFFFEFCFC0C
:10052000F87000707070707E7478707070707E7E7D
:1005300072727272727478787000080800183C7ECB
:100540007E3C18000000182C34180000FEFEFEFE51
:10055000FEFEFEFEFCFCFCFCFCFCFCFCF8F8F8F8E3
:10056000F8F8F8F8130B050200000103010004007D
:10057000010101120202040404480808889090B0A6
:10058000B0989898584C2C26161303070703060AB0
:1005900002021404444C4C2C2616130B09050404C7
:1005A0000200000000000000020000000901020635
:1005B0001612121213131313130B09090909050458
:1005C0000404040202020201010101000000020011
:1005D00000000400000080C0E0C08080C0808080F7
:1005E000000000008080C0C0603070783030A020F3
:1005F00040408080808080C0C0C0C0C060606060BB
:10060000303030B098584C4C0C0E0E0C08280808AE
:100610000850101020204040404080800000405092
:10062000B82C7CFEFEF77FFFFFFFFFFFFEFEFCFC09
:10063000F8F0C000000100150249120A0A2415153D
:10064000090A230B8B0B230A230B230B000000004A
:1006500000000000000000DEDEDE0000001E1E00C4
:10066000001E1E00006CFEFE6CFEFE6C00485C541A
:10067000FE5474243072BCB0FC30FC320060F49E36
:10068000BA6EE4A03070BCB2F832FC300000007CDE
:10069000FEC68200000082C6FE7C000010547C383A
:1006A000387C54100018187E7E181800000080E076
:1006B000E06000000018181818181800000000E08A
:1006C000E0E0000000C06030180C0400007CFEFE7A
:1006D000FE82FE7C00000CFCFEFEFE0000C4E6F282
:1006E000DEDEDECC0044D692FEFEFE7C003E3E30D6
:1006F0003EFEFE30005EDEDADADAFA72007CFE8A56
:10070000FAFAFA72000202F2FAFE0E06006CFE928B
:10071000FEFEFE6C001CBEA2FEFEFE7C0000006C15
:100720006C6C0000000080ECEC6C000000001038E5
:100730007CFE0000006C6C6C6C6C6C000000FE7C3D
:1007400038100000000C06D2DADE0E04007CFEC673
:10075000BAAAB6BC00FCFE12FEFEFEFC00FEFEFEC7
:10076000FE92FE6C007CFEFEFE82C64400FEFEFE93
:10077000FE82FE7C00FEFEFEFE92928200FEFEFEE7
:10078000FE121202007CFEFEFE82A6E400FEFE10B7
:10079000FEFEFEFE0082FEFEFEFE82000040C282E1
:1007A000FEFE7E0200FEFEFEFE38EEC600FEFEFEEF
:1007B000FE80808000FEFE1EFC1EFEFE00FEFEFE91
:1007C0001C38FEFE007CFE82FEFEFE7C00FEFEFE6D
:1007D000FE223E1C007CFEA2FEFEFE7C00FEFEFE13
:1007E000FE22FEDC004CDE9EFEF2F664000202FEFB
:1007F000FEFE0202007EFE80FEFEFE7E003E7EE0E9
:10080000FEFE7E3E007EFEE07CE0FE7E00C6EE7CCC
:10081000387CEEC6000E1EFEF8FE1E0E00E2F2FA56
:10082000FEBE9E8E000000000000000000000000E0
:1008300000000000002030383C38302000103070BC
:10084000F0703010003078FCFC783000000000FCC4
:1008500000C0E0A0FCB8B8FFB0A0F4BAA1A1A1A567
:10086000AEB4E0C0181434FF1ED6161E1F17171E94
:100870001EFEFF3C0080E0D0D8FCDED0F0E080E03F
:10088000C0FFC0800000FC000000387456DE76D641
:100890005C7C38000090F09000000000C00000FE7A
:1008A00058585F7A5E5A5E7E7F7FE0C00000060F78
:1008B0000F0600000000007F7F4040404040407F26
:1008C0007F4040404040407F7F00000080C0209F2C
:1008D000505152520E000000000000000000081CA1
:1008E000141623C18080FE01FC03000000000000FC
:1008F0000003FFFCC122178A4322130283422333E1
:100900003A3F77E3C0201F90482828080C070407C7
:100910000C08080818103FE0C0808080FFF0100924
:10092000C5231008000000000C1EF3E180808080C9
:1009300080808080187E181EDA1A7C184040406043
:10094000604040400CCF0C0F3D0DCE0C000000006D
:100950000000008040800000000000000000000057
:100960000080E050A0C0800080000000000000E097
:100970003816682850608000000000000000020067
:1009800000000000000000000000807028D0E0C0DF
:1009900080000000000000080000000000000200CD
:1009A000200000000000000000008040A030381649
:1009B00041220408708000808040A0408040B00840
:1009C00028174A3C9A343860C000804001050A1C50
:1009D0009A22110000050A0F1408105028940A25C5
:1009E000010D020805010327060D0E081E451A0D0C
:1009F000100A000000011207850A0408105028940C
:100A00000A25111E287050D02C8243010402400197
:100A10000B163C7050D02894442201020A143870FE
:100A200050880408281444340A250209840001006F
:100A300000080000000001000201840323030402F7
:100A40000100000000000001820706097F4936000E
:100A50003E413E00464931004649310008080849F8
:100A60002A1C080000000000000000000000000038
:100A700000007F00000000007F007F0000007F007A
:100A80007F007F007F007F007F007F0011241FBE5A
:100A9000CFEFCDBFDFE3DEBF18E3A0E0B8E3E8EAC5
:100AA000FAE302C005900D92AE31B107D9F72EE3FB
:100AB000AEE1B8E301C01D92A036B207E1F70E9493
:100AC000851B0C94371C0C9400001092500481E09C
:100AD0008093480690911F3891111AC08093260484
:100AE000EFE5F8E38081809324088091230885FF57
:100AF000FCCF8181809324088091230885FFFCCF5F
:100B000032968CE3EF35F80769F781E0809325048E
:100B1000809150069091510680935F3C9093603C89
:100B200088E8809350040895CF93DF93DB01EB01B5
:100B300060966D9128E0629FB001112420E030E0C2
:100B4000FB01E20FF31FE80FF91FE491E423E093A8
:100B500024085091230855FFFCCF2F5F3F4F2830CA
:100B6000310571F7CA17DB0721F7DF91CF9108959F
:100B70009091480420910804207E892F8F70822B49
:100B8000089520912038309121382115310551F0F8
:100B90008091280A9091290A820F931F8093280A36
:100BA0009093290A8091233890912438009771F00E
:100BB00001978093233890932438892B39F48091BE
:100BC000000A8E7F8093000A109222380895509177
:100BD0002238451798F020932038309321384093DD
:100BE00022388093280A9093290A8091000A816014
:100BF0008093000A609323387093243808958823E3
:100C000021F080E180932504089580E180932604FB
:100C1000089591E09093080690910B069923E1F3D3
:100C2000209110063091110690915F3C290F82238C
:100C300008957F928F929F92AF92BF92CF92DF9250
:100C4000EF92FF920F931F93CF93DF93EC0181E01C
:100C50008093260480912738882309F485C08090EA
:100C6000253858E05819909126389295907F2FE4B6
:100C7000E22E28E3F22E30E8732E790EA12CB12C4F
:100C8000D7014D917D01DB01A90FB11D8C91F42F8E
:100C9000E8E08E9FF00D11248F2F242F30E0903F3D
:100CA00041F4FB011081F8E01F9F200D311D11243C
:100CB00008C050961C915097E8E01E9F200D311DF2
:100CC00011248501015A174C912C6D01F0E1CF0ED2
:100CD000D11CF801EF55F8435F01F0E89F1681F150
:100CE000FE01E80FF11DA490FE01E20FF31FE49155
:100CF000B12C082C02C0B594A7940A94E2F7052EF3
:100D000001C0EE0F0A94EAF7AE2AF801A1928F0112
:100D10004F5F483021F08F5F2F5F3F4F0FC08C91A6
:100D2000880F880F880F903F11F4FB0101C0F60176
:100D30002081F8E02F9F9001112440E09394C9CFC7
:100D4000905F97119DCF81E080932504DF91CF9133
:100D50001F910F91FF90EF90DF90CF90BF90AF90D9
:100D60009F908F907F900895AFE4B8E307E518E374
:100D700087E5C82E88E3D82EB12C812C912C8D913B
:100D8000F80191918F017B01EB0CF11C9701290F68
:100D9000311DF9014081282F30E0F8E04F9F200DF0
:100DA000311D1124A401415A574CA12CFA01EF55D1
:100DB000F8434F01F0E8AF16E1F0FE01E20FF31F38
:100DC0009490FA019192AF018F5F883019F02F5FF4
:100DD0003F4F0DC09F5F903208F090E0F701E90FA0
:100DE000F11D2081F8E02F9F9001112480E0A39451
:100DF000DDCF20E2B20ECA16DB0609F0C0CFA3CFCA
:100E0000282F269526952695962F96959695969514
:100E1000E7E5F8E3AFE4B8E38770677021938D935B
:100E200038E3EF35F307D1F79093263860932538F0
:100E3000089570E0FB01E95AF74C982F9695969526
:100E400096959083FB01E15BF74C87708083089552
:100E50002F923F924F925F926F927F928F929F92CA
:100E6000AF92BF92CF92DF92EF92FF920F931F93B8
:100E7000CF93DF93CDB7DEB72897CDBFDEBFFC01A0
:100E800054913296E983FA833197849186958695B9
:100E90008695A82EB12C589FC0011124F42FF7700D
:100EA0005F2E38E0432E4F1A459545954595A62F60
:100EB000062E000CBB0B30E84303A00DB11D11241E
:100EC000E22FF0E0EE0FFF1FE89F9001E99F300D49
:100ED000F89F300D1124E980FA802E0D3F1D452F1B
:100EE00050E00F3F21F4FA0131972E0F3F1F71E0C0
:100EF000511001C070E07A01EE0CFF1CE982FA8209
:100F00001F8218867501E70EF11CED82FE823C01FE
:100F1000641A750A802E002E000C9908EF80F88460
:100F2000ED81FE81EE16FF060CF077C0FD01E15A5F
:100F3000F74C6F017D01362EFA01EA0FFB1FEB83A0
:100F4000FC83EB81FC81EE16FF060CF058C0F70124
:100F5000EE27FC7FEF2B09F048C037FC46C0552038
:100F600009F438C0EF81F885EF2BC9F0F901E41BD3
:100F7000F50BE491F0E0042C02C0F595E7950A9496
:100F8000E2F71E2FF901E60DF71DE491F0E0042CC5
:100F900002C0F595E7950A94E2F77E2F02C070E053
:100FA00010E0EF81F885EA15FB05CCF4F9012490F7
:100FB000E22D052C01C0EE0F0A94EAF71E2BF90171
:100FC000E80FF91FE491052C01C0EE0F0A94EAF72F
:100FD0007E2B05C0F9011491E80FF91F749110954B
:100FE000F60120801221712B7083280D391D339456
:100FF000FFEFEF1AFF0A7FEFC71AD70AA2CFA05858
:10100000BF4F0F3F21F4E980FA802E0D3F1DEF8185
:10101000F8853196EF83F88781CF2896CDBFDEBF64
:10102000DF91CF911F910F91FF90EF90DF90CF90C4
:10103000BF90AF909F908F907F906F905F904F90F8
:101040003F902F9008958093273808958093240827
:101050008091230887FFFCCF0895CF93DF93E6E2CA
:10106000F4E0C2E0C083D1E0D0830E942608E5E22C
:10107000F4E0D083C083DF91CF9108958F3F29F4AE
:1010800081E090911E38911180E080931E3880910C
:101090001E38882329F080EA0E942D0880EC04C0C5
:1010A00081EA0E942D0888EC0E942D0880911E384C
:1010B00090E0089581E08093260490E190930604E7
:1010C00090930504809325048EEA0E942D0885EDF7
:1010D0000E942D0880E80E942D0888EA0E942D08B1
:1010E0008FE30E942D0883ED0E942D0880E00E946E
:1010F0002D0880E40E942D088DE80E942D0884E1CF
:101100000E942D0880E20E942D0880E00E942D0898
:1011100080911E380E943E088AED0E942D0882E1CF
:101120000E942D0881E80E942D088FE80E942D085A
:1011300089ED0E942D0881EF0E942D088BED0E9401
:101140002D0880E40E942D0884EA0E942D0886EA7A
:101150000E942D088FEA0C942D08109221088823F4
:1011600029F00E945A0810921F3806C08EEA0E9489
:101170002D0881E080931F3880E88093210808952E
:1011800081E080932504089581E0809326040895EA
:101190000E9465056BE67CE38CE495E00C941906EF
:1011A0004FEF6BE77CE38CE495E00E94940540E10F
:1011B00050E060E270E08BE79CE30C94301C1092EE
:1011C000713D80935D3E81E08093593E089580910A
:1011D0002C389EE0899FF0011124E858F24C2CE84D
:1011E00030E0208331832091143830E02487358724
:1011F0002FE530E02283338398EF948391E090874A
:101200001782118690EA958313868F5F803119F0DB
:1012100080932C38089510922C38089590912C3892
:1012200080E13EE0399FF0011124E858F24C24811E
:10123000203849F09F5F903109F490E0815091F798
:1012400090932C38089590932C38118681E008955E
:101250000F931F93CF938C01C62F0E940E0980918C
:101260002C38C230C9F058F4C13069F52EE0829FA5
:10127000F0011124E858F24C22E934E015C0C430E2
:10128000B1F0C83001F59EE0899FF0011124E858C3
:10129000F24C2CEF33E013C09EE0899FF001112443
:1012A000E858F24C20E534E0208331830CC02EE076
:1012B000829FF0011124E858F24C2EE234E02083A2
:1012C000318398E301C090E32EE0829FF001112466
:1012D000E858F24C028313839483C58391E093878B
:1012E0008F5F803119F080932C3802C010922C3817
:1012F000C093583ECF911F910F9108951F93CF93A4
:10130000DF93D82F162FC42F0E940E0990912C38EE
:10131000C03859F0C03999F48EE0989FF00111243B
:10132000E858F24C24E733E008C08EE0989FF001C3
:101330001124E858F24C26E833E0208331838EE014
:10134000989FF0011124E858F24C2D2FDD0F330B3C
:10135000228333831483C58313869F5F903119F0F2
:1013600090932C3802C010922C38DF91CF911F91AE
:101370000895DF92EF92FF920F931F93CF93DF9325
:101380008C01D62EE42EF22E0E940E09C0912C382C
:1013900080E2F81679F090E4F916B9F080E1F812DD
:1013A00022C09EE0C99FE0011124C858D24C8AEDAA
:1013B00093E008C08EE0C89FE0011124C858D24CC9
:1013C00088E993E0888399830EC09EE0C99FE0017D
:1013D0001124C858D24C82E593E0888399838FEF1B
:1013E0000E940906888780912C389EE0899FF00131
:1013F0001124E858F24C24E130E024873587028339
:101400001383D482E782F58213868F5F803119F0CF
:1014100080932C3802C010922C38DF91CF911F910D
:101420000F91FF90EF90DF9008950F931F93CF934C
:10143000DF938C01D62FC42F0E940E0980912C3887
:101440009EE0899FF0011124E858F24C2EE031E033
:10145000208331832C2F30E0248735870283138348
:10146000D483118691E09783C08720E325839387F7
:101470008F5F803119F080932C3802C010922C3885
:10148000DF91CF911F910F910895EF92FF920F93EB
:10149000CF93DF93C3E6DCE380E8E82EFF24FA94E1
:1014A0004A815B8140382FEF520799F001E020E03C
:1014B000688184EB94E00E9428078A819B810197D0
:1014C000883F2FEF920719F08A839B8302C0EA823C
:1014D000FB8224968CE3CB36D80711F7DF91CF91AE
:1014E0000F91FF90EF90089581E080934C3880E059
:1014F0000E94AD0880E00C94FF0581E00E9409067F
:1015000090910C38882321F0992339F0915003C031
:10151000923018F49F5F90930C3880910C380895A6
:1015200080911338E2E1FDE32BE13DE3DF01982FE9
:101530009D939F5F9B3508F091E42A173B07C1F705
:101540008150813408F48AE582939DE3EB30F907FA
:10155000B9F70895CF92DF92EF92FF928FEF8093C9
:10156000003840912E3850912F386091303870916A
:10157000313894EA86E02FEFE92FF0E0FC5EC0807E
:10158000D180E280F3804C155D056E057F0518F46F
:10159000209300380AC03FEF380F9052282F943E16
:1015A00011F0832FE9CF80930038FF90EF90DF9008
:1015B000CF900895109238381092393880E1809396
:1015C0003C3885E090E080933A3890933B3808951A
:1015D000CF9390915E3E992399F09091763D992317
:1015E00079F090913C38977059F0C82F0E94DA0A30
:1015F0008EE0C89FF0011124E858F24C80E8848303
:10160000CF91089580915E3E882371F080913C389F
:10161000877051F080911238681710F40C94DA0A30
:1016200040936F3D5093703D0895E3E6FCE380E8FE
:101630009FEF82839383868397830895E8E7FDE392
:1016400090E881E09483868313863E962EE3E83506
:10165000F207C1F710922C381092583E0895CF939C
:101660001092613C1092593E1092713D8AE0809335
:101670005D3EC1E0C09304380E941E0B1092733D82
:101680002091743D822F86958D5F8093753D922FBA
:10169000990FC0930B3880915B3E823009F44EC0A5
:1016A00028F48823A9F0813059F16AC0843009F404
:1016B0005BC008F453C0853009F062C0C0932B387A
:1016C00084E38093073810920A380E94E70858C0D4
:1016D00080E380930A3884E00E94DF088091743DA3
:1016E000823008F44DC092E090930B389AE59093C5
:1016F0000438982F990F890F8C5F0E94DF0840C033
:10170000213079F420930A3880E590E080933238D4
:101710009093333882E080935F3E83E08093753D01
:101720002FC080930A3828E230E0A901491B5109F3
:10173000409332385093333884E00DC081E3809376
:101740000A3826E430E0A901491B51094093323898
:101750005093333883E080935F3E12C082E08093E1
:101760000A3822E330E0EFCF23E120930A382CE35C
:1017700030E0291B31092093323830933338EBCFD6
:1017800081E090E08093343890933538CF9108957C
:10179000CF931092713D10923F381092403887E0FD
:1017A00080930538C1E0C0933C381092363884EFFE
:1017B00080930D3880E18093133883E3809312384F
:1017C00010923D3880E8809306380E94150B0E94E5
:1017D0001E0B10922B3810926F3D1092703DC093EB
:1017E0000B38CF9108950F93CF9360911338809168
:1017F000433890914438860F911D23E09695879544
:101800002A95E1F7809341389093423820913C38F3
:10181000223009F46AC050F4213009F0F9C021EEF9
:10182000280FAFE0B8E38C5190E013C0203109F4E9
:101830008DC0203209F4D0C0EBC030EE320F3C93A3
:10184000ED91F0E0E559F34C3081930F2F5F821753
:1018500021F0213E90F32C93F3CF80913F3880FF0D
:1018600002C08FEF01C081E080930E3840911238A2
:1018700046509695490F01E020E088E095E00E94EF
:101880002807E0910F38F0E0E559F34C4081809152
:101890001238480F00910E3820E0609113388AE327
:1018A00095E00E942807E0911038F0E0E559F34CEC
:1018B000408180911238480F60911338685F009121
:1018C0000E3820E08AE395E00E942807E091113865
:1018D000F0E0E559F34C408180911238480F609157
:1018E0001338605F00910E382BC001E020E040917A
:1018F000123888E095E00E94280780913D388931B0
:1019000010F0C4E001C0C6E0409112384C0F01E075
:1019100020E0609113388AE395E00E942807409107
:1019200012384C0F60911338685F20E08AE395E02D
:101930000E942807409112384C0F60911338605F65
:1019400020E08AE395E00E94280762C080910B386E
:10195000681B609313384091123840516C5F01E06E
:101960002091383880ED91E00E942807E0913A38C4
:10197000F0913B3825E030E04AE064E170E08CE231
:1019800091E0DC01EA9FC001EB9F900DFA9F900D62
:1019900011240E94E70580913A3890913B380197D5
:1019A000B1F485E090E080933A3890933B38809191
:1019B0003838909139380196809338389093393877
:1019C000049731F580E280933C388CE390E080937B
:1019D0003A3890933B381CC080913A3890913B380C
:1019E000019780933A3890933B38892B89F4809102
:1019F000773D81508093773D8F3F41F486E080931F
:101A0000053810923F381092403802C00E94C80B2F
:101A10000E94450A609106386038C1F020913F3835
:101A2000309140383695279536952795217001E0FD
:101A30004091293886EC94E00E942807809106386E
:101A40008E5F8E370CF080E88093063880913D38A9
:101A5000882309F457C090E0FC013197EE7FE857E6
:101A6000F544309112382081230F2093123820E062
:101A700030E048E064E170E0E4EFF1E0DC01AE9FCB
:101A8000C001AF9F900DBE9F900D11240E94E705ED
:101A900080913D388F5F813219F080933D3832C09C
:101AA00010923D3820916F3D3091703D21153105E8
:101AB00001F180912E3890912F38A0913038B0915B
:101AC0003138820F931FA11DB11D80932E38909342
:101AD0002F38A0933038B093313810926F3D109268
:101AE000703D2BEF3FEF48E068EC70E088E893E151
:101AF00007C020E030E048E068EC70E080E197E269
:101B00000E94E70580913C38877009F45EC090918F
:101B100046388091723D992361F083FF07C0909110
:101B20001338992319F091509093133882FF13C002
:101B30000BC082FF07C090911338992319F0915080
:101B40009093133883FF07C080911338873618F4B9
:101B50008F5F809313388091473887FF07C090913B
:101B60003D38911103C091E090933D3886FF2DC020
:101B7000E0912D38B4E0EB9FF0011124ED59F34CC6
:101B80008281938180389F4FE1F48091133890E0F7
:101B90000296808391838091123890E00897828327
:101BA00093832AE030E04AE064E670E080E293E06C
:101BB0000E94E70580912D388F5F8230C8F58093B1
:101BC0002D38809106388038B1F1809136388823DD
:101BD00009F44BC080913F3866E082FF02C080E884
:101BE00001C080E00E94190780913A3890913B38FB
:101BF000019780933A3890933B38892BB1F58091C7
:101C0000743D8F5F8093743D8091773D8F5F8093AB
:101C1000773D87E08093053810923F381092403826
:101C200010922B3810925B3ECF910F910C94C80B01
:101C300010922D38C6CF80911338805F809306387C
:101C40002AE030E04AE064E670E080E293E00E943F
:101C5000E70590913D3880911238992311F08E5FFD
:101C600001C0835080932938B0CFCF910F91089550
:101C700010925B3E8091743D9CEE899F802D1124D3
:101C80008457809314380C94C80B81E08093743D82
:101C900010922E3810922F3810923038109231381E
:101CA00082E08093773D0C94380E90E0FC01E5597A
:101CB000F34C840F911D9F012B563C432817390785
:101CC0001CF461936F5FF7CF0895CF93C82FC2952F
:101CD000CC0FC07E40E160E88C2F0E94550E40E1A1
:101CE00060E880E18C0F0E94550EEC2FF0E0E55982
:101CF000F34C80E2868381878287868B818F828FF7
:101D000040E160E98C0F0E94550E40E160E980E3FC
:101D10008C0FCF910C94550E2F923F924F925F9261
:101D20006F927F928F929F92AF92BF92CF92DF92EB
:101D3000EF92FF920F931F93CF93DF936B017C0180
:101D4000EA0189E0282E312C812C91EE992E95EF15
:101D5000A92E95E0B92E00E010E02AE0422E512C89
:101D6000612C712CC814D904EA04FB0470F0C7017B
:101D7000B601A50194010E94081C205D28836B0117
:101D80007C01219601E010E00CC00115110531F431
:101D900081E088169104A104B10419F480E38883DA
:101DA0002196C501B401A30192010E94081C4901BA
:101DB0005A0181E0281A3108A9F6DF91CF911F91CD
:101DC0000F91FF90EF90DF90CF90BF90AF909F90DA
:101DD0008F907F906F905F904F903F902F900895DD
:101DE000DC01FB019D91992311F09193FBCF0895A4
:101DF000CF93C82F0E94C40880913F3890914038FB
:101E0000019680933F389093403885FF08C0C111F8
:101E100006C065E87CE382E798EB0E94F00E0E9422
:101E2000D0086BE77CE389E798EB0E94F00E6091A5
:101E3000743D70E080E090E041E85CE30E948C0E2D
:101E40000E94D0086BE77CE380E898EB0E94F00EDC
:101E500060912E3870912F388091303890913138C0
:101E600041E85CE30E948C0E0E94D0086BE77CE3A3
:101E700087E898EB0E94F00E6091773D6F3F39F054
:101E800070E080E090E041E85CE30E948C0E0E94EC
:101E9000D0086BE77CE38EE898EB0E94F00E0E947E
:101EA000D0086BE77CE38FE998EB0E94F00E20915D
:101EB0005B3E922F990F920F80E1890F4091083875
:101EC000509109384F3F5F4F31F4253020F4C13035
:101ED00021F081E1890FC23011F02DE701C025E228
:101EE00030913F38082E000C990BFC01E559F34C5A
:101EF00033FF2E5F20830E94D008CC2391F00E94F4
:101F0000D008C23029F46FE77CE380EB98EB15C072
:101F100080913F3883FF13C06EE77CE38AEB98EB38
:101F20000CC060E87CE385EC98EB0E94F00E0E9408
:101F3000D00860E87CE381ED98EB0E94F00E0E94EF
:101F4000D0080E94C0088091723D86FF0AC087FFBA
:101F500008C0C11106C080E280936E3DCF910C9401
:101F6000740ACF910895CF93DF93C82F25E030E016
:101F70004AE064E670E080E991E00E94E705809124
:101F80002E3890912F38A0913038B091313886504A
:101F90009F4FAF4FBF4F80932E3890932F38A09311
:101FA0003038B093313880910738815080930738AA
:101FB000811126C08EE0C89FE0011124C858D24C80
:101FC00044E16C818A819B810E94150A8A819B81F0
:101FD00048E16C8140960E94150A80E88C8381E07C
:101FE0008093363884EB90E080933A3890933B3876
:101FF0006DE37DE38DED98EBDF91CF910C94F00EC6
:10200000DF91CF9108952F923F924F925F926F92FE
:102010007F928F929F92AF92BF92CF92DF92EF9278
:10202000FF920F931F93CF93DF93C8E7DDE3F12C6B
:1020300040E8842E99249A9410E8CC24CA94EE2483
:10204000E39452E9252E54E0352E4C81403809F4B2
:10205000C7C30E8129856A81888199810E942807DA
:10206000E881F981D4903196049110925E3E1092ED
:10207000763D2091133830E08A819B81A9014D5E25
:102080005F4F481759076CF04D2D0D2C000C550B68
:1020900044505109840F951F2817390714F4E09212
:1020A0005E3E2091123830E08C81082E000C990B96
:1020B000A901495F5F4F481759074CF0800F911DE8
:1020C00007FD9A952817390714F4E092763D33E618
:1020D000A32E3CE3B32E4D2C0D2C000C5508602E86
:1020E000002E000C7708F501428153814038FFEF44
:1020F0005F0709F470C0F501208131818A819B81DD
:10210000B901695F7F4F681779070CF464C0B201A9
:10211000680F791F261737070CF05DC06C81262FDA
:10212000062E000C330BFA013796E217F3070CF476
:1021300052C0260D371D421753070CF04CC07D814D
:10214000703309F448C0703A61F48F2D0E94B30FC8
:102150006C81685F8A819B8145E008960E94150A20
:1021600037C0707720912E3830912F384091303819
:10217000509131387723A9F07091613C7150709380
:10218000613C28513C4F4F4F5F4F20932E38309386
:102190002F38409330385093313846E00E94150A6A
:1021A0000DC0DA01C9010A96A11DB11D80932E3818
:1021B00090932F38A0933038B09331381C832FEF91
:1021C0003FEF4AE06CE271E08CEB92E00E94E705A1
:1021D000F50182829382F4E0AF0EB11C2BE6A216C9
:1021E0002CE3B20609F07FCF80910638803841F1A8
:1021F000082E000C990B2A813B81AC01415F5F4F97
:1022000042175307ECF02D0D311DD7FC3A9582177C
:102210009307B4F42091293830E08C81082E000C0B
:10222000990BA901495F5F4F481759074CF0800F80
:10223000911D07FD9A95BB24B394281739070CF01C
:10224000B12C8B85882389F080910B382A813B81C2
:10225000281B31092A833B834D2D552741950CF4CA
:102260005095241735070CF41C836C81603809F4F1
:10227000B7C20D81003109F4BFC080F4023009F407
:1022800055C018F4013069F1ABC2043009F47DC0C7
:10229000083009F0A5C248E552E079C0003809F4D9
:1022A00078C030F4003209F4EEC0003341F098C237
:1022B000003909F479C0003A09F446C191C28C850D
:1022C0009D8501978C879D87892B09F089C2898517
:1022D0008F5F8987833011F41C8382C286E090E08F
:1022E000CFC0BB2001F11C83109306382AE030E0F8
:1022F0004AE068EC70E08CED95E00E94E705809183
:102300002E3890912F38A0913038B09131388C59B7
:102310009F4FAF4FBF4F80932E3890932F38A0938D
:102320003038B093313844EF51E02AC0BB2031F14E
:1023300028823982ED828A819B8108968A839B83D9
:102340001093063823E030E04AE064E670E080E96C
:1023500091E00E94E70580912E3890912F38A0914E
:102360003038B0913138C296A11DB11D80932E38FE
:1023700090932F38A0933038B093313848EE53E023
:102380006CE28F2D0E94020B2BC24CE251E062E303
:10239000F8CF8F2D0E94E80A8C818F5F853314F46B
:1023A0008C831AC00C8318C08F2D0E94E80A8C8180
:1023B0008F5F8C83853384F021E030E048E06CE26D
:1023C00071E080ED97E00E94E7051C838A819B8184
:1023D00064E008970E942809BB2009F401C21C830D
:1023E000109306382FEF3FEF49E06CE271E08CEB81
:1023F00092E00E94E705F4C180913F3883FF02C05C
:10240000EE8201C0CE822F818A819B81820F911D35
:1024100027FD9A958A839B831816190614F0EF827C
:1024200004C0803791050CF0CF822091133830E042
:10243000A9014C5F5F4F48175907E4F4295F3F4FEC
:1024400028173907BCF02C853D85232B99F4209162
:10245000143830E02C873D87685F40E88C5F0E942D
:102460007E092FEF3FEF4AE064E670E080E991E0FB
:102470000E94E7058C859D85009709F4B1C10197FD
:102480008C879D87ADC180913F3883FF02C0EE826B
:1024900001C0CE822F818A819B81820F911D27FDF1
:1024A0009A958A839B831816190614F0EF8204C04C
:1024B000803791050CF0CF822C853D85232B09F5C3
:1024C00040911338242F30E0473518F02C5F3F4FF0
:1024D00002C0285D3F4F8217930799F4209114386A
:1024E00030E02C873D87685F40E98C5F0E947E0961
:1024F0002FEF3FEF4AE064E670E088E592E00E944B
:10250000E7058A819B812091133830E0285D3F4F99
:102510008217930709F0AECF2C853D85232B09F058
:10252000A9CF2091143830E02C873D876C81685FFB
:1025300040E98C5F0E947E092FEF3FEF4AE064E69E
:1025400070E088E592E094CF80912838282F30E021
:1025500080913F389091403882239323892B11F04A
:10256000EE8201C0CE82BB2059F0109306388F2D29
:102570000E94B30F45E06C818A819B810E94150AFD
:102580008C81803809F42CC180915E3E882351F003
:102590008091763D882331F080913C38877011F02E
:1025A0000E94DA0AE8858E2F90E0FC013197E8302E
:1025B000F10508F015C1E25CFF4F0C942A1C88E07D
:1025C0008093283880913F3880FF0AC18C818F5FCB
:1025D0008C83843209F004C182E0888787E00E94FE
:1025E0000906E7E08E9FC00111244E968C879D87D7
:1025F0008FE580934838F4C0809148388F5F8038E9
:1026000019F08093483802C010924838E091483859
:10261000F0E0EA53F64490819595959584E2891B04
:102620008C838C859D8501978C879D87892B09F0EC
:10263000D7C083E088872CE330E02C873D870E9459
:1026400009069091743D9B5F890F8A87C9C080916C
:1026500048388F5F803819F08093483802C0109254
:102660004838E0914838F0E0EA53F6448081859597
:10267000859594E2981B9C832C853D8521503109DA
:102680002C873D87232B09F0ABC09A8591509A8700
:10269000992381F06CE2681B8A8140E9845F0E9483
:1026A0007E092091743D3DEF3203C0011124865A0A
:1026B0009F4FE6CE84E0888782E08093283846E406
:1026C00050E04C875D871F828BC08C81893044F03D
:1026D0009F819F5F9F83943019F481508C831F8268
:1026E0008C859D8501978C879D87892B09F078C003
:1026F00085E01FC08C818D5F873314F48C8370C09C
:1027000057E35C8386E0888788E290E0B9CE8091C9
:102710003F3880FF05C08A819B8101968A839B8315
:102720008C859D8501978C879D87892B09F058C0E2
:1027300087E0888755C08A819B8102978A839B8323
:10274000803E9F4F0CF04CC088E0888787E00E9455
:102750000906F6E08F9FC0011124805891098A83F1
:102760009B8383E00E940906982F990F890F885F49
:102770008C831B8684E0809328382EE130E02C8700
:102780003D872EC08A819B8118161906DCF42C85A2
:102790003D85215031092C873D87232B99F46C818D
:1027A000685F40E8845F0E947E098091743D4AE042
:1027B00050E0481B5109CA01880F991F880F991FC3
:1027C0008C879D878A819B8101968A839B838F3525
:1027D000910534F0E88680912A388F5F80932A38FB
:1027E0002E96F39450E1F51230CCDF91CF911F91EA
:1027F0000F91FF90EF90DF90CF90BF90AF909F90A0
:102800008F907F906F905F904F903F902F900895A2
:102810000F931F93CF93DF930E94C80880913F3896
:1028200090914038019680933F38909340380E94B1
:10283000F30B0E940310809108389091093801969B
:1028400009F0EBC080910A388F7009F4A9C090910B
:10285000733D20915F3E921709F48FC02091343868
:10286000309135382115310509F49AC021503109CC
:102870002093343830933538232B09F091C09F5F73
:102880009093733D8230B9F0833069F1813009F063
:102890005EC00E940906C82F81E00E9409066C2FC5
:1028A000660F660F660FE82FF0E0EE0FFF1FEE5386
:1028B000F64420E112C081E00E940906C82F81E0A1
:1028C0000E9409066C2F660F660F660FE82FF0E076
:1028D000EE0FFF1FEE53F64420E241E0808191812C
:1028E0000E94B90934C081E00E940906C82F81E026
:1028F0000E940906682F660F660F660FEC2FF0E046
:10290000EE0FFF1FEE53F64420E141E080819181FC
:102910000E94B90981E00E940906682F660F660FC0
:10292000660F21E030E0CC2311F020E030E0220FF0
:10293000331FF901EE53F64420E241E0808191819A
:102940000E94B9098091613C8F5F8093613C87E070
:102950000E940906209132383091333893E0899FE4
:10296000200D311D11242093343830933538809157
:10297000613C8F5F8093613C13C08091613C811109
:102980000FC01092733D8091753D81508093753DCD
:10299000882341F080E590E0809334389093353877
:1029A000D0E005C080915D3E8093713DD1E0809183
:1029B0000A38807F99F183E00E940906182F9091D0
:1029C000743D923030F080915B3E811102C088E20C
:1029D00001C08CE320910A3825FF11702091043842
:1029E000215020930438211119C0990F990FC82F35
:1029F000C91B8FE00E9409068C0F123008F08C5E14
:102A00008093043861E070E001C0660F1A95EAF720
:102A10008FE790E00E94280901C0D0E020910B3898
:102A20008091433890914438820F911D80934338B0
:102A30009093443880910838909109388F3F2FEF58
:102A40009207D9F066E00E94190720910B38809117
:102A5000083890910938820F911D8093083890931F
:102A600009388F3F910549F040F00E942F0B8FEFFE
:102A70009FEF809308389093093880914338909164
:102A8000443887709927079791F4109237388091CE
:102A90000D388F5F09F480EE80930D3800910D386A
:102AA00010E00E947D0AF801E559F34C8083809183
:102AB0003F38817090913E38890F80933E388091E5
:102AC0002B38882359F143E060EA80E10E94550EDB
:102AD000AEE7BCE3EBE8FCE383EA8D93EA17FB0780
:102AE000E1F720910738922F969596958FE1891BF3
:102AF0004FE150E090E037EA8417950724F43293D1
:102B000041505109F9CF237029F0FC01E559F34CEC
:102B10002D55208380913F3880FF03C060E080E026
:102B200002C060E080E80E94190761E080E00E9436
:102B3000190780913E3862E086950E9419078091BE
:102B40003E3863E086950E94190764E080913E3824
:102B50000E94190765E080913E380E94190767E0DE
:102B6000809143380E9419078091433890914438EE
:102B70008F3F910509F018F4D1110CC028C09A9527
:102B80008093433890934438809108389091093865
:102B9000019691F79091713D8091593E890F8093F4
:102BA000713D90915D3E891790F01092713D81E0EA
:102BB00080930B3880915B3E91E0980F90935B3E41
:102BC0008E5B8093493D1092083810920938DF914E
:102BD000CF911F910F910895942F990F490F90E273
:102BE000699F800D112493E0940F841B50E2E42F21
:102BF000F0E0EE0FFF1FEA5BF54460817181E82F82
:102C0000E40FF0E0E559F34C20E030E0DB01022E68
:102C100002C0B595A7950A94E2F7A0FF02C0108202
:102C200001C050832F5F3F4FB0962530310571F7BB
:102C30004F5F4913DCCF089540E051E060E270E05F
:102C40008BE69CE30C94301CCF930E941C1660E032
:102C500080E00E940007C0911D3880911D388A30A5
:102C600040F041E050E063E070E080E090E00E94DE
:102C7000EC158C2F6AE00E94FC1B492F50E063E0AA
:102C800070E083E090E00E94EC158091493880FF6D
:102C900008C04AE050E063E070E087E090E00E9406
:102CA000EC15C0911C38CA3038F08C2F6AE00E94B5
:102CB000FC1B482F50E002C040E050E063E070E0B1
:102CC00089E090E00E94EC158C2F6AE00E94FC1BCA
:102CD000492F50E063E070E08DE090E00E94EC1539
:102CE00080913A3890913B38009709F475C001976C
:102CF00080933A3890933B388CE380936B3C8EE31F
:102D000080937A3C80914538813099F038F0823058
:102D1000B1F46FEA7CE38DE099EB0FC06DE87CE3E2
:102D20008CEE98EB0E94F00E6DE67CE387EF98EB5B
:102D300004C06EEA7CE384E099EB0E94F00E80917F
:102D40004538882309F448C06DE67CE388E199EBB7
:102D50000E94F00E9091473890FF1DC02CE231E0A8
:102D600020933A3830933B3820914538213051F444
:102D700080911D388F5F80931D388D3061F42093D2
:102D80001D3809C080911C388F5F80931C388C33AC
:102D900011F410921C3891FF1FC08CE291E08093D7
:102DA0003A3890933B3880914538813059F480917E
:102DB0001D38815080931D3881110EC08CE08093A6
:102DC0001D380AC080911C38815080931C388F3F79
:102DD00019F48BE380931C38CF9108950E941C1640
:102DE00085E00E94650E60E080E00E940007EBE64F
:102DF000FCE38CE380838EE387876EE67CE381E2ED
:102E000099EB0E94F00E6CEC7CE38CE299EB0E9453
:102E1000F00E60E57DE38BE399EB0E94F00E60E637
:102E20007DE384E499EB0E94F00E81E080935C3EA8
:102E300008950F931F93CF93DF930E941C169BE07E
:102E400090936B3C89E88093703C26E82093723C19
:102E50002093973C90938D3C8093913C2093943C9D
:102E600090937A3C8093893C8CE68093763C909159
:102E7000743D43E06AE18EE0891B0E94550E9091FB
:102E8000743D43E06DE18EE2891B0E94550E82E0A5
:102E90000E94650E8091743D80FF13C04DE063E099
:102EA00080EA0E94550E42E061E180E80E94550EE2
:102EB00042E063E187E80E94550E45E065E18BE85A
:102EC00039C0EBE0FDE38BE29DE32CE721938E1705
:102ED0009F07E1F743E060E680E80E94550E43E07B
:102EE00060E780EA0E94550E42E063E684E80E94B3
:102EF000550E42E063E784EA0E94550E42E065E623
:102F000087E80E94550E42E065E787EA0E94550E69
:102F100043E067E68AE80E94550E43E067E78AEAE5
:102F20000E94550E42E06AE68DE80E94550E42E08E
:102F30006AE78DEA0E94550EEBEEFCE381918787EC
:102F4000878D87A78CE3EB3FF807C1F7CBE4DDE380
:102F50000BE61DE30E947D0A89930C171D07D1F72C
:102F600010924338109244380E94150B0E941E0B99
:102F70006DE37DE380E599EB0E94F00E80915B3E6E
:102F80008F5B8093493D1092083810920938DF9189
:102F9000CF911F910F9108950F931F93CF93DF93BC
:102FA0000E941C1660E080E00E9400078CE3809382
:102FB0006B3C8EE380937A3C6EE67CE38FE599EB85
:102FC0000E94F00E04E014E1D1E3C0E44C2F50E085
:102FD000FA01E559F34CD083DA01A359B34C93ECD1
:102FE0009C0F80EC8C0FE82FF0E0FC5E20812D938D
:102FF0008F5F9813F8CFF80160817181828193818E
:103000004F58534C0E948C0EC05EDF5F005E1F4F16
:10301000C111DCCF81E080935C3EDF91CF911F91A5
:103020000F9108950E941C1660E080E00E94000746
:10303000109243381092443843E050E06CE770E05F
:1030400081E098E30E94301C0E94AA0A8091003817
:103050008F3F31F488E08093053810925C3E0895EC
:103060006CE67CE38AE699EB0E94F00E80910038D2
:10307000805D8093793C60912E3870912F388091DB
:103080003038909131384FEC5CE30E948C0E8DE526
:103090008093323D81E480931338109212386BE4B0
:1030A0007DE387E799EB0E94F00E10923A38109278
:1030B0003B3881E080935C3E0895DB0190910210E3
:1030C00091FDFCCFE82FF0E0FC5E9C919083E1E065
:1030D000E80FF0E0FC5E11969C9111979083E2E07E
:1030E000E80FF0E0FC5E12969C9190838D5F90E07B
:1030F000FC01EF5FFB4E208331833296CA01AA2781
:10310000BB27808391838DE984BF83E08093001087
:1031100008950F931F93CF9380910038815080932F
:103120000038853020F4C0E804E010E01AC0209197
:103130002E3830912F38409130385091313880916D
:10314000003861E078E38295880F807E0E945D18E8
:103150008AE08093053810925C3ECF911F910F91C9
:1031600008958091003890E00817190704F3EC2FB8
:10317000F0E0FC5E808180936B3DE1E0EC0FF0E0DD
:10318000FC5E808180936C3DE2E0EC0FF0E0FC5E41
:10319000808180936D3DE4E0EC0FF0E0FC5E2081E7
:1031A0003181428153816BE67DE380E28C0F0E9486
:1031B0005D1801501109C052D4CFCF92DF92EF9227
:1031C000FF92CF9381E48093013882E480930238A8
:1031D00083E480930338C0E080E9C82E8FE5D82EC1
:1031E000EE24E394F12CA701960161E078E38C2FA3
:1031F0000E945D1880E1C81A87E2D80AE108F10848
:10320000C05EC03E81F7CF91FF90EF90DF90CF90EE
:1032100008958091001480548B3110F00E94DD18C5
:1032200080E00C9423080E941C1660E080E00E945D
:1032300000078CE380936B3C8EE380937A3C60E7DD
:103240007CE388E899EB0E94F00E6BEA7CE380E96E
:1032500099EB0E94F00E6BEC7CE38AE999EB0E94FB
:10326000F00E6BE07DE389EA99EB0E94F00E60E3DB
:103270007DE386EB99EB0E94F00E8091723D8274A3
:10328000823411F40E94DD188091723D86FF03C0E4
:1032900087FD0C94740A08950E94B8058093723DCE
:1032A0004091623C30916E3DE5E1F8E390E0219180
:1032B000582F522359F0522F542311F0922B07C04C
:1032C000522F532321F0922B30E001C0322B28E300
:1032D000EC31F20761F79093473830936E3D95FFDC
:1032E00013C08091053887FF0FC0803921F480E832
:1032F0008093053809C080E98093053820E230E0EA
:1033000020933F383093403893FF12C080910538A6
:1033100083FF0EC02CE231E020933A3830933B38E3
:1033200010925C3E8F5F8C3009F488E08093053802
:1033300092FF12C08091053883FF0EC010925C3E50
:103340002CE231E020933A3830933B38815087307B
:1033500009F48BE08093053880910538893009F4B1
:103360007AC070F4863009F465C020F4853009F421
:10337000A9C00895873009F448C0883069F00895DD
:103380008B3009F49BC008F491C0803809F450C018
:10339000803909F44AC0089580915C3E811102C0D1
:1033A0000E94EE160E94C80880913F3890914038E4
:1033B000019680933F389093403880FF09C08091F8
:1033C0004338909144380196809343389093443821
:1033D00080914338909144389695879565E00E9496
:1033E000190780914338909144389695879566E007
:1033F0000E94190767E0809143380E941907809165
:10340000473887FFD7C00C94450E81E00E94F80E24
:1034100080913F38909140388837910509F0CAC0B3
:1034200080E8809305380C94191780E00C94F80E0E
:103430000C94081482E00E94F80E80913F3890911D
:103440004038843B910509F0B5C085E0809305388C
:1034500010925C3E08950E94C8080E942416909124
:10346000473896FF10C02CE231E020933A38309371
:103470003B38809145388F5F833019F08093453811
:1034800002C01092453897FF95C08CE291E080937E
:103490003A3890933B38109221088FEF0E943E08F3
:1034A0008093463880E880932108089580915C3E9F
:1034B000811102C00E94CC170C94C8080E94C80851
:1034C0000C94131980915C3E811102C00E94121865
:1034D0000E94900A2091123D809101388093CB3C4C
:1034E000809102388093CC3C809103388093CD3C0E
:1034F00080913A3890913B38009761F00196809323
:103500003A3890933B388A35910509F048C00E94BB
:10351000891845C080913F38E0911238AE2FB0E055
:10352000AF5FB74C83FF03C08CE78C9301C02C9333
:103530009091473896FF0BC0EE2349F08FEF8E0F26
:1035400080931238F0E0EF5FF74C8CE7808397FFB1
:1035500012C080911238E82FF0E0EF5FF74C208323
:103560008F5F80931238833031F421E030E0209374
:103570003A3830933B3893FF08C0809113388F5FFF
:103580008B3508F081E48093133892FF08C0809156
:1035900013388150813408F48AE5809313380E94EF
:1035A000C80880913F3890914038019680933F3809
:1035B00090934038089580914C38882311F0889575
:1035C000FACF80914B388031B1F710924B3881E0BF
:1035D0000E94FF050E944C1980E00E94FF05EBCF7E
:1035E0001F920F920FB60F9211242F933F934F9378
:1035F0005F936F937F938F939F93AF93BF93EF935B
:10360000FF9380914B388F5F80934B380E94C105A8
:1036100081E08093460AFF91EF91BF91AF919F9116
:103620008F917F916F915F914F913F912F910F906B
:103630000FBE0F901F9018951F920F920FB60F920A
:1036400011242F933F934F935F936F937F938F93A7
:103650009F93AF93BF93EF93FF9380914C38882350
:1036600061F010924C3881E00E94AD0880910538DD
:10367000803919F480E88093053880E2809309044A
:10368000FF91EF91BF91AF919F918F917F916F913A
:103690005F914F913F912F910F900FBE0F901F9010
:1036A00018951F920F920FB60F9211248F9380914D
:1036B00049388F5F809349388C33B9F41092493878
:1036C00080911C388F5F80931C388C3371F410927A
:1036D0001C3880911D388F5F80931D3880911D3874
:1036E0008D3019F481E080931D3880914C38811120
:1036F00003C081E080934A3881E0809353018F9129
:103700000F900FBE0F901F901895CF9388ED84BF38
:10371000109261008091630084FFFCCF88ED84BF2C
:1037200081E080937C00809141018111FCCF80E891
:103730008093400182E08093470180915101811183
:10374000FCCF81E780935001C1E0C09352018AE130
:103750008093000483E3809320041092400488E85F
:1037600080935004809351048093520480935304B7
:1037700099E890931504809316048093170481E3CD
:103780008093200880E090E00E945A0880E88093AF
:103790002108C093450A80E197E280934C0A9093F8
:1037A0004D0A83E08093400A81E48093010A1092DD
:1037B000280A1092290A88E08093000A84E0809306
:1037C0000202C093000683E18093020692E0909388
:1037D0000606C09340068093420686E08093460624
:1037E00085E08093500078940E9409190E94DB1AAA
:1037F00080E090E0CF910895991B79E004C0991F73
:10380000961708F0961B881F7A95C9F7809508953A
:10381000A1E21A2EAA1BBB1BFD010DC0AA1FBB1FD4
:10382000EE1FFF1FA217B307E407F50720F0A21B46
:10383000B30BE40BF50B661F771F881F991F1A94B3
:1038400069F760957095809590959B01AC01BD01DD
:10385000CF010895EE0FFF1F0590F491E02D09941C
:10386000DC0101C06D9341505040E0F70895F89499
:02387000FFCF88
:103872005041555345440053544147453A00534340
:103882004F52453A004C495645533A004120204296
:10389200202043202044202045202046006D7E7EAB
:1038A2006E7E7E6E7E7E6E7E7E6E7E7E6F00474177
:1038B2004D45204F56455200474554202052454120
:1038C200445900422B41203D20534C454550004D68
:1038D200454E55203D2057414B45002045585452F6
:1038E20041204C4946452120200041203D20524F95
:1038F200544154450042203D205345542054494DE3
:1039020045005D5E20484F555253004D494E555477
:103912004553205D5E0042203D204E455854004DE7
:103922004F4F4E20464F5243450041203D205354B5
:103932004152542047414D45004D474320323032D9
:10394200310042592042454E204845434B004348EE
:1039520045434B504F494E542028302900544F5074
:103962002053434F52455300484947482053434F41
:103972005245202300423D52554220202020413D05
:10398200454E544552004F5054494F4E5300422B1E
:10399200413D534C45455000284D454E5520544F0E
:1039A2002057414B452900422B444F574E3D434C33
:1039B20045415200484947482053434F524553001E
:1039C200F0FF800010111212131415151617181893
:1039D200191A1A1B1B1C1C1D1D1E1E1E1F1F1F2019
:1039E200202020202020202020201F1F1F1E1E1EDE
:1039F2001D1D1C1C1B1B1A1A191818171615151435
:103A020013121211100F0E0E0D0C0B0B0A090808DF
:103A12000706060505040403030202020101010070
:103A2200000000000000000000000101010202028B
:103A32000303040405050606070808090A0B0B0C14
:103A42000D0E0E0F1F0011001F0000001F000000CE
:103A52001D0015001700110015001F0007000400CB
:103A62001F00170015001D001F0015001D0001009A
:103A720001001F001F0015001F00070005001F00A6
:103A82000A0000000000FDFFFEFFFFFFFFFF000035
:103A9200FFFF000000000000000001000000010024
:063AA20001000200030018
:103AA800014142430A088034FFFFFF0101F401E3AA
:0E3AB800E4E5331096010204082040801E064B
:00000001FF
