:100000000C9446070C9463070C9463070C946A1DC8
:100010000C9463070C9463070C9463070C949F1D66
:100020000C9463070C9463070C9463070C946307A8
:100030000C9463070C943E1D0C9463070C946307A7
:100040000C9463070C9463070C9463070C94630788
:100050000C9463070C9463070C9463070C94630778
:100060000C9463070C9463070C9463070C94630768
:100070000C9463070C9463070C94630733145014B7
:100080007B14B914CE14DB14EF1416152010C0E045
:10009000F0F0F8F8FCFCFEFEFFFFFFFFFFFFFFFFA4
:1000A000FFFFFFFFFEFEFCFCF8F8F0F0E0C0070FDA
:1000B0001F1F1F1F1F1F1F1F1F3F3F7FFFFFFFFF30
:1000C0007F3F3F1F1F1F1F1F1F1F1F1F0F070040C6
:1000D000606070504848646472727A7A7A7A7A7A88
:1000E0007A7E7E7E7C7C7878707060604000000351
:1000F0000B0B0B0B0B080808081B1B3B7B7B7B6B5C
:100100002B1B1B080808080B0B0B0B0B0300101014
:1001100000C6DFFEFCF8F0F0FEF0E0F0784C4600A0
:10012000010347FF7F3F1F1F3F7F3F1F0F1E1C2004
:100130000000461CB8B0C0C0F4C060B00844000065
:1001400000010145311F0F051F3F0316060C10006B
:100150000FDFE32B12389C1C3BC0C49627733F1E55
:100160007079FBFA64410C3072E3FB7158993F1EC1
:10017000060BC12A00180C0C0100C0920321311E8D
:100180006070D9CA4001082060C2F3611890311E26
:10019000464701022440000C00001232A8892326A1
:1001A00070F2C294B4401008006031029880F07878
:1001B00046010002200000040000001220880122F5
:1001C00070C28014A00010000040200210808070D7
:1001D0001018000000000000E0F8E000000000003F
:1001E00000000000C00CFCF0FFFFFFE0E0E818009A
:1001F00000807070F1FFFFFFFFFF7FFFFF7FFEEFCA
:10020000E34000000000000000D0000000000000FB
:1002100000000000800430E080FFE080C060080043
:1002200000802020A052747DFF373F7DBF3E6C428E
:1002300040000040C0847CF8C0FEFEF07E8EF8FED8
:100240000600001071FF9EFFFFFFFFFCFCCFF73C94
:100250000E02000C38717F7FFF030703FFFF1308B6
:1002600004040040800478C0007E8000700E80F896
:1002700006000010619E0093E07CEFFCC008C730D0
:100280000C020008300106770000030001FE03089D
:100290000004060F2333FFEE066783FBE26EE7C31D
:1002A0001F3E0002331B73C61C7C00FFFF00780C4E
:1002B000868000040C000001060000180100000008
:1002C00001010601211336E00227037B222026C309
:1002D000071E0002110932C4180000007F00380414
:1002E000028000040000000002000008000000007E
:1002F00000003C7F67E3C0000408201041E1E7FFF5
:10030000FE7C00070F0C0840820400004020090F0B
:100310000E0018180000000000000000303000003F
:1003200006063C6643C18000040000100041C1E69F
:100330007C1800070C0800400200000000200008A4
:100340000600100000000000000000000020000077
:1003500000041008183C7E7FFFFFFFFFFFFFFFFF38
:10036000FFA581810018343C7E7E7E7E7E242400A1
:100370002400000008083078FEFFFFFF7B310030CA
:1003800068F6FD79310008080F7FFCFFFFFC7F0F46
:10039000070C70C6C6700C071010001C3E7F7F7FD4
:1003A000FEFCC0E0F0F0F0E0C0000000387CFEFE93
:1003B000FF7F3F0307070703010000001C3A3E3E92
:1003C0005C8000C0E0A0E0C00000000000387C7C41
:1003D0005C3A00010303030100001008387C7C7CB8
:1003E0007E7EFFFFFFFF7E7E7C7C7C3800282828F5
:1003F0002420686C6E4E2C2C282828001808010335
:100400000307070F0F0F1F3F7FFFFFFFFFFFFF3F98
:100410001F0F07030101FEFCFCF8F8F0F0F0E0C04C
:1004200080000000000000C0E0F0F8FCFEFE1008B4
:1004300001030307070F1F7FFFFF3F1F0F0301018A
:10044000FEFCFCF8F8F0E0800000C0E0F0FCFEFEEE
:100450001010C0E0F8FCFEFEFEFEFEFEFCF8F0E030
:10046000C080FFFFFFFFFFFFFFFFFFFFFFFFFFFF5A
:10047000FFFFC0E0B8D4FAFEFEFEBEFAFCD8B0E042
:10048000C080F7FEFFFFFFFFFFFFFFFFFFFFFFFF43
:10049000FEF7081080E0FCFEFEFCF880FFFFFFFF87
:1004A000FFFFFFFF80E0BCEAFEFCF880FBFEFFFFE1
:1004B000FFFFF7FF0808067FFF7F7FFF7F0600062C
:1004C000AF0000AF060010081800425A185A5A5AD6
:1004D000FFFFFFFFFF7E3C1818004218001842186B
:1004E0005A7E767E7A3418004242185A5A5A187E3A
:1004F000FFFFFFFFFF7E3C18420000184218002457
:100500007E6E7E7E5E2C1800180878F8F8F8FFFFE3
:10051000FEFCF8F8F8FEFFFFFFFFFFFFFFFEFCFC0C
:10052000F87000707070707E7478707070707E7E7D
:1005300072727272727478787000080800183C7ECB
:100540007E3C18000000182C34180000FEFEFEFE51
:10055000FEFEFEFEFCFCFCFCFCFCFCFCF8F8F8F8E3
:10056000F8F8F8F8130B050200000103010004007D
:10057000010101120202040404480808889090B0A6
:10058000B0989898584C2C26161303070703060AB0
:1005900002021404444C4C2C2616130B09050404C7
:1005A0000200000000000000020000000901020635
:1005B0001612121213131313130B09090909050458
:1005C0000404040202020201010101000000020011
:1005D00000000400000080C0E0C08080C0808080F7
:1005E000000000008080C0C0603070783030A020F3
:1005F00040408080808080C0C0C0C0C060606060BB
:10060000303030B098584C4C0C0E0E0C08280808AE
:100610000850101020204040404080800000405092
:10062000B82C7CFEFEF77FFFFFFFFFFFFEFEFCFC09
:10063000F8F0C000000100150249120A0A2415153D
:10064000090A230B8B0B230A230B230B000000004A
:1006500000000000000000DEDEDE0000001E1E00C4
:10066000001E1E00006CFEFE6CFEFE6C00485C541A
:10067000FE5474243072BCB0FC30FC320060F49E36
:10068000BA6EE4A03070BCB2F832FC300000007CDE
:10069000FEC68200000082C6FE7C000010547C383A
:1006A000387C54100018187E7E181800000080E076
:1006B000E06000000018181818181800000000E08A
:1006C000E0E0000000C06030180C0400007CFEFE7A
:1006D000FE82FE7C00000CFCFEFEFE0000C4E6F282
:1006E000DEDEDECC0044D692FEFEFE7C003E3E30D6
:1006F0003EFEFE30005EDEDADADAFA72007CFE8A56
:10070000FAFAFA72000202F2FAFE0E06006CFE928B
:10071000FEFEFE6C001CBEA2FEFEFE7C0000006C15
:100720006C6C0000000080ECEC6C000000001038E5
:100730007CFE0000006C6C6C6C6C6C000000FE7C3D
:1007400038100000000C06D2DADE0E04007CFEC673
:10075000BAAAB6BC00FCFE12FEFEFEFC00FEFEFEC7
:10076000FE92FE6C007CFEFEFE82C64400FEFEFE93
:10077000FE82FE7C00FEFEFEFE92928200FEFEFEE7
:10078000FE121202007CFEFEFE82A6E400FEFE10B7
:10079000FEFEFEFE0082FEFEFEFE82000040C282E1
:1007A000FEFE7E0200FEFEFEFE38EEC600FEFEFEEF
:1007B000FE80808000FEFE1EFC1EFEFE00FEFEFE91
:1007C0001C38FEFE007CFE82FEFEFE7C00FEFEFE6D
:1007D000FE223E1C007CFEA2FEFEFE7C00FEFEFE13
:1007E000FE22FEDC004CDE9EFEF2F664000202FEFB
:1007F000FEFE0202007EFE80FEFEFE7E003E7EE0E9
:10080000FEFE7E3E007EFEE07CE0FE7E00C6EE7CCC
:10081000387CEEC6000E1EFEF8FE1E0E00E2F2FA56
:10082000FEBE9E8E000000000000000000000000E0
:1008300000000000002030383C38302000103070BC
:10084000F0703010003078FCFC783000000000FCC4
:1008500000C0E0A0FCB8B8FFB0A0F4BAA1A1A1A567
:10086000AEB4E0C0181434FF1ED6161E1F17171E94
:100870001EFEFF3C0080E0D0D8FCDED0F0E080E03F
:10088000C0FFC0800000FC000000387456DE76D641
:100890005C7C38000090F09000000000C00000FE7A
:1008A00058585F7A5E5A5E7E7F7FE0C00000060F78
:1008B0000F0600000000007F7F4040404040407F26
:1008C0007F4040404040407F7F00000080C0209F2C
:1008D000505152520E000000000000000000081CA1
:1008E000141623C18080FE01FC03000000000000FC
:1008F0000003FFFCC122178A4322130283422333E1
:100900003A3F77E3C0201F90482828080C070407C7
:100910000C08080818103FE0C0808080FFF0100924
:10092000C5231008000000000C1EF3E180808080C9
:1009300080808080187E181EDA1A7C184040406043
:10094000604040400CCF0C0F3D0DCE0C000000006D
:100950000000008040800000000000000000000057
:100960000080E050A0C0800080000000000000E097
:100970003816682850608000000000000000020067
:1009800000000000000000000000807028D0E0C0DF
:1009900080000000000000080000000000000200CD
:1009A000200000000000000000008040A030381649
:1009B00041220408708000808040A0408040B00840
:1009C00028174A3C9A343860C000804001050A1C50
:1009D0009A22110000050A0F1408105028940A25C5
:1009E000010D020805010327060D0E081E451A0D0C
:1009F000100A000000011207850A0408105028940C
:100A00000A25111E287050D02C8243010402400197
:100A10000B163C7050D02894442201020A143870FE
:100A200050880408281444340A250209840001006F
:100A300000080000000001000201840323030402F7
:100A40000100000000000001820706097F4936000E
:100A50003E413E00464931004649310008080849F8
:100A60002A1C080000000000000000000000000038
:100A700000007F00000000007F007F0000007F007A
:100A80007F007F007F007F007F007F00000000006C
:100A90000000000000000000000000000000000056
:100AA0000000E0F0F880000000000000000080E09E
:100AB000F0E00000000080C08000000000000000A6
:100AC000000000C0F8FE3C00000000000000000034
:100AD0000000000000008000000080C0C080000016
:100AE000000000008080800018181898FCFEFF1D90
:100AF0000C0C0C00000000000000000000000000D2
:100B000000000000000000000000000000000000E5
:100B100000000000000000000000000000000000D5
:100B200000001FFFFF1F3C70E0E060301C0E03FF61
:100B3000FF0700000003C3C3000000000000C0E086
:100B400070188CFFFFC700000080E078FCFC80C0BC
:100B5000F8FEFE00C07C0F00607FF9DDC7C1C060F9
:100B6000301806C3CFFFFF6030180E077FFFF36019
:100B70003010000000000000000000000000000035
:100B8000000000000000000000000000E0E0F0F0C5
:100B9000F0F0F0F0F0F0F0F0F0787878787800008D
:100BA0000000003F7F400000000000000000003F08
:100BB0001F00000C0603030F1F1C0C0C079F9F9DBA
:100BC0008C878180818387878381000001074FC7DD
:100BD000C0C10707010000E0E0E0E0E1E1E0E0E0A3
:100BE000F0F0F1F1F3F1F0F0C000000000F8F8F8D7
:100BF000F838383838383C3C3C3C3CFCFCFCF800CD
:100C000000000000000000000000000011F1F0F002
:100C1000E0000000000000C0C0C0E0E0E0E0C00074
:100C20000000041C1C1C1C1E1E1E1E1E1E0E0E0E72
:100C30000EFEFFFEF000000000FFFFFF8707070722
:100C4000FFFFFF07030303FFFFFFFC00000000FF9F
:100C5000FFFFFF00000000FFFFFFFF00000000009B
:100C60000000000000FFFFFFFF00000000FFFFFF8B
:100C7000FF0000000000000000000007FFFFFFF081
:100C800000000000000000000000000000FFFFFF67
:100C9000FF00000000000001010101FFFFFFFF0055
:100CA0000000003CFEFEFE0E0E0E0E0E0E0E0F0F8E
:100CB0000787FFFFFF800000001FFFFFFF0000000D
:100CC00000FFFFFF00000001FFFFFFE00000000742
:100CD000FFFFFFF800000001FF7F7F7C00000000A5
:100CE0000000000000033F3F3F3E000000001F1FC8
:100CF0001F1C1C1C1E1E1E1E1E1E9E8EBFFFFFFFE5
:100D000080000000000000000000000000011F3F04
:100D10003F3F3C3C1C1C1C1C1C1C1E1E1F1F1F8E0E
:100D20008080C0C00F0F0F0F0F0FCFC7C707070777
:100D3000070707070703000080F07373C300000074
:100D40000003010100E0F0F8F9B9B901000000006A
:100D50000030F8FCFCDCDC800000000000003EFEFF
:100D6000FE8000000000000030FCFECE87878784F4
:100D70000000000001070707070707070707070329
:100D80000100000000000000000000000000000062
:100D9000000000000000000000000000003E7F7F17
:100DA000E3E1E1E1C00000000000077F7F707070A8
:100DB000700000000000303C3F0F06060F3F3C185B
:100DC00000000000041C1D1D1F0F0F070000000085
:100DD00000020E0E0E0F07030000000000000007C7
:100DE00007070000000000000000E1212323232367
:100DF000E00000E0202020A020E00000E0202020F3
:100E00002020E00000602020E00000000000000042
:100E100000000000000000000000000000000000D2
:100E200000000000000000000000000000000000C2
:100E300000000000000000000000000000000000B2
:100E400000000000000000000000000000000000A2
:100E50000000000000000000000000000000000092
:100E600000000000000000000000F98888888888E1
:100E7000CF0000FF808080BF80FF0000F988888855
:100E80008888CF0000C08080FF8080C011241FBEF2
:100E9000CFEFCDBFDFE3DEBF18E3A0E0B8E3E0E5CE
:100EA000FFE302C005900D92AC31B107D9F72EE3F4
:100EB000ACE1B8E301C01D92A136B207E1F70E9490
:100EC000D31D0C94851E0C9400001092500481E0F8
:100ED0008093480690911E3891111AC08093260481
:100EE000ECE5F8E38081809324088091230885FF56
:100EF000FCCF8181809324088091230885FFFCCF5B
:100F000032968CE3EC35F80769F781E0809325048D
:100F1000809150069091510680935C3C90935D3C8B
:100F200088E8809350040895CF93DF93DB01EB01B1
:100F300060966D9128E0629FB001112420E030E0BE
:100F4000FB01E20FF31FE80FF91FE491E423E093A4
:100F500024085091230855FFFCCF2F5F3F4F2830C6
:100F6000310571F7CA17DB0721F7DF91CF9108959B
:100F70009091480420910804207E892F8F70822B45
:100F8000089520911F38309120382115310551F0F6
:100F90008091280A9091290A820F931F8093280A32
:100FA0009093290A8091223890912338009771F00C
:100FB00001978093223890932338892B39F48091BC
:100FC000000A8E7F8093000A109221380895509174
:100FD0002138451798F020931F38309320384093DC
:100FE00021388093280A9093290A8091000A816011
:100FF0008093000A609322387093233808958823E1
:1010000021F080E180932504089580E180932604F7
:10101000089591E09093080690910B069923E1F3CF
:10102000209110063091110690915C3C290F82238B
:1010300008957F928F929F92AF92BF92CF92DF924C
:10104000EF92FF920F931F93CF93DF93EC0181E018
:101050008093260480912638882309F485C08090E7
:10106000243858E05819909125389295907F2CE4B7
:10107000E22E28E3F22E30E8732E790EA12CB12C4B
:10108000D7014D917D01DB01A90FB11D8C91F42F8A
:10109000E8E08E9FF00D11248F2F242F30E0903F39
:1010A00041F4FB011081F8E01F9F200D311D112438
:1010B00008C050961C915097E8E01E9F200D311DEE
:1010C00011248501045A174C912C6D01F0E1CF0ECB
:1010D000D11CF801EC55F8435F01F0E89F1681F14F
:1010E000FE01E80FF11DA490FE01E20FF31FE49151
:1010F000B12C082C02C0B594A7940A94E2F7052EEF
:1011000001C0EE0F0A94EAF7AE2AF801A1928F010E
:101110004F5F483021F08F5F2F5F3F4F0FC08C91A2
:10112000880F880F880F903F11F4FB0101C0F60172
:101130002081F8E02F9F9001112440E09394C9CFC3
:10114000905F97119DCF81E080932504DF91CF912F
:101150001F910F91FF90EF90DF90CF90BF90AF90D5
:101160009F908F907F900895ACE4B8E304E518E376
:1011700084E5C82E88E3D82EB12C812C912C8D913A
:10118000F80191918F017B01EB0CF11C9701290F64
:10119000311DF9014081282F30E0F8E04F9F200DEC
:1011A000311D1124A401445A574CA12CFA01EC55CD
:1011B000F8434F01F0E8AF16E1F0FE01E20FF31F34
:1011C0009490FA019192AF018F5F883019F02F5FF0
:1011D0003F4F0DC09F5F903208F090E0F701E90F9C
:1011E000F11D2081F8E02F9F9001112480E0A3944D
:1011F000DDCF20E2B20ECA16DB0609F0C0CFA3CFC6
:10120000282F269526952695962F96959695969510
:10121000E4E5F8E3ACE4B8E38770677021938D935D
:1012200038E3EC35F307D1F79093253860932438F1
:10123000089570E0FB01EC5AF74C982F969596951F
:1012400096959083FB01E45BF74C8770808308954B
:101250002F923F924F925F926F927F928F929F92C6
:10126000AF92BF92CF92DF92EF92FF920F931F93B4
:10127000CF93DF93CDB7DEB72897CDBFDEBFFC019C
:1012800054913296E983FA833197849186958695B5
:101290008695A82EB12C589FC0011124F42FF77009
:1012A0005F2E38E0432E4F1A459545954595A62F5C
:1012B000062E000CBB0B30E84303A00DB11D11241A
:1012C000E22FF0E0EE0FFF1FE89F9001E99F300D45
:1012D000F89F300D1124E980FA802E0D3F1D452F17
:1012E00050E00F3F21F4FA0131972E0F3F1F71E0BC
:1012F000511001C070E07A01EE0CFF1CE982FA8205
:101300001F8218867501E70EF11CED82FE823C01FA
:10131000641A750A802E002E000C9908EF80F8845C
:10132000ED81FE81EE16FF060CF077C0FD01E45A58
:10133000F74C6F017D01362EFA01EA0FFB1FEB839C
:10134000FC83EB81FC81EE16FF060CF058C0F70120
:10135000EE27FC7FEF2B09F048C037FC46C0552034
:1013600009F438C0EF81F885EF2BC9F0F901E41BCF
:10137000F50BE491F0E0042C02C0F595E7950A9492
:10138000E2F71E2FF901E60DF71DE491F0E0042CC1
:1013900002C0F595E7950A94E2F77E2F02C070E04F
:1013A00010E0EF81F885EA15FB05CCF4F9012490F3
:1013B000E22D052C01C0EE0F0A94EAF71E2BF9016D
:1013C000E80FF91FE491052C01C0EE0F0A94EAF72B
:1013D0007E2B05C0F9011491E80FF91F7491109547
:1013E000F60120801221712B7083280D391D339452
:1013F000FFEFEF1AFF0A7FEFC71AD70AA2CFA05854
:10140000BF4F0F3F21F4E980FA802E0D3F1DEF8181
:10141000F8853196EF83F88781CF2896CDBFDEBF60
:10142000DF91CF911F910F91FF90EF90DF90CF90C0
:10143000BF90AF909F908F907F906F905F904F90F4
:101440003F902F900895809326380895DB01A45A89
:10145000B74C480F591F8417950729F0FC012491B8
:101460002D930196F8CF0895809324088091230846
:1014700087FFFCCF0895CF93DF93E6E2F4E0C2E06C
:10148000C083D1E0D0830E94340AE5E2F4E0D08347
:10149000C083DF91CF9108958F3F29F481E090912F
:1014A0001D38911180E080931D3880911D3888236C
:1014B00029F080EA0E943B0A80EC04C081EA0E9485
:1014C0003B0A88EC0E943B0A80911D3890E0089509
:1014D0008F3F29F481E090911C38911180E0809336
:1014E0001C3880911C38882311F087EA01C086EAF5
:1014F0000C943B0A81E08093260490E190930604CB
:1015000090930504809325048EEA0E943B0A85EDA2
:101510000E943B0A80E80E943B0A88EA0E943B0A3C
:101520008FE30E943B0A83ED0E943B0A80E00E9409
:101530003B0A80E40E943B0A8DE80E943B0A84E15A
:101540000E943B0A80E20E943B0A80E00E943B0A24
:1015500080911D380E944C0A8AED0E943B0A82E16C
:101560000E943B0A81E80E943B0A8FE80E943B0AE6
:1015700089ED0E943B0A81EF0E943B0A8BED0E949D
:101580003B0A80E40E943B0A84EA0E943B0A809165
:101590001C380E94680A8FEA0C943B0A10922108BA
:1015A000882329F00E947A0A10921E3806C08EEA1B
:1015B0000E943B0A81E080931E3880E880932108D6
:1015C000089581E080932504089581E080932604A6
:1015D000089510926E3D80935E3E81E080935A3E66
:1015E000089580912A389EE0899FF0011124E858DF
:1015F000F24C2CE830E0208331832091723D30E0C2
:10160000248735872FE530E02283338398EF948356
:1016100091E090871782118690EA958313868F5FF9
:10162000803119F080932A38089510922A3808954D
:1016300090912A3880E13EE0399FF0011124E8586A
:10164000F24C2481203849F09F5F903109F490E0FA
:10165000815091F790932A38089590932A381186F3
:1016600081E008950F931F93CF938C01C62F0E94A2
:10167000180B80912A38C230C9F058F4C13069F58E
:101680002EE0829FF0011124E858F24C22E934E068
:1016900015C0C430B1F0C83001F59EE0899FF0015B
:1016A0001124E858F24C2CEF33E013C09EE0899FE0
:1016B000F0011124E858F24C20E534E02083318316
:1016C0000CC02EE0829FF0011124E858F24C2EE26B
:1016D00034E02083318398E301C090E32EE0829FC1
:1016E000F0011124E858F24C028313839483C583DC
:1016F00091E093878F5F803119F080932A3802C080
:1017000010922A38C093583ECF911F910F9108959F
:101710001F93CF93DF93D82F162FC42F0E94180B3F
:1017200090912A38C03859F0C03999F48EE0989FCA
:10173000F0011124E858F24C24E733E008C08EE0B1
:10174000989FF0011124E858F24C26E833E02083FA
:1017500031838EE0989FF0011124E858F24C2D2F30
:10176000DD0F330B228333831483C58313869F5F7E
:10177000903119F090932A3802C010922A38DF91E4
:10178000CF911F910895DF92EF92FF920F931F93D5
:10179000CF93DF938C01D62EE42EF22E0E94180BED
:1017A000C0912A3880E2F81679F090E4F916B9F081
:1017B00080E1F81222C09EE0C99FE0011124C858C0
:1017C000D24C8AED93E008C08EE0C89FE00111245E
:1017D000C858D24C88E993E0888399830EC09EE074
:1017E000C99FE0011124C858D24C82E593E0888358
:1017F00099838FEF0E940908888780912A389EE09C
:10180000899FF0011124E858F24C24E130E024874C
:10181000358702831383D482E782F58213868F5F34
:10182000803119F080932A3802C010922A38DF9153
:10183000CF911F910F91FF90EF90DF9008950F933C
:101840001F93CF93DF938C01D62FC42F0E94180BC8
:1018500080912A389EE0899FF0011124E858F24CCB
:101860002EE031E0208331832C2F30E02487358730
:1018700002831383D483118691E09783C08720E38A
:10188000258393878F5F803119F080932A3802C0B7
:1018900010922A38DF91CF911F910F910895EF9206
:1018A000FF920F93CF93DF93C0E6DCE380E8E82E4E
:1018B000FF24FA944A815B8140382FEF520799F058
:1018C00001E020E0688184EB94E00E9428098A818D
:1018D0009B810197883F2FEF920719F08A839B83A2
:1018E00002C0EA82FB8224968CE3C836D80711F73F
:1018F000DF91CF910F91FF90EF90089510923638BD
:101900001092373880E180933A3885E090E08093F8
:101910003838909339380895CF9390915F3E99234A
:1019200099F09091753D992379F090913A3897709C
:1019300059F0C82F0E947E0C8EE0C89FF001112440
:10194000E858F24C80E88483CF91089580915F3EFF
:10195000882371F080913A38877051F08091113866
:10196000681710F40C947E0C40936C3D50936D3DC1
:101970000895E0E6FCE380E89FEF8283938386830B
:1019800097830895E8E7FDE390E881E094838683F8
:1019900013863E962EE3E835F207C1F710922A38F7
:1019A0001092583E0895CF9310926E3D10923C389D
:1019B00010923D3887E080930838C1E0C0933A38F0
:1019C0001092353884EF80930C3880E18093123880
:1019D00083E3809311381092743D80E88093093836
:1019E0000E94B90C0E94C20C1092293810926C3DD2
:1019F00010926D3DC093593ECF9108950F93CF93B0
:101A0000609112388091403890914138860F911D35
:101A100023E0969587952A95E1F780933E38909339
:101A20003F3820913A38223009F46AC050F421300E
:101A300009F0F9C021EE280FAEE0B8E38C5190E038
:101A400013C0203109F48DC0203209F4D0C0EBC09E
:101A500030EE320F3C93ED91F0E0E859F34C3081D9
:101A6000930F2F5F821721F0213E90F32C93F3CF39
:101A700080913C3880FF02C08FEF01C081E08093ED
:101A80000D384091113846509695490F01E020E0FD
:101A900088E095E00E942809E0910E38F0E0E859CE
:101AA000F34C408180911138480F00910D3820E0AF
:101AB000609112388AE395E00E942809E0910F387E
:101AC000F0E0E859F34C408180911138480F609163
:101AD0001238685F00910D3820E08AE395E00E949B
:101AE0002809E0911038F0E0E859F34C40818091EA
:101AF0001138480F60911238605F00910D382BC08B
:101B000001E020E04091113888E095E00E9428092A
:101B10008091743D893110F0C4E001C0C6E040916D
:101B200011384C0F01E020E0609112388AE395E013
:101B30000E942809409111384C0F60911238685F5B
:101B400020E08AE395E00E942809409111384C0F6B
:101B500060911238605F20E08AE395E00E942809D6
:101B600062C08091593E681B6093123840911138D1
:101B700040516C5F01E02091363880ED91E00E9489
:101B80002809E0913838F091393825E030E04AE012
:101B900064E170E08CE291E0DC01EA9FC001EB9F20
:101BA000900DFA9F900D11240E94E707809138381C
:101BB000909139380197B1F485E090E080933838FE
:101BC00090933938809136389091373801968093C8
:101BD000363890933738049731F580E280933A385D
:101BE0008CE390E080933838909339381CC0809112
:101BF0003838909139380197809338389093393834
:101C0000892B89F48091773D81508093773D8F3F78
:101C100041F486E08093083810923C3810923D38A9
:101C200002C00E94D30C0E944F0C609109386038AA
:101C3000C1F020913C3830913D3836952795369546
:101C40002795217001E040912C3886EC94E00E94A9
:101C50002809809109388E5F8E370CF080E88093D8
:101C600009388091743D882309F457C090E0FC0145
:101C70003197EE7FE05DF044309111382081230FE1
:101C80002093113820E030E048E064E170E0E4EFB8
:101C9000F1E0DC01AE9FC001AF9F900DBE9F900DA3
:101CA00011240E94E7078091743D8F5F813219F003
:101CB0008093743D32C01092743D20916C3D309100
:101CC0006D3D2115310501F180912D3890912E380F
:101CD000A0912F38B0913038820F931FA11DB11DF4
:101CE00080932D3890932E38A0932F38B0933038AE
:101CF00010926C3D10926D3D2BEF3FEF48E068EC89
:101D000070E088E893E107C020E030E048E068EC4C
:101D100070E080E197E20E94E70780913A3887708F
:101D200009F45EC09091433880916F3D992361F032
:101D300083FF07C090911238992319F09150909326
:101D4000123882FF13C00BC082FF07C09091123877
:101D5000992319F091509093123883FF07C0809116
:101D60001238873618F48F5F809312388091443888
:101D700087FF07C09091743D911103C091E090934B
:101D8000743D86FF2DC0E0912B38B4E0EB9FF0014D
:101D90001124E05AF34C8281938180389F4FE1F403
:101DA0008091123890E0029680839183809111385F
:101DB00090E00897828393832AE030E04AE064E66B
:101DC00070E080E293E00E94E70780912B388F5FFC
:101DD0008230C8F580932B38809109388038B1F172
:101DE00080913538882309F44BC080913C3866E0F7
:101DF00082FF02C080E801C080E00E941909809142
:101E00003838909139380197809338389093393821
:101E1000892BB1F58091713D8F5F8093713D8091E9
:101E2000773D8F5F8093773D87E0809308381092ED
:101E30003C3810923D381092293810925C3ECF9178
:101E40000F910C94D30C10922B38C6CF809112387E
:101E5000805F809309382AE030E04AE064E670E071
:101E600080E293E00E94E7079091743D80911138E1
:101E7000992311F08E5F01C0835080932C38B0CF2E
:101E8000CF910F91089510925C3E8091713D9CEE30
:101E9000899F802D112484578093723D0C94D30C1C
:101EA00081E08093713D10922D3810922E3810925F
:101EB0002F381092303884E08093773D0C94430F94
:101EC000CF9310925E3C10925A3E10926E3D8AE083
:101ED00080935E3EC1E0C09304380E94C20C109211
:101EE000703D2091713D822F86958D5F8093733D6B
:101EF000922F990FC093593E80915C3E823009F435
:101F00004EC028F48823A9F0813059F16AC084308A
:101F100009F45BC008F453C0853009F062C0C09377
:101F2000293884E38093763D10920A380E94F10AA2
:101F300058C080E380930A3884E00E94E90A8091C7
:101F4000713D823008F44DC092E09093593E9AE57D
:101F500090930438982F990F890F8C5F0E94E90A9B
:101F600040C0213079F420930A3880E590E08093D6
:101F700031389093323882E08093603E83E08093E2
:101F8000733D2FC080930A3828E230E0A901491B35
:101F90005109409331385093323884E00DC081E3C9
:101FA00080930A3826E430E0A901491B5109409387
:101FB00031385093323883E08093603E12C082E023
:101FC00080930A3822E330E0EFCF23E120930A38F0
:101FD0002CE330E0291B310920933138309332381B
:101FE000EBCF81E090E08093333890933438CF91F9
:101FF000089540E054E060E070E08CE89AE00E94D0
:10200000260A0E94650781E080935D3E08958091D5
:102010001238EFE0FDE328E13DE3DF01982F9D93C7
:102020009F5F9B3508F091E42A173B07C1F7815069
:10203000813408F48AE582939DE3E830F907B9F723
:102040000895CF92DF92EF92FF928FEF8093003846
:1020500040912D3850912E3860912F387091303842
:1020600094EA86E02FEFE92FF0E0FC5EC080D1809B
:10207000E280F3804C155D056E057F0518F4209312
:1020800000380AC03FEF380F9052282F943E11F0CD
:10209000832FE9CF80930038FF90EF90DF90CF90AF
:1020A000089581E00E94090890910B38882321F05F
:1020B000992339F0915003C0923018F49F5F9093A8
:1020C0000B3880910B38089590E0FC01E859F34CEF
:1020D000840F911D9F0128563C43281739071CF493
:1020E00061936F5FF7CF0895CF93C82FC295CC0F40
:1020F000C07E40E160E88C2F0E94641040E160E8FF
:1021000080E18C0F0E946410EC2FF0E0E859F34C52
:1021100080E2868381878287868B818F828F40E1F0
:1021200060E98C0F0E94641040E160E980E38C0F4D
:10213000CF910C9464102F923F924F925F926F92C6
:102140007F928F929F92AF92BF92CF92DF92EF9247
:10215000FF920F931F93CF93DF936B017C01EA01F2
:1021600089E0282E312C812C91EE992E95EFA92E05
:1021700095E0B92E00E010E02AE0422E512C612CAF
:10218000712CC814D904EA04FB0470F0C701B6012D
:10219000A50194010E94561E205D28836B017C01DD
:1021A000219601E010E00CC00115110531F481E029
:1021B00088169104A104B10419F480E38883219660
:1021C000C501B401A30192010E94561E49015A01A2
:1021D00081E0281A3108A9F6DF91CF911F910F9164
:1021E000FF90EF90DF90CF90BF90AF909F908F9037
:1021F0007F906F905F904F903F902F900895DC01FB
:10220000FB019D91992311F09193FBCF0895CF93FA
:10221000DF93C82F25E030E04AE064E670E080E913
:1022200091E00E94E70780912D3890912E38A0917F
:102230002F38B091303886509F4FAF4FBF4F8093AB
:102240002D3890932E38A0932F38B093303880914A
:10225000763D81508093763D811126C08EE0C89FE7
:10226000E0011124C858D24C44E16C818A819B81E1
:102270000E941F0C8A819B8148E16C8140960E94DC
:102280001F0C80E88C8381E08093353884EB90E0EC
:1022900080933838909339386AE37DE38EE09DEB84
:1022A000DF91CF910C94FF10DF91CF9108952F9281
:1022B0003F924F925F926F927F928F929F92AF92D6
:1022C000BF92CF92DF92EF92FF920F931F93CF9323
:1022D000DF93C8E7DDE3F12C40E8842E99249A943B
:1022E00010E8CC24CA94EE24E39452E9252E54E05D
:1022F000352E4C81403809F4C7C30E8129856A8187
:10230000888199810E942809E881F981D4903196C9
:10231000049110925F3E1092753D2091123830E08A
:102320008A819B81A9014D5E5F4F481759076CF068
:102330004D2D0D2C000C550B44505109840F951F49
:102340002817390714F4E0925F3E2091113830E0ED
:102350008C81082E000C990BA901495F5F4F48172B
:1023600059074CF0800F911D07FD9A9528173907E2
:1023700014F4E092753D30E6A32E3CE3B32E4D2CD1
:102380000D2C000C5508602E002E000C7708F5016E
:10239000428153814038FFEF5F0709F470C0F501B7
:1023A000208131818A819B81B901695F7F4F6817E4
:1023B00079070CF464C0B201680F791F261737073C
:1023C0000CF05DC06C81262F062E000C330BFA0139
:1023D0003796E217F3070CF452C0260D371D42174B
:1023E00053070CF04CC07D81703309F448C0703A3B
:1023F00061F48F2D0E9407116C81685F8A819B8137
:1024000045E008960E941F0C37C0707720912D3848
:1024100030912E3840912F38509130387723A9F0E1
:1024200070915E3C715070935E3C28513C4F4F4F11
:102430005F4F20932D3830932E3840932F38509390
:10244000303846E00E941F0C0DC0DA01C9010A961F
:10245000A11DB11D80932D3890932E38A0932F3855
:10246000B09330381C832FEF3FEF4AE06CE271E00D
:102470008CEB92E00E94E707F50182829382F4E000
:10248000AF0EB11C28E6A2162CE3B20609F07FCFEE
:1024900080910938803841F1082E000C990B2A816F
:1024A0003B81AC01415F5F4F42175307ECF02D0DAC
:1024B000311DD7FC3A9582179307B4F420912C383C
:1024C00030E08C81082E000C990BA901495F5F4F09
:1024D000481759074CF0800F911D07FD9A95BB24B2
:1024E000B394281739070CF0B12C8B85882389F019
:1024F0008091593E2A813B81281B31092A833B83E5
:102500004D2D552741950CF45095241735070CF4A3
:102510001C836C81603809F4B7C20D81003109F465
:10252000BFC080F4023009F455C018F4013069F1DD
:10253000ABC2043009F47DC0083009F0A5C248E5FB
:1025400052E079C0003809F478C030F4003209F460
:10255000EEC0003341F098C2003909F479C0003A66
:1025600009F446C191C28C859D8501978C879D8712
:10257000892B09F089C289858F5F8987833011F49F
:102580001C8382C286E090E0CFC0BB2001F11C8397
:10259000109309382AE030E04AE068EC70E08CEDF6
:1025A00095E00E94E70780912D3890912E38A091F8
:1025B0002F38B09130388C599F4FAF4FBF4F809319
:1025C0002D3890932E38A0932F38B093303844EFA5
:1025D00051E02AC0BB2031F128823982ED828A8104
:1025E0009B8108968A839B831093093823E030E00F
:1025F0004AE064E670E080E991E00E94E70780919C
:102600002D3890912E38A0912F38B0913038C29645
:10261000A11DB11D80932D3890932E38A0932F3893
:10262000B093303848EE53E06CE28F2D0E94A60C38
:102630002BC24CE251E062E3F8CF8F2D0E948C0C4C
:102640008C818F5F853314F48C831AC00C8318C07F
:102650008F2D0E948C0C8C818F5F8C83853384F04E
:1026600021E030E048E06CE271E080ED97E00E940C
:10267000E7071C838A819B8164E008970E94320BE4
:10268000BB2009F401C21C83109309382FEF3FEFE0
:1026900049E06CE271E08CEB92E00E94E707F4C144
:1026A00080913C3883FF02C0EE8201C0CE822F8130
:1026B0008A819B81820F911D27FD9A958A839B8336
:1026C0001816190614F0EF8204C0803791050CF03B
:1026D000CF822091123830E0A9014C5F5F4F48173C
:1026E0005907E4F4295F3F4F28173907BCF02C85C0
:1026F0003D85232B99F42091723D30E02C873D8756
:10270000685F40E88C5F0E94880B2FEF3FEF4AE044
:1027100064E670E080E991E00E94E7078C859D8582
:10272000009709F4B1C101978C879D87ADC1809155
:102730003C3883FF02C0EE8201C0CE822F818A81A5
:102740009B81820F911D27FD9A958A839B83181682
:10275000190614F0EF8204C0803791050CF0CF8287
:102760002C853D85232B09F540911238242F30E02C
:10277000473518F02C5F3F4F02C0285D3F4F82174E
:10278000930799F42091723D30E02C873D87685F74
:1027900040E98C5F0E94880B2FEF3FEF4AE064E630
:1027A00070E088E592E00E94E7078A819B81209192
:1027B000123830E0285D3F4F8217930709F0AECF03
:1027C0002C853D85232B09F0A9CF2091723D30E067
:1027D0002C873D876C81685F40E98C5F0E94880B85
:1027E0002FEF3FEF4AE064E670E088E592E094CF97
:1027F00080912738282F30E080913C3890913D38E7
:1028000082239323892B11F0EE8201C0CE82BB205C
:1028100059F0109309388F2D0E94071145E06C8103
:102820008A819B810E941F0C8C81803809F42CC105
:1028300080915F3E882351F08091753D882331F06F
:1028400080913A38877011F00E947E0CE8858E2FB7
:1028500090E0FC013197E830F10508F015C1E25C29
:10286000FF4F0C94781E88E08093273880913C3885
:1028700080FF0AC18C818F5F8C83843209F004C190
:1028800082E0888787E00E940908E7E08E9FC00108
:1028900011244E968C879D878FE580934538F4C030
:1028A000809145388F5F803819F08093453802C099
:1028B00010924538E0914538F0E0E259F1449081BA
:1028C0009595959584E2891B8C838C859D850197D0
:1028D0008C879D87892B09F0D7C083E088872CE3FC
:1028E00030E02C873D870E9409089091713D9B5FE5
:1028F000890F8A87C9C0809145388F5F803819F069
:102900008093453802C010924538E0914538F0E098
:10291000E259F14480818595859594E2981B9C83CA
:102920002C853D85215031092C873D87232B09F0CB
:10293000ABC09A8591509A87992381F06CE2681B0D
:102940008A8140E9845F0E94880B2091713D3DEFB0
:102950003203C0011124865A9F4FE6CE84E0888757
:1029600082E08093273846E450E04C875D871F82E1
:102970008BC08C81893044F09F819F5F9F8394300E
:1029800019F481508C831F828C859D8501978C87DB
:102990009D87892B09F078C085E01FC08C818D5FF1
:1029A000873314F48C8370C057E35C8386E0888798
:1029B00088E290E0B9CE80913C3880FF05C08A81E2
:1029C0009B8101968A839B838C859D8501978C874B
:1029D0009D87892B09F058C087E0888755C08A8178
:1029E0009B8102978A839B83803E9F4F0CF04CC053
:1029F00088E0888787E00E940908F6E08F9FC00181
:102A00001124805891098A839B8383E00E940908DE
:102A1000982F990F890F885F8C831B8684E08093A1
:102A200027382EE130E02C873D872EC08A819B819C
:102A300018161906DCF42C853D85215031092C87A8
:102A40003D87232B99F46C81685F40E8845F0E9486
:102A5000880B8091713D4AE050E0481B5109CA0142
:102A6000880F991F880F991F8C879D878A819B816A
:102A700001968A839B838F35910534F0E886809197
:102A800028388F5F809328382E96F39450E1F51202
:102A900030CCDF91CF911F910F91FF90EF90DF909D
:102AA000CF90BF90AF909F908F907F906F905F90EE
:102AB0004F903F902F900895942F990F490F90E2D7
:102AC000699F800D112493E0940F841B50E2E42F42
:102AD000F0E0EE0FFF1FE251F14460817181E82FB9
:102AE000E40FF0E0E859F34C20E030E0DB01022E87
:102AF00002C0B595A7950A94E2F7A0FF02C0108224
:102B000001C050832F5F3F4FB0962530310571F7DC
:102B10004F5F4913DCCF089540E051E060E270E080
:102B200088E69CE30C947E1ECF930E948C1560E097
:102B300080E00E940009C0911B3880911B388A30C8
:102B400040F041E050E063E070E080E090E00E94FF
:102B50005C158C2F6AE00E944A1E492F50E063E00A
:102B600070E083E090E00E945C158091463880FF21
:102B700008C04AE050E063E070E087E090E00E9427
:102B80005C15C0911A38CA3038F08C2F6AE00E9468
:102B90004A1E482F50E002C040E050E063E070E081
:102BA00089E090E00E945C158C2F6AE00E944A1E2A
:102BB000492F50E063E070E08DE090E00E945C15EA
:102BC0008091383890913938009709F46FC0019797
:102BD00080933838909339388CE38093683C8EE347
:102BE0008093773C80914238813069F038F08230B0
:102BF00081F46CEA7CE383E39DEB09C06AE67CE345
:102C00008DE19DEB04C06BEA7CE38AE29DEB0E94C0
:102C1000FF1080914238882309F448C06AE67CE3BB
:102C20008EE39DEB0E94FF109091443890FF1DC0F1
:102C30002CE231E0209338383093393820914238F3
:102C4000213051F480911B388F5F80931B388D3079
:102C500061F420931B3809C080911A388F5F8093EC
:102C60001A388C3311F410921A3891FF1FC08CE27D
:102C700091E0809338389093393880914238813090
:102C800059F480911B38815080931B3881110EC0FC
:102C90008CE080931B380AC080911A388150809351
:102CA0001A388F3F19F48BE380931A38CF91089527
:102CB0000E948C1585E00E94741060E080E00E9404
:102CC0000009E8E6FCE38CE380838EE387876BE60C
:102CD0007CE387E49DEB0E94FF1069EC7CE382E5D6
:102CE0009DEB0E94FF106AE47DE381E69DEB0E946C
:102CF000FF1081E080935D3E08950F931F93CF9363
:102D0000DF930E948C159BE09093683C89E8809348
:102D10006D3C26E820936F3C2093943C90938A3C32
:102D200080938E3C2093913C9093773C8093863C9B
:102D30008CE68093733C9091713D43E06AE18EE0B4
:102D4000891B0E9464109091713D43E06DE18EE219
:102D5000891B0E94641082E00E9474108091713D72
:102D600080FF13C04DE063E080EA0E94641042E0FF
:102D700061E180E80E94641042E063E187E80E941C
:102D8000641045E065E18BE839C0E8E0FDE388E2E6
:102D90009DE32CE721938E179F07E1F743E060E660
:102DA00080E80E94641043E060E780EA0E946410BB
:102DB00042E063E684E80E94641042E063E784EA4C
:102DC0000E94641042E065E687E80E94641042E0D9
:102DD00065E787EA0E94641043E067E68AE80E949C
:102DE000641043E067E78AEA0E94641042E06AE602
:102DF0008DE80E94641042E06AE78DEA0E94641048
:102E0000E8EEFCE381918787878D87A78CE3E83F15
:102E1000F807C1F7C8E4DDE308E61DE30E9451109E
:102E200089930C171D07D1F7109240381092413842
:102E30000E94B90C0E94C20C6AE37DE38EE79DEB11
:102E40000E94FF1080915C3E8F5B8093463D109204
:102E5000053810920638DF91CF911F910F91089598
:102E60000F931F93CF93DF930E948C1560E080E057
:102E70000E9400098CE38093683C8EE38093773C4A
:102E80006BE67CE38DE89DEB0E94FF1004E014E10B
:102E9000D1E3C0E44C2F50E0FA01E859F34CD08361
:102EA000DA01A659B34C93EC9C0F80EC8C0FE82F01
:102EB000F0E0FC5E20812D938F5F9813F8CFF8012E
:102EC00060817181828193814259534C0E949B1091
:102ED000C05EDF5F005E1F4FC111DCCF81E08093D9
:102EE0005D3EDF91CF911F910F9108950E948C1547
:102EF00060E080E00E940009109240381092413852
:102F000043E050E06CE770E081E098E30E947E1EB1
:102F10000E942110809100388F3F31F488E0809327
:102F2000083810925D3E089569E67CE388E99DEBE0
:102F30000E94FF1080910038805D8093763C609104
:102F40002D3870912E3880912F38909130384CEC7C
:102F50005CE30E949B108DE580932F3D81E480937C
:102F600012381092113868E47DE385EA9DEB0E94E7
:102F7000FF10109238381092393881E080935D3E0E
:102F800008950E94650768E67CE38CE495E00C9464
:102F900019080F931F93CF93DF930E94C11780915D
:102FA0003C3890913D38019680933C3890933D3861
:102FB0000E94FE0C0E9457118091053890910638AE
:102FC000019609F0EBC080910A388F7009F4A9C00E
:102FD0009091703D2091603E921709F48FC020912E
:102FE0003338309134382115310509F49AC0215015
:102FF00031092093333830933438232B09F091C0B2
:103000009F5F9093703D8230B9F0833069F18130D9
:1030100009F05EC00E940908C82F81E00E940908DB
:103020006C2F660F660F660FE82FF0E0EE0FFF1FA4
:10303000E659F14420E112C081E00E940908C82F3E
:1030400081E00E9409086C2F660F660F660FE82F5B
:10305000F0E0EE0FFF1FE659F14420E241E08081ED
:1030600091810E94C30B34C081E00E940908C82FDF
:1030700081E00E940908682F660F660F660FEC2F2B
:10308000F0E0EE0FFF1FE659F14420E141E08081BE
:1030900091810E94C30B81E00E940908682F660F8E
:1030A000660F660F21E030E0CC2311F020E030E025
:1030B000220F331FF901E659F14420E241E08081FB
:1030C00091810E94C30B80915E3C8F5F80935E3C38
:1030D00087E00E940908209131383091323893E01E
:1030E000899F200D311D11242093333830933438BB
:1030F00080915E3C8F5F80935E3C13C080915E3C0C
:1031000081110FC01092703D8091733D815080936A
:10311000733D882341F080E590E0809333389093AD
:103120003438D0E005C080915E3E80936E3DD1E0A2
:1031300080910A38807F99F183E00E940908182F56
:103140009091713D923030F080915C3E811102C0CF
:1031500088E201C08CE320910A3825FF117020918C
:103160000438215020930438211119C0990F990F68
:10317000C82FC91B8FE00E9409088C0F123008F07D
:103180008C5E8093043861E070E001C0660F1A9590
:10319000EAF78FE790E00E94320B01C0D0E0209167
:1031A000593E8091403890914138820F911D809313
:1031B00040389093413880910538909106388F3F80
:1031C0002FEF9207D9F066E00E9419092091593E2D
:1031D0008091053890910638820F911D80930538B3
:1031E000909306388F3F910549F040F00E94600FA0
:1031F0008FEF9FEF80930538909306388091403889
:103200009091413887709927079781F480910C3805
:103210008F5F09F480EE80930C3800910C3810E039
:103220000E945110F801E859F34C808380913C389A
:10323000817090913B38890F80933B388091293879
:10324000882359F143E060EA80E10E946410ABE713
:10325000BCE3E8E8FCE383EA8D93EA17FB07E1F7B8
:103260002091763D922F969596958FE1891B4FE19F
:1032700050E090E037EA8417950724F432934150E8
:103280005109F9CF237029F0FC01E859F34C2D5571
:10329000208380913C3880FF03C060E080E002C062
:1032A00060E080E80E94190961E080E00E9419094D
:1032B00080913B3862E086950E94190980913B38E5
:1032C00063E086950E94190964E080913B380E9472
:1032D000190965E080913B380E94190967E08091E7
:1032E00040380E94190980914038909141388F3FB1
:1032F000910509F018F4D1110CC028C09A9580935B
:103300004038909341388091053890910638019665
:1033100091F790916E3D80915A3E890F80936E3D5A
:1033200090915E3E891790F010926E3D81E08093FF
:10333000593E80915C3E91E0980F90935C3E8E5B8D
:103340008093463D1092053810920638DF91CF9158
:103350001F910F9108954FEF68E77CE38CE495E0AF
:103360000E94940740E150E060E270E088E79CE34F
:103370000C947E1E81E08093493880E00E94CE0A42
:1033800080E00C94FF07CF93C82F0E94E50A80913C
:103390003C3890913D38019680933C3890933D386D
:1033A00085FF08C0C11106C062E87CE386EB9DEB97
:1033B0000E94FF100E94AB1968E77CE38DEB9DEB48
:1033C0000E94FF106091713D70E080E090E04EE758
:1033D0005CE30E949B100E94AB1968E77CE384ECDD
:1033E0009DEB0E94FF1060912D3870912E388091D6
:1033F0002F38909130384EE75CE30E949B100E947A
:10340000AB1968E77CE38BEC9DEB0E94FF106091A9
:10341000773D6F3F39F070E080E090E04EE75CE38D
:103420000E949B100E94AB1968E77CE382ED9DEB44
:103430000E94FF100E94AB1968E77CE383EE9DEBCE
:103440000E94FF1020915C3E922F990F920F80E115
:10345000890F40910538509106384F3F5F4F31F446
:10346000253020F4C13021F081E1890FC23011F004
:103470002DE701C025E230913C38082E000C990B55
:10348000FC01E859F34C33FF2E5F20830E94AB19F7
:10349000CC2391F00E94AB19C23029F46CE77CE395
:1034A00084EF9DEB15C080913C3883FF13C06BE720
:1034B0007CE38EEF9DEB0CC06DE77CE389E09EEB37
:1034C0000E94FF100E94AB196DE77CE385E19EEB43
:1034D0000E94FF100E94AB190E94E10A80916F3D8B
:1034E00086FF0AC087FF08C0C11106C080E2809332
:1034F0006B3DCF910C94BA19CF910895DB01909157
:10350000021091FDFCCFE82FF0E0FC5E9C919083CF
:10351000E1E0E80FF0E0FC5E11969C91119790833A
:10352000E2E0E80FF0E0FC5E12969C9190838D5FE4
:1035300090E0FC01EF5FFB4E208331833296CA019D
:10354000AA27BB27808391838DE984BF83E0809382
:10355000001008950F931F93CF93809100388150EE
:1035600080930038853020F4C0E804E010E01AC0F1
:1035700020912D3830912E3840912F38509130388D
:103580008091003861E078E38295880F807E0E9408
:103590007E1A8AE08093083810925D3ECF911F9189
:1035A0000F9108958091003890E00817190704F3EF
:1035B000EC2FF0E0FC5E80818093683DE1E0EC0F51
:1035C000F0E0FC5E80818093693DE2E0EC0FF0E08A
:1035D000FC5E808180936A3DE4E0EC0FF0E0FC5EED
:1035E000208131814281538168E67DE380E28C0F46
:1035F0000E947E1A01501109C052D4CFCF92DF929F
:10360000EF92FF92CF9381E48093013882E480931C
:10361000023883E480930338C0E080E9C82E8FE548
:10362000D82EEE24E394F12CA701960161E078E313
:103630008C2F0E947E1A80E1C81A87E2D80AE1081E
:10364000F108C05EC03E81F7CF91FF90EF90DF9010
:10365000CF9008958091001480548B3110F00E9417
:10366000FE1A80E00C94230A0E948C1560E080E032
:103670000E9400098CE38093683C8EE38093773C42
:103680006DE67CE381E29EEB0E94FF1068E87CE33C
:1036900089E29EEB0E94FF1069EA7CE38CE29EEBDC
:1036A0000E94FF1069EC7CE38CE39EEB0E94FF100C
:1036B00069EE7CE386E49EEB0E94FF1069E07DE307
:1036C00082E59EEB0E94FF1068E47DE38AE59EEBB5
:1036D0000E94FF1080916F3D86FF24C08091443886
:1036E00081FD0E94FE1A8091443880FF08C010922C
:1036F00021088FEF0E94680A80E88093210880915A
:103700006F3D87FD0E94BA198091443882FF0AC03C
:10371000109221088FEF0E944C0A8093433880E872
:103720008093210808950E94B80780936F3D4091CF
:103730005F3C30916B3DE3E1F8E390E02191582F3D
:10374000522359F0522F542311F0922B07C0522FBD
:10375000532321F0922B30E001C0322B28E3EA31D1
:10376000F20761F79093443830936B3D95FF13C097
:103770002091083827FF0FC0203921F420E820933A
:10378000083809C020E92093083820E230E020936F
:103790003C3830933D3886FD28C093FF12C080919D
:1037A000083883FF0EC02CE231E020933838309384
:1037B000393810925D3E8F5F8D3009F488E0809338
:1037C000083892FF12C08091083883FF0EC0109213
:1037D0005D3E2CE231E02093383830933938815007
:1037E000873009F48CE0809308388091083889305C
:1037F00009F491C070F4863009F47CC020F485305F
:1038000009F4AEC00895873009F45FC0883021F113
:1038100008958C3079F038F48A3009F495C08B30F3
:1038200009F49AC00895803809F462C0803909F417
:103830005CC0089580915D3E811102C00E94F90F25
:1038400080910738882309F403C181508093073899
:103850008111FEC088E05AC080915D3E811102C096
:103860000E9458160E94C11780913C3890913D38B3
:10387000019680933C3890933D3880FF09C0809139
:103880004038909141380196809340389093413868
:1038900080914038909141389695879565E00E94D7
:1038A000190980914038909141389695879566E046
:1038B0000E94190967E0809140380E94190980919F
:1038C000443887FFC5C00C94500F81E00E94C31993
:1038D00080913C3890913D388837910509F0B8C007
:1038E00080E8809308380C947D1680E00C94C3190E
:1038F0000C94C91782E00E94C31980913C389091C2
:103900003D38843B910509F0A3C085E080930838D9
:1039100010925D3E08950E94C1170E9494158091F7
:10392000443886FF95C08CE291E0809338389093BC
:103930003938809142388F5F833019F08093423854
:10394000089510924238089580915D3E811102C021
:103950000E9430170C94C1170E94C1170C94341B9D
:1039600080915D3E811102C00E9476170E9407106F
:1039700020910F3D809101388093C83C809102389E
:103980008093C93C809103388093CA3C8091383839
:1039900090913938009761F0019680933838909370
:1039A00039388A35910509F048C00E94AA1A45C0E5
:1039B00080913C38E0911138AE2FB0E0AF5FB74C4A
:1039C00083FF03C08CE78C9301C02C939091443803
:1039D00096FF0BC0EE2349F08FEF8E0F80931138C6
:1039E000F0E0EF5FF74C8CE7808397FF12C0809187
:1039F0001138E82FF0E0EF5FF74C20838F5F809362
:103A00001138833031F421E030E02093383830939E
:103A1000393893FF08C0809112388F5F8B3508F0DA
:103A200081E48093123892FF08C08091123881504F
:103A3000813408F48AE5809312380E94C11780917E
:103A40003C3890913D38019680933C3890933D38B6
:103A5000089580914938882311F08895FACF809194
:103A600048388031B1F71092483881E00E94FF0752
:103A70000E94931B80E00E94FF07EBCF1F920F92E2
:103A80000FB60F9211242F933F934F935F936F9331
:103A90007F938F939F93AF93BF93EF93FF93809107
:103AA00048388F5F809348380E94C10781E0809337
:103AB000460AFF91EF91BF91AF919F918F917F91B6
:103AC0006F915F914F913F912F910F900FBE0F908B
:103AD0001F9018951F920F920FB60F9211242F93DB
:103AE0003F934F935F936F937F938F939F93AF9386
:103AF000BF93EF93FF9380914938882361F0109230
:103B0000493881E00E94CE0A80910838803919F442
:103B100080E88093083880E280930904FF91EF9158
:103B2000BF91AF919F918F917F916F915F914F91D5
:103B30003F912F910F900FBE0F901F9018951F92DD
:103B40000F920FB60F9211248F93809146388F5F9A
:103B5000809346388C33B9F41092463880911A38E5
:103B60008F5F80931A388C3371F410921A388091D9
:103B70001B388F5F80931B3880911B388D3019F470
:103B800081E080931B3880914938811103C081E026
:103B90008093473881E0809353018F910F900FBE3F
:103BA0000F901F901895CF9388ED84BF10926100FD
:103BB0008091630084FFFCCF88ED84BF81E0809317
:103BC0007C00809141018111FCCF80E8809340010D
:103BD00082E080934701809151018111FCCF81E700
:103BE00080935001C1E0C09352018AE180930004A8
:103BF00083E3809320041092400488E8809350046B
:103C000080935104809352048093530499E89093D5
:103C10001504809316048093170481E38093200891
:103C200080E090E00E947A0A80E880932108C093A7
:103C3000450A80E197E280934C0A90934D0A83E015
:103C40008093400A81E48093010A1092280A10921E
:103C5000290A88E08093000A84E080930202C093DE
:103C6000000683E18093020692E090930606C093DB
:103C700040068093420686E08093460685E0809366
:103C8000500078940E942A1B0E94291D80E090E039
:103C9000CF910895991B79E004C0991F961708F0F9
:103CA000961B881F7A95C9F780950895A1E21A2E70
:103CB000AA1BBB1BFD010DC0AA1FBB1FEE1FFF1FD0
:103CC000A217B307E407F50720F0A21BB30BE40B20
:103CD000F50B661F771F881F991F1A9469F7609567
:103CE0007095809590959B01AC01BD01CF01089521
:103CF000EE0FFF1F0590F491E02D0994DC0101C047
:0E3D00006D9341505040E0F70895F894FFCFC6
:103D0E00204558545241204C49464521202000421E
:103D1E00203D205345542054494D45005D5E2048BA
:103D2E004F555253004D494E55544553205D5E003C
:103D3E0042203D204E455854004D4F4F4E20464F89
:103D4E005243450041203D20535441525420474197
:103D5E004D45004D47432032303231202020204740
:103D6E00414D452042592042454E204845434B0087
:103D7E00434845434B504F494E5420283029005458
:103D8E004F502053434F5245530048494748205304
:103D9E00434F5245202300423D52554220202020C1
:103DAE00413D454E544552005041555345440053F4
:103DBE00544147453A0053434F52453A004C4956F9
:103DCE0045533A0041202042202043202044202009
:103DDE0045202046006D7E7E6E7E7E6E7E7E6E7EE1
:103DEE007E6E7E7E6F0047414D45204F56455200F8
:103DFE004745542020524541445900422B41203D15
:103E0E0020534C454550004D454E55203D205741C1
:103E1E004B45004F5054494F4E5300422B00444FD8
:103E2E00574E3D434C522053434F5245530055502D
:103E3E003D494E56455254004C4546543D524F5402
:103E4E0041544500413D534C454550004D454E555E
:103E5E003D57414B4520534C45455000F0FF8000E7
:103E6E00101112121314151516171818191A1A1BE9
:103E7E001B1C1C1D1D1E1E1E1F1F1F202020202050
:103E8E002020202020201F1F1F1E1E1E1D1D1C1C3B
:103E9E001B1B1A1A191818171615151413121211AE
:103EAE00100F0E0E0D0C0B0B0A090808070606055F
:103EBE0005040403030202020101010000000000D8
:103ECE0000000000000001010102020203030404CD
:103EDE0005050606070808090A0B0B0C0D0E0E0F3A
:103EEE001F0011001F0000001F0000001D00150024
:103EFE001700110015001F00070004001F00170017
:103F0E0015001D001F0015001D00010001001F00FF
:103F1E001F0015001F00070005001F000A0000000B
:103F2E000000FDFFFEFFFFFFFFFF0000FFFF000090
:103F3E00000000000000010000000100010002006E
:023F4E0003006E
:103F5000014142430AFFFF640C80FF01F401E3E4E6
:0C3F6000E53310010204082040801E061A
:00000001FF
