:10000000A00C0020F1000000ED000000ED00000059
:1000100000000000000000000000000000000000E0
:10002000000000000000000000000000ED000000E3
:100030000000000000000000ED000000ED000000E6
:10004000ED000000ED000000ED000000ED000000FC
:10005000ED000000ED000000ED000000ED000000EC
:10006000ED000000ED000000ED00000000000000C9
:10007000ED000000ED000000ED000000ED000000CC
:10008000ED000000ED000000ED00000010B5064C92
:100090002378002B07D1054B002B02D0044800E049
:1000A00000BF0123237010BD3404002000000000B5
:1000B00040070000084B10B5002B03D00749084843
:1000C00000E000BF07480368002B00D110BD064BBD
:1000D000002BFBD09847F9E700000000380400200F
:1000E000400700004007000000000000FEE700009D
:1000F000F8B5234A234B9A4209D0224B204A03E009
:1001000011681960043304321F498B42F8D31F4B26
:1001100002E000221A6004331D4A9342F9D31D4ABB
:10012000FF211D4B8B439360FD3990235B001B4ADD
:10013000D1501B4AD3780325AB4302242343D37009
:10014000D3780C27BB4308263343D370154B987BD9
:1001500030229043202210439873997BB943314356
:1001600099739A7BAA4322439A730F4A516880235A
:100170000B4353600D4B98470D4B9847FEE7C04625
:100180004007000000000020340400203404002058
:100190009C08002000ED00E000000000007000411D
:1001A0000050004100480041004000417905000036
:1001B000C1040000014A024B1A60704740420F0020
:1001C00000000020294B1A6A29490A401A621A6A5B
:1001D00080218A431A62274A536862398B431C394B
:1001E0000B435360244B254A9A60254A5A60224BA0
:1001F0005B78DB09FBD18222D2011F4B5A801B4A5C
:10020000938C80218B439384184BDB68DB06FBD5F2
:1002100081229200154B9A84144BDB68DB06FBD5D8
:10022000184B1A68184B1B689B05900E8002990D9D
:1002300001430E488162DB0D1B04D20E9206134966
:100240000B431A43C262838C022213438384074BFD
:10025000DB685B06FBD5084B00229A600C4A5A60AB
:10026000054B5B78DB09FBD17047C04600080040B6
:10027000FFFCFFFF00400041000C004001FA0000BD
:10028000010603002460800028608000DC05000077
:10029000000703000422014B9A61704700440041AB
:1002A0000422014B5A6170470044004180225200F1
:1002B000014B9A617047C0460044004180225200C1
:1002C000014B5A617047C0460044004110B504001C
:1002D000054B9847054B98472000054B9847054B21
:1002E0009847054B984710BDA1020000BD020000D1
:1002F000A1040000AD0200009502000010B5FF2827
:100300000DD00D4B58700C4B5B78002B0DD1A120FC
:100310000A4CA047C820A047074B587810BD064A92
:10032000537859424B415370EDE7A020034CA0474E
:10033000C020A047F0E7C04650040020CD020000D6
:1003400010B5FF2809D00A4B9870094B9B78002BF9
:1003500009D1A620074B984710BD054A937859420A
:100360004B419370F1E7A720024B9847F4E7C04652
:1003700050040020CD02000070B5234B9847234B5A
:10038000802292005A619A61214B9847AE20214CFD
:10039000A047D520A0478020A047A820A0473F2005
:1003A000A047D320A0470020A0474020A0478D2091
:1003B000A0471420A0472020A0470020A047164DAA
:1003C0006878164B9847DA20A0471220A047812072
:1003D000A0478F20A047D920A047F120A047DB20CD
:1003E000A0474020A047A420A047A8780C4B9847DE
:1003F000AF20A047002302E00A4AD35401330A4A3F
:100400009342F9DD70BDC046BD02000000440041CA
:10041000AD020000CD02000050040020FD020000EB
:100420004103000074040020FF030000164A136A11
:1004300004210B431362154A154B5A80144B5B7809
:10044000DB09FBD10C2280239B031343114A136069
:1004500080239B025360022111738023DB058020DF
:10046000400503438020400203438020800403436F
:10047000094803430948836213680B431360054B23
:10048000DB699B07FBD47047000400400E4000006E
:10049000000C00400008004210C000000044004171
:1004A000064B1B7EDB07FBD5044B9862034B1B7E80
:1004B0005B07FBD5014B986AC0B270470008004249
:1004C00070B5224B9847224B9847224C0423A360D7
:1004D000A361FD33FF33A360A361013BFF3BA36036
:1004E000A3611D4B98471D4B98471D4B186A20214F
:1004F00002000A431A621B4A1B4B5A801B4A002007
:100500001060012313640133D363506113608023AF
:100510005B0280229202AA20C005024313430B43D0
:10052000A36200200CE0441CE4B2114B9847013553
:100530002000104B9D42F6DD80225200054B9A614F
:1005400080225200034B5A610025F2E7B5010000FA
:10055000C5010000004400412D04000079030000A3
:100560000004004011400000000C00400014004254
:10057000A1040000FF03000070B50D4E0D4D0024D6
:10058000AD1BAD1005D0A300F35801349847A54228
:10059000F9D100F0C3F8084E084D0024AD1BAD1092
:1005A00005D0A300F35801349847A542F9D170BD96
:1005B0002807000028070000280700003007000077
:1005C000034B10B5002B02D0024800F005F810BD17
:1005D00000000000E905000010B501000023002222
:1005E000002000F01FF810BD70B5094B094CE41A4B
:1005F000A41009D0084AA518AD00ED182B68013CDD
:100600009847043D002CF9D100F092F870BDC04627
:100610003C07000040070000FFFFFF3F7047C04657
:100620007047C046F0B54E464546DE465746E0B5F3
:10063000364D83B00600286898460F009146FFF7B4
:10064000EDFF334B1C68A4235B00E058002852D018
:1006500043681F2B13DC5A1C0192002E28D1019AEB
:1006600002339B0042601F502868FFF7D9FF00202B
:1006700003B03CBC90469946A246AB46F0BD254B24
:10068000002B3DD0C820400000E000BF002837D03C
:10069000A42200235200A15843600160A0504032C0
:1006A000835004328350013301930023002ED6D0AF
:1006B0009A00924682444A46882154466250C42297
:1006C0005200914681444A468739994012688B46C8
:1006D0000A4394464A4661461160842241465200CC
:1006E000A150022EBBD102005C468D32FF32116850
:1006F0000C431460B3E720004D30FF30E050A7E713
:100700002868FFF78DFF01204042B1E73004002048
:10071000180700000000000008000020F8B5C046DF
:10072000F8BC08BC9E467047C1050000B50000003B
:10073000F8B5C046F8BC08BC9E4670478D00000066
:1007400040420F000000000000000000F402002002
:100750005C030020C4030020000000000000000033
:100760000000000000000000000000000000000089
:100770000000000000000000000000000000000079
:100780000000000000000000000000000000000069
:100790000000000000000000000000000000000059
:1007A0000000000000000000000000000000000049
:1007B0000000000000000000000000000000000039
:1007C0000000000000000000000000000000000029
:1007D0000000000000000000000000000000000019
:1007E0000000000000000000000000000000000009
:1007F00001000000000000000E33CDAB34126DE6A6
:10080000ECDE05000B00000000000000000000000E
:1008100000000000000000000000000000000000D8
:1008200000000000000000000000000000000000C8
:1008300000000000000000000000000000000000B8
:1008400000000000000000000000000000000000A8
:040B700078080020E1
:00000001FF
