S01200004D6F6F6E20466F7263652E737265636A
S11300000C946B040C9488040C9488040C94FB12D8
S11300100C9488040C9488040C9488040C942C1379
S11300200C9488040C9488040C9488040C9488041C
S11300300C9488040C94CF120C9488040C948804B7
S11300400C9488040C9488040C9488040C948804FC
S11300500C9488040C9488040C9488040C948804EC
S11300600C9488040C9488040C9488040C948804DC
S11300700C9488040C9488040C94880410180000D0
S113008000000000E0F8E0000000000000000000B4
S1130090C00CFCF0FFFFFFE0E0E818000080707087
S11300A0F1FFFFFFFFFF7FFFFF7FFEEFE340000054
S11300B00000000000D0000000000000000000006C
S11300C0800430E080FFE080C060080000802020D1
S11300D0A052747DFF373F7DBF3E6C42400000401C
S11300E0C0847CF8C0FEFEF07E8EF8FE0600001090
S11300F071FF9EFFFFFFFFFCFCCFF73C0E02000CDC
S113010038717F7FFF030703FFFF130804040040D7
S1130110800478C0007E8000700E80F80600001015
S1130120619E0093E07CEFFCC008C7300C0200081D
S1130130300106770000030001FE03080004060FE7
S11301402333FFEE066783FBE26EE7C31F3E000224
S1130150331B73C61C7C00FFFF00780C86800004F0
S11301600C00000106000018010000000101060156
S1130170211336E00227037B222026C3071E000238
S1130180110932C4180000007F0038040280000402
S113019000000000020000080000000000003C7F96
S11301A067E3C0000408201041E1E7FFFE7C00077C
S11301B00F0C0840820400004020090F0E0018189C
S11301C000000000000000003030000006063C661D
S11301D043C18000040000100041C1E67C18000700
S11301E00C08004002000000002000080600100077
S11301F000000000000000000020000000040808C7
S11302003078FEFFFFFF7B31003068F6FD79310066
S113021008080F3F78E6E6783F0F0708708484707B
S113022008071010001C3E7F7F7FFEFCC0E0F0F04A
S1130230F0E0C0000000387CFEFEFF7F3F030707AC
S11302400703010000001C3A3E3E5C8000C0E0A0B1
S1130250E0C00000000000387C7C5C3A000103032D
S1130260030100001008387C7C7C7E7EFFFFFFFFCA
S11302707E7E7C7C7C38002828282420686C6E4E86
S11302802C2C28282800180801030307070F0F0F38
S11302901F3F7FFFFFFFFFFFFF3F1F0F070301010A
S11302A0FEFCFCF8F8F0F0F0E0C080000000000074
S11302B000C0E0F0F8FCFEFE100801030307070F7E
S11302C01F7FFFFF3F1F0F030101FEFCFCF8F8F046
S11302D0E0800000C0E0F0FCFEFE1010C0E0F8FC7E
S11302E0FEFEFEFEFEFEFCF8F0E0C080FFFFFFFF16
S11302F0FFFFFFFFFFFFFFFFFFFFFFFFC0E0B8D4DA
S1130300FAFEFEFEBEFAFCD8B0E0C080F7FEFFFFA6
S1130310FFFFFFFFFFFFFFFFFFFFFEF7081080E076
S1130320FCFEFEFCF880FFFFFFFFFFFFFFFF80E005
S1130330BCEAFEFCF880FBFEFFFFFFFFF7FF0808A6
S1130340067FFF7F7FFF7F060006AF0000AF060039
S113035010081800425A185A5A5AFFFFFFFFFF7E2E
S11303603C1818004218001842185A7E767E7A34D7
S113037018004242185A5A5A187EFFFFFFFFFF7EA8
S11303803C1842000018421800247E6E7E7E5E2CCB
S11303901800180878F8F8F8FFFFFEFCF8F8F8FEE3
S11303A0FFFFFFFFFFFFFFFEFCFCF87000707070A2
S11303B0707E7478707070707E7E727272727274F5
S11303C078787000080800183C7E7E3C1800000015
S11303D0182C34180000FEFEFEFEFEFEFEFEFCFCA1
S11303E0FCFCFCFCFCFCF8F8F8F8F8F8F8F8130B43
S11303F005020000010301000400010101120202D0
S1130400040404480808889090B0B0989898584C10
S11304102C26161303070703060A02021404444C8D
S11304204C2C2616130B09050404020000000000DE
S11304300000020000000901020616121212131332
S11304401313130B09090909050404040402020225
S1130450020101010100000002000000040000008C
S113046080C0E0C08080C080808000000000808068
S1130470C0C0603070783030A020404080808080E0
S113048080C0C0C0C0C060606060303030B0985878
S11304904C4C0C0E0E0C0828080808501010202094
S11304A040404040808000004050B82C7CFEFEF765
S11304B07FFFFFFFFFFFFEFEFCFCF8F0C000000121
S11304C000150249120A0A241515090A230B8B0B7D
S11304D0230A230B230B000000000000000000008F
S11304E000DEDEDE0000001E1E00001E1E00006C8A
S11304F0FEFE6CFEFE6C00485C54FE54742400C680
S1130500E670381CCEC60060F49EBA6EE4A00020EB
S113051018180C1818200000007CFEC68200000089
S113052082C6FE7C000010547C38387C54100018BD
S1130530187E7E181800000080E0E06000000018BB
S1130540181818181800000000E0E0E0000000C0CF
S11305506030180C0400007CFEFEFE82FE7C00006D
S11305600CFCFEFEFE0000C4E6F2DEDEDECC00443F
S1130570D692FEFEFE7C003E3E303EFEFE30005E25
S1130580DEDADADAFA72007CFE8AFAFAFA72000229
S113059002F2FAFE0E06006CFE92FEFEFE6C001CD9
S11305A0BEA2FEFEFE7C0000006C6C6C000000002D
S11305B080ECEC6C0000000010387CFE0000006C45
S11305C06C6C6C6C6C000000FE7C38100000000C3D
S11305D006D2DADE0E04007CFEC6BAAAB6BC00FC63
S11305E0FE12FEFEFEFC00FEFEFEFE92FE6C007C91
S11305F0FEFEFE82C64400FEFEFEFE82FE7C00FE7F
S1130600FEFEFE92928200FEFEFEFE121202007CAC
S1130610FEFEFE82A6E400FEFE10FEFEFEFE00824A
S1130620FEFEFEFE82000040C282FEFE7E0200FE4E
S1130630FEFEFE38EEC600FEFEFEFE80808000FE5A
S1130640FE1EFC1EFEFE00FEFEFE1C38FEFE007CAE
S1130650FE82FEFEFE7C00FEFEFEFE223E1C007CB0
S1130660FEA2FEFEFE7C00FEFEFEFE22FEDC004C30
S1130670DE9EFEF2F664000202FEFEFE0202007E30
S1130680FE80FEFEFE7E003E7EE0FEFE7E3E007E9E
S1130690FEE07CE0FE7E00C6EE7C387CEEC6000EFA
S11306A01EFEF8FE1E0E00E2F2FAFEBE9E8E001042
S11306B0387C101010100060926402F161910020E7
S11306C030383C38302000103070F070301000307A
S11306D078FCFC783000000000FC00C0E0A0FCB80E
S11306E0B8FFB0A0F4BAA1A1A1A5AEB4E0C018149B
S11306F034FF1ED6161E1F17171E1EFEFF3C008059
S1130700E0D0D8FCDED0F0E080E0C0FFC080000084
S1130710FC000000387456DE76D65C7C380000900D
S1130720F09000000000C00000FE58585F7A5E5A46
S11307305E7E7F7FE0C00000060F0F060000000011
S1130740007F7F4040404040407F7F4040404040E9
S1130750407F7F00000080C0209F505152520E0005
S11307600000000000000000081C141623C1808053
S1130770FE01FC030000000000000003FFFCC12296
S1130780178A43221302834223333A3F77E3C0207C
S11307901F90482828080C0704070C08080818109C
S11307A03FE0C0808080FFF01009C52310080000DE
S11307B000000C1EF3E18080808080808080187EA1
S11307C0181EDA1A7C1840404060604040400CCF4C
S11307D00C0F3D0DCE0C0000000000000080408096
S11307E0000000000000000000000080E050A0C0F5
S11307F0800080000000000000E038166828506087
S11308008000000000000000020000000000000062
S113081000000000807028D0E0C0800000000000CC
S1130820000800000000000002002000000000009A
S1130830000000008040A030381641220408708077
S113084000808040A0408040B00828174A3C9A3479
S11308503860C000804001050A1C9A22110000057E
S11308600A0F1408105028940A25010D02080501E6
S11308700327060D0E081E451A0D100A000000017C
S11308801207850A0408105028940A25111E28709E
S113089050D02C824301040240010B163C7050D00E
S11308A02894442201020A14387050880408281439
S11308B044340A25020984000100000800000000F5
S11308C0010002018403230304020100000000006C
S11308D000018207060911241FBECFEFCDBFDFE35D
S11308E0DEBF18E3A0E0B8E3EEEFF8E202C0059043
S11308F00D92A231B107D9F72EE3A2E1B8E301C00A
S11309001D92A134B207E1F70E9469130C940914F3
S11309100C9400001092500481E08093480690915A
S1130920123891111AC080932604E9E4F8E3808117
S1130930809324088091230885FFFCCF81818093D4
S113094024088091230885FFFCCF32968CE3E93498
S1130950F80769F781E0809325048091500690910F
S113096051068093493C90934A3C88E88093500414
S11309700895CF93DF93DB01EB0160966D9128E03E
S1130980629FB001112420E030E0FB01E20FF31F6D
S1130990E80FF91FE491E423E0932408509123081D
S11309A055FFFCCF2F5F3F4F2830310571F7CA1731
S11309B0DB0721F7DF91CF910895909148042091AE
S11309C00804207E892F8F70822B0895209113387C
S11309D0309114382115310551F08091280A9091F5
S11309E0290A820F931F8093280A9093290A8091E1
S11309F0163890911738009771F001978093163844
S1130A0090931738892B39F48091000A8E7F809354
S1130A10000A10921538089550911538451798F02A
S1130A202093133830931438409315388093280A50
S1130A309093290A8091000A81608093000A609350
S1130A401638709317380895882321F080E1809335
S1130A502504089580E180932604089591E09093FD
S1130A60080690910B069923E1F32091100630912A
S1130A7011069091493C290F822308957F928F9209
S1130A809F92AF92BF92CF92DF92EF92FF920F9319
S1130A901F93CF93DF93EC0181E080932604809130
S1130AA01A38882309F485C08090183858E05819FA
S1130AB0909119389295907F29E3E22E28E3F22E43
S1130AC030E8732E790EA12CB12CD7014D917D0104
S1130AD0DB01A90FB11D8C91F42FE8E08E9FF00D7E
S1130AE011248F2F242F30E0903F41F4FB0110811B
S1130AF0F8E01F9F200D311D112408C050961C9151
S1130B005097E8E01E9F200D311D11248501075BDD
S1130B10174C912C6D01F0E1CF0ED11CF801E95472
S1130B20F8435F01F0E89F1681F1FE01E80FF11D23
S1130B30A490FE01E20FF31FE491B12C082C02C033
S1130B40B594A7940A94E2F7052E01C0EE0F0A9417
S1130B50EAF7AE2AF801A1928F014F5F483021F0E5
S1130B608F5F2F5F3F4F0FC08C91880F880F880FC6
S1130B70903F11F4FB0101C0F6012081F8E02F9FA2
S1130B809001112440E09394C9CF905F97119DCFB9
S1130B9081E080932504DF91CF911F910F91FF9005
S1130BA0EF90DF90CF90BF90AF909F908F907F9009
S1130BB00895A9E3B8E301E418E381E4C82E88E3C7
S1130BC0D82EB12C812C912C8D91F80191918F010B
S1130BD07B01EB0CF11C9701290F311DF9014081B8
S1130BE0282F30E0F8E04F9F200D311D1124A4017F
S1130BF0475B574CA12CFA01E954F8434F01F0E844
S1130C00AF16E1F0FE01E20FF31F9490FA01919206
S1130C10AF018F5F883019F02F5F3F4F0DC09F5F8A
S1130C20903208F090E0F701E90FF11D2081F8E01F
S1130C302F9F9001112480E0A394DDCF20E2B20E17
S1130C40CA16DB0609F0C0CFA3CF282F2695269518
S1130C502695962F969596959695E1E4F8E3A9E363
S1130C60B8E38770677021938D9338E3E934F30711
S1130C70D1F79093193860931838089570E0FB0108
S1130C80EF5BF74C982F9695969596959083FB017C
S1130C90E75CF74C8770808308952F923F924F92C0
S1130CA05F926F927F928F929F92AF92BF92CF92F8
S1130CB0DF92EF92FF920F931F93CF93DF93CDB701
S1130CC0DEB72897CDBFDEBFFC0154913296E9838D
S1130CD0FA8331978491869586958695A82EB12CB2
S1130CE0589FC0011124F42FF7705F2E38E0432E73
S1130CF04F1A459545954595A62F062E000CBB0B1E
S1130D0030E84303A00DB11D1124E22FF0E0EE0FF3
S1130D10FF1FE89F9001E99F300DF89F300D1124CB
S1130D20E980FA802E0D3F1D452F50E00F3F21F43E
S1130D30FA0131972E0F3F1F71E0511001C070E08E
S1130D407A01EE0CFF1CE982FA821F821886750173
S1130D50E70EF11CED82FE823C01641A750A802EB6
S1130D60002E000C9908EF80F884ED81FE81EE16C8
S1130D70FF060CF077C0FD01E75BF74C6F017D01C6
S1130D80362EFA01EA0FFB1FEB83FC83EB81FC8117
S1130D90EE16FF060CF058C0F701EE27FC7FEF2B90
S1130DA009F048C037FC46C0552009F438C0EF812B
S1130DB0F885EF2BC9F0F901E41BF50BE491F0E0A1
S1130DC0042C02C0F595E7950A94E2F71E2FF90169
S1130DD0E60DF71DE491F0E0042C02C0F595E795CB
S1130DE00A94E2F77E2F02C070E010E0EF81F885EC
S1130DF0EA15FB05CCF4F9012490E22D052C01C081
S1130E00EE0F0A94EAF71E2BF901E80FF91FE4919B
S1130E10052C01C0EE0F0A94EAF77E2B05C0F901F8
S1130E201491E80FF91F74911095F6012080122196
S1130E30712B7083280D391D3394FFEFEF1AFF0ACD
S1130E407FEFC71AD70AA2CFA058BF4F0F3F21F494
S1130E50E980FA802E0D3F1DEF81F8853196EF83EE
S1130E60F88781CF2896CDBFDEBFDF91CF911F9148
S1130E700F91FF90EF90DF90CF90BF90AF909F9035
S1130E808F907F906F905F904F903F902F90089538
S1130E9080931A380895809324088091230887FF4B
S1130EA0FCCF0895CF93DF93E6E2F4E0C2E0C08381
S1130EB0D1E0D0830E944B07E5E2F4E0D083C08305
S1130EC0DF91CF91089581E08093260490E190937F
S1130ED0060490930504809325048EEA0E94520729
S1130EE085ED0E94520780E80E94520788EA0E941A
S1130EF052078FE30E94520783ED0E94520780E05D
S1130F000E94520780E40E9452078DE80E94520713
S1130F1084E10E94520780E20E94520780E00E940E
S1130F20520781EA0E94520788EC0E9452078AED18
S1130F300E94520782E10E94520781E80E945207F0
S1130F408FE80E94520789ED0E94520781EF0E94A8
S1130F5052078BED0E94520780E40E94520784EAF4
S1130F600E94520786EA0E9452078FEA0C945207A5
S1130F7010922108882329F00E94630710921238E6
S1130F8006C08EEA0E94520781E08093123880E8FE
S1130F9080932108089581E080932504089581E0D9
S1130FA080932604089580E00E94480710924C3CE8
S1130FB008954FEF6FE67CE386ED93E00E94B90459
S1130FC040E150E060E270E08FE69CE30C94021490
S1130FD010925F3D80933F3E81E080933B3E0895B5
S1130FE010924B3C10923B3E10925F3D8AE08093FE
S1130FF03F3E81E08093013880913D3E8230D9F1BB
S113100088F4882319F1813009F054C0809305389D
S113101080E590E080931F38909320381092613DD2
S113102082E034C08330B1F1843009F043C093E1ED
S11310309093053822E330E020931F383093203812
S11310401092613D8093403E85E032C080E1809300
S1131050053888E290E080931F38909320381092EE
S1131060613D82E08093403E83E08093693D84E06B
S11310700E94E8071FC091E19093053826E430E010
S113108020931F38309320381092613D8093403E66
S113109083E00EC092E09093053826E430E020937C
S11310A01F38309320381092613D8093403E84E095
S11310B08093693D81E090E08093213890932238B9
S11310C00895AC0190911D386230C9F058F4613034
S11310D069F58DE0989FF0011124E559F24C2CE15B
S11310E033E015C06430B1F0683001F58DE0989FAD
S11310F0F0011124E559F24C26E832E013C08DE0EA
S1131100989FF0011124E559F24C2AED32E0208336
S113111031830CC08DE0989FF0011124E559F24C05
S113112028EB32E02083318328E301C020E38DE003
S1131130989FF0011124E559F24C42835383248390
S1131140658381E082879F5F903119F090931D3809
S1131150089510921D38089590911D38403859F023
S1131160403999F42DE0929FF0011124E559F24C95
S11311702EEF31E008C02DE0929FF0011124E559D3
S1131180F24C20E132E0208331832DE0929FF00184
S11311901124E559F24C282F880F330B2283338313
S11311A06483458312869F5F903119F090931D38B4
S11311B0089510921D380895CF93DF93EC01909118
S11311C01D38203159F0203299F48DE0989FF001B8
S11311D01124E559F24CA2E2B2E008C08DE0989FD8
S11311E0F0011124E559F24CA4E6B2E0A083B183E6
S11311F08DE0989FF0011124E559F24CA0910F382D
S1131200B0E0A387B487C283D383648347832583F1
S113121012869F5F903119F090931D3802C010928E
S11312201D38DF91CF910895EF92FF920F93CF93E2
S1131230DF93CDE4DCE380E8E82EFF24FA944A81CE
S11312405B8140382FEF520799F001E020E068817C
S11312508EE393E00E944D068A819B810197883F2B
S11312602FEF920719F08A839B8302C0EA82FB82E4
S113127026968CE3CF35D80711F7DF91CF910F91E4
S1131280FF90EF90089581E08093363880E00E94CB
S1131290B80780E00C94240581E00E942E0590910B
S11312A00738882321F0992339F0915003C09230F4
S11312B018F49F5F9093073880910738089510922F
S11312C026381092273880E180932A3885E090E010
S11312D0809328389093293808952F923F924F9203
S11312E05F926F927F928F929F92AF92BF92CF92B2
S11312F0DF92EF92FF920F931F93CF93DF93CBE68E
S1131300DDE310E844244A94552453949CE1E92EE7
S113131093E0F92E4C81403809F44AC20E812985A4
S11313206A81888199810E944D06E881F9816490DF
S11313303196749020910E3830E08A819B81A90106
S1131340495E5F4F481759074CF0860D911D67FCA5
S11313509A9522242394281739070CF0212C2091E4
S11313600D3830E08C81082E000C990BA901495FDF
S11313705F4F481759074CF0870D911D77FC9A95DC
S113138033243394281739070CF0312C8DE4882E3C
S11313908CE3982EC62C062C000CDD08A72C072CF9
S11313A0000CBB08F401228133812038FFEF3F0792
S11313B0B1F1F401408151818A819B81BA01695F55
S11313C07F4F681779075CF18C0D9D1D48175907ED
S11313D034F58C81082E000C990BA901495F5F4FED
S11313E048175907E4F08A0D9B1D28173907BCF4E8
S11313F01C838D81807729F080914B3C81508093B0
S11314004B3C40E85FEFF401428353832FEF3FEFFF
S113141049E06CE271E08CEB92E00E940C0556E02E
S1131420850E911C8FE588168CE3980609F0BACFD7
S113143020910238203849F1422F022E000C550B1E
S11314408A819B81BA01615F7F4F68177907ECF04D
S1131450860D911D67FC9A9548175907B4F440917D
S11314601C3850E08C81082E000C990BBA01695F7E
S11314707F4F681779074CF0870D911D77FC9A957B
S1131480CC24C394481759070CF0C12C8A858823AF
S113149081F0309106388A819B81831B91098A836C
S11314A09B83772461940CF47094861597050CF44F
S11314B01C836C81603809F47BC10D81083009F408
S11314C080C050F4023009F452C0043009F479C0E9
S11314D0013009F06DC10FC0003209F402C120F4DB
S11314E0003109F4BEC064C1003809F477C0003982
S11314F009F487C05DC18A819B81821B910927FD04
S113150093958093233890932438CC2001F11C8345
S1131510109302382AE030E04AE068EC70E08CED89
S113152095E00E940C058091633D9091643DA091EB
S1131530653DB091663D8C599F4FAF4FBF4F80932F
S1131540633D9093643DA093653DB093663D222036
S113155009F42EC180912A38837009F429C180913D
S11315600D388D3208F424C10E945F0921C18A819B
S11315709B81FC01E21BF10927FDF395E0932338DD
S1131580F0932438CC2019F3E882F9825D8208961E
S11315908A839B831093023823E030E04AE064E6B8
S11315A070E080E991E00E940C058091633D909188
S11315B0643DA091653DB091663DC296A11DB11DEB
S11315C0BECF222009F4F4C080912A38837009F434
S11315D0EFC080910D38833339F2EAC0222049F0FC
S11315E0332039F080912A38837019F00E945F0902
S11315F00C838C818F5F853314F48C8322C01C830D
S113160020C0222049F0332039F080912A38837099
S113161019F00E945F091C838C818F5F8C83853352
S113162084F021E030E048E06CE271E080ED97E086
S11316300E940C051C838A819B8164E008970E94A8
S11316406108CC2009F4B4C01C83109302382FEF36
S11316503FEF49E06CE271E08CEB92E00E940C05F4
S1131660A7C080912D3883FF02C05E8201C04E82E4
S11316702F818A819B81820F911D27FD9A958A83F0
S11316809B831816190614F05F8204C080379105F5
S11316900CF04F8220910E3830E0A9014C5F5F4F6F
S11316A0481759070CF07DC0295F3F4F28173907A9
S11316B00CF477C02B853C85232B09F072C0209154
S11316C00F3830E02B873C87685F40E88C5F0E94CE
S11316D0AC082FEF3FEF4AE064E670E080E991E068
S11316E05EC080912D3883FF02C05E8201C04E82AD
S11316F02F818A819B81820F911D27FD9A958A8370
S11317009B831816190614F05F8204C08037910574
S11317100CF04F822B853C85232B09F540910E3824
S1131720242F30E0473518F02C5F3F4F02C0285D6E
S11317303F4F8217930799F420910F3830E02B879D
S11317403C87685F40E98C5F0E94AC082FEF3FEF55
S11317504AE064E670E088E592E00E940C058A8124
S11317609B8120910E3830E0285D3F4F821793070C
S1131770C1F42B853C85232BA1F420910F3830E054
S11317802B873C876C81685F40E98C5F0E94AC08C2
S11317902FEF3FEF4AE064E670E088E592E00E94B4
S11317A00C058B859C85009719F001978B879C8786
S11317B02D964BE35EE34C175D0709F0ABCDDF914B
S11317C0CF911F910F91FF90EF90DF90CF90BF903A
S11317D0AF909F908F907F906F905F904F903F90CD
S11317E02F90089580E89FEF80934F3C9093503C56
S11317F08093553C9093563C80935B3C90935C3C27
S1131800EBE6FDE390E881E09483868312863D96BF
S11318102EE3EB33F207C1F7089510925F3D109267
S11318202D3810922E3889E080934C3C81E08093CF
S11318302A3884EF8093083880E180930E3883E35C
S113184080930D3880E8809302380C94F20B0F9348
S1131850CF9360910E3820913138862F90E0820F1B
S1131860911D23E0959587952A95E1F780932F386C
S11318709093303820912A38223009F46AC050F409
S1131880213009F0F5C021EE280FAAE0B8E38C510D
S113189090E013C0203109F48DC0203209F4CFC088
S11318A0E7C030EE320F3C93ED91F0E0E15AF34C97
S11318B03081930F2F5F821721F0213E90F32C93F8
S11318C0F3CF80912D3880FF02C08FEF01C081E0FB
S11318D08093093840910D3846509695490F01E0A0
S11318E020E082E993E00E944D06E0910A38F0E09E
S11318F0E15AF34C408180910D38480F009109382A
S113190020E060910E3884EC93E00E944D06E09153
S11319100B38F0E0E15AF34C408180910D38480FC8
S113192060910E38685F0091093820E084EC93E000
S11319300E944D06E0910C38F0E0E15AF34C4081EE
S113194080910D38480F60910E38605F009109381E
S11319502BC001E020E040910D3882E993E00E9421
S11319604D0680912B38893110F0C4E001C0C6E0E7
S113197040910D384C0F01E020E060910E3884EC6A
S113198093E00E944D0640910D384C0F60910E3843
S1131990685F20E084EC93E00E944D0640910D388E
S11319A04C0F60910E38605F20E084EC93E00E945D
S11319B04D065EC08FEF860F80930E3840910D3830
S11319C040516D5F01E0209126388CE790E00E9441
S11319D04D06E0912838F091293825E030E04AE0BE
S11319E064E170E08CE291E0DC01EA9FC001EB9FCE
S11319F0900DFA9F900D11240E940C0580912838B7
S1131A00909129380197B1F485E090E080932838CB
S1131A1090932938809126389091273801968093A5
S1131A20263890932738049719F580E280932A3852
S1131A308CE390E0809328389093293819C08091E2
S1131A402838909129380197809328389093293821
S1131A50892B71F480916A3D8F3F41F488E0809333
S1131A604C3C10922D3810922E3802C00E940D0C5E
S1131A700E941409609102386038C1F020912D3819
S1131A8030912E383695279536952795217001E0AB
S1131A9040911C3880E593E00E944D068091023805
S1131AA08E5F8E370CF080E88093023880912B385B
S1131AB0882379F190E0FC013197EE7FE252F745FB
S1131AC030910D382081230F20930D3820E030E031
S1131AD048E064E170E0E4EFF1E0DC01AE9FC001B6
S1131AE0AF9F900DBE9F900D11240E940C05809114
S1131AF02B388F5F80932B38813259F410922B3816
S1131B0020E030E048E068EC70E080E197E20E9479
S1131B100C0580912A38837009F4A8C09091603D27
S1131B2092FF07C080910E38882319F0815080936A
S1131B300E3893FF07C080910E38873618F48F5FF4
S1131B4080930E3880911B3891FF23C081FF24C0FD
S1131B5010921B3881E00E942E05882361F081E0F9
S1131B600E942E05682F660F660F660F20E141E084
S1131B7080EF9FEF0BC081E00E942E05682F660F57
S1131B80660F660F20E24FEF80E890E00E94DC08C9
S1131B9003C0826080931B389091603D80911B3814
S1131BA097FF0CC087FF0DC010921B3880912B3813
S1131BB0811107C081E080932B3803C08068809333
S1131BC01B3880911B3896FF4EC086FF4FC0109281
S1131BD01B38E0911E38B6E0EB9FF0011124E35B63
S1131BE0F34C8281938180389F4FF9F480910E38B1
S1131BF090E002968083918380910D3890E008975D
S1131C00828393832AE030E04AE064E670E080E275
S1131C1093E00E940C0580911E388F5F823018F487
S1131C2080931E3802C010921E388091023880388A
S1131C30E9F480910E38805F809302382AE030E026
S1131C404AE064E670E080E293E00E940C05909123
S1131C502B3880910D38992311F08E5F01C0835089
S1131C6080931C3803C0806480931B38CF910F91FC
S1131C70089581E08093623D84E080933D3E10921C
S1131C80633D1092643D1092653D1092663D82E082
S1131C9080936A3D0C940D0C90E0FC01E15AF34CE6
S1131CA0840F911D9F012F553C43281739071CF4BD
S1131CB061936F5FF7CF0895CF93C82FC295CC0F70
S1131CC0C07E40E160E88C2F0E944C0E40E160E849
S1131CD080E18C0F0E944C0EEC2FF0E0E15AF34CA3
S1131CE080E2868381878287868B818F828F40E121
S1131CF060E98C0F0E944C0E40E160E980E38C0F98
S1131D00CF910C944C0E2F923F924F925F926F9210
S1131D107F928F929F92AF92BF92CF92DF92EF9277
S1131D20FF920F931F93CF93DF936B017C01EA0122
S1131D3089E0282E312C812C91EE992E95EFA92E35
S1131D4095E0B92E00E010E02AE0422E512C612CDF
S1131D50712CC814D904EA04FB0470F0C701B6015D
S1131D60A50194010E94E013205D28836B017C018E
S1131D70219601E010E00CC00115110531F481E059
S1131D8088169104A104B10419F480E38883219690
S1131D90C501B401A30192010E94E01349015A0153
S1131DA081E0281A3108A9F6DF91CF911F910F9194
S1131DB0FF90EF90DF90CF90BF90AF909F908F9067
S1131DC07F906F905F904F903F902F900895DC012B
S1131DD0FB019D91992311F09193FBCF0895CF932B
S1131DE0C82F0E94CF0780912D3890912E380196EC
S1131DF080932D3890932E3885FF08C0C11106C0FA
S1131E0069E77CE386E198EA0E94E70E0E94D9071D
S1131E106FE67CE38DE198EA0E94E70E6091623DF3
S1131E2070E080E090E045E75CE30E94830E0E944E
S1131E30D9076FE67CE384E298EA0E94E70E60919A
S1131E40633D7091643D8091653D9091663D45E7A9
S1131E505CE30E94830E0E94D9076FE67CE38BE269
S1131E6098EA0E94E70E60916A3D6F3F39F070E096
S1131E7080E090E045E75CE30E94830E0E94D9076E
S1131E806FE67CE382E398EA0E94E70E0E94D9079A
S1131E906FE67CE383E498EA0E94E70E80913D3E7E
S1131EA0982F990F890F815F91E020910338309129
S1131EB004382F3F3F4F09F090E0890F20912D38CF
S1131EC0082E000C990BFC01E15AF34C23FF02C0CD
S1131ED02DE701C02FE720830E94D907CC2391F07E
S1131EE00E94D907C23029F463E77CE384E598EAC9
S1131EF015C080912D3883FF13C062E77CE38EE523
S1131F0098EA0CC064E77CE389E698EA0E94E70E4D
S1131F100E94D90764E77CE385E798EA0E94E70E0C
S1131F200E94D9070E94CB078091603D86FF0AC0BA
S1131F3087FF08C0C11106C080E280931B38CF918F
S1131F400C944309CF9108950F931F93CF930E944C
S1131F508A0480912D3890912E38019680932D38E3
S1131F6090932E386FE57CE386ED93E00E943E0566
S1131F700E94270C0E946D098091033890910438C7
S1131F80019609F0E2C0809105388F7009F4A9C068
S1131F909091613D2091403E921709F48FC02091A9
S1131FA02138309122382115310509F49AC0215085
S1131FB031092093213830932238232B09F091C022
S1131FC09F5F9093613D8230B9F0833069F1813035
S1131FD009F05EC00E942E05C82F81E00E942E05E4
S1131FE06C2F660F660F660FE82FF0E0EE0FFF1FF1
S1131FF0E652F74520E112C081E00E942E05C82F69
S113200081E00E942E056C2F660F660F660FE82F85
S1132010F0E0EE0FFF1FE652F74520E241E0808139
S113202091810E94DC0834C081E00E942E05C82FF3
S113203081E00E942E05682F660F660F660FEC2F55
S1132040F0E0EE0FFF1FE652F74520E141E080810A
S113205091810E94DC0881E00E942E05682F660FA2
S1132060660F660F21E030E0CC2311F020E030E071
S1132070220F331FF901E652F74520E241E0808147
S113208091810E94DC0880914B3C8F5F80934B3C94
S113209087E00E942E0520911F383091203893E06C
S11320A0899F200D311D112420932138309322382B
S11320B080914B3C8F5F80934B3C13C080914B3C91
S11320C081110FC01092613D8091693D81508093D0
S11320D0693D882341F080E590E080932138909316
S11320E02238C0E005C080913F3E80935F3DC1E04F
S11320F080910538807F51F180910138815080931F
S11321000138811118C087E00E942E059091003893
S113211020E1829F900D11249093013883E00E9466
S11321202E0561E070E001C0660F8A95EAF78FE73B
S113213090E00E9461086091013870E080E090E0D6
S11321404FE55CE30E94830E01C0C0E090913138FA
S113215080910638890F80933138809103389091AB
S113216004388F3F2FEF9207D9F066E00E943E06B5
S1132170209106388091033890910438820F911D84
S113218080930338909304388F3F910549F040F0D1
S11321900E94F0078FEF9FEF8093033890930438E9
S11321A0809131388770873091F41092253880916E
S11321B008388F5F09F480EE80930838009108385E
S11321C010E00E944C09F801E15AF34C808380919D
S11321D031388F3F31F4809103389091043801965F
S11321E011F0CC2309F190915F3D80913B3E890F22
S11321F080935F3D90913F3E891316C010925F3DDE
S113220080913D3E8F5F80933D3E61E37DE381E8B5
S113221098EA0E94E70E80913D3E8F5B80933D3D9E
S1132220109203381092043880912D388170909167
S11322302C38890F80932C3860E080E00E943E06A1
S113224061E080E00E943E0680912C3862E0869531
S11322500E943E0680912C3863E086950E943E06DB
S113226064E080912C380E943E0665E080912C3811
S11322700E943E0667E080913138CF911F910F9103
S11322800C943E0640E051E060E270E08FE59CE390
S11322900C9402140E94421185E00E945C0E60E0DE
S11322A080E00E94250662E67CE38CE898EA0E94BE
S11322B0E70E6FE97CE387E998EA0E94E70E6FEB8B
S11322C07CE387EA98EA0E94E70E64E47DE386EB08
S11322D098EA0E94E70E64E57DE38FEB98EA0E949A
S11322E0E70E81E080933E3E08950F931F93CF93B2
S11322F0DF930E9442112BE020935F3C99E8909376
S1132300643C86E88093663C80938B3C2093813CBC
S11323109093853C8093883C8CE680936A3C9091B2
S1132320623D43E06AE18EE0891B0E944C0E90916D
S1132330623D43E06DE18EE2891B0E944C0E82E017
S11323400E945C0E8091623D80FF13C04DE063E00B
S113235080EA0E944C0E42E061E180E80E944C0E4B
S113236042E063E187E80E944C0E45E065E18BE8BA
S113237039C0EFEFFCE38FE19DE32CE721938E1747
S11323809F07E1F743E060E680E80E944C0E43E0DB
S113239060E780EA0E944C0E42E063E684E80E9413
S11323A04C0E42E063E784EA0E944C0E42E065E68C
S11323B087E80E944C0E42E065E787EA0E944C0ED3
S11323C043E067E68AE80E944C0E43E067E78AEA46
S11323D00E944C0E42E06AE68DE80E944C0E42E0F8
S11323E06AE78DEA0E944C0EEFEDFCE3819187874A
S11323F0878D87A78CE3EF3EF807C1F7CFE3DDE3D2
S11324000FE51DE30E944C0989930C171D07D1F7B2
S1132410109231380E94F20B61E37DE38BEC98EA71
S11324200E94E70E80913D3E8F5B80933D3D10926C
S1132430033810920438DF91CF911F910F910895C2
S11324400E94DD048093603D90911B3885FF18C085
S113245080914C3C87FF14C095FF15C010921B3827
S11324608F3821F480E880934C3C0DC08FE8809332
S11324704C3C80E290E080932D3890932E3803C03A
S1132480906290931B3880914C3C893009F44DC084
S113249030F4882359F0883009F45BC008958038FB
S11324A009F455C08F3809F44FC0089580913E3E19
S11324B0811102C00E944A110E948A046FE57CE3E4
S11324C086ED93E00E943E0580912D3890912E3840
S11324D0019680932D3890932E3880FF05C080910B
S11324E031388F5F809331388091313865E086953B
S11324F00E943E068091313866E086950E943E0631
S113250067E0809131380E943E069091603D809151
S11325101B3897FF06C087FF2CC010921B380C9401
S1132520390E806880931B38089581E00E94EF0E75
S113253080912D3890912E3888379105D1F480E818
S113254080934C3C0C94751180E00C94EF0E0C9429
S1132550A40F82E00E94EF0E80912D3890912E38C6
S1132560843B910531F40E94421110924C3C10922C
S11325703E3E089580913638882311F08895FACF2D
S1132580809135388031B1F71092353881E00E945E
S113259024050E94201280E00E942405EBCF1F92A4
S11325A00F920FB60F9211242F933F934F935F9383
S11325B06F937F938F939F93AF93BF93EF93FF9307
S11325C0809135388F5F809335380E94E60481E02E
S11325D08093460AFF91EF91BF91AF919F918F91A4
S11325E07F916F915F914F913F912F910F900FBE0B
S11325F00F901F9018951F920F920FB60F921124EF
S11326002F933F934F935F936F937F938F939F93F6
S1132610AF93BF93EF93FF9380913638882341F0B3
S11326201092363881E00E94B80780E880934C3CD1
S113263080E280930904FF91EF91BF91AF919F9144
S11326408F917F916F915F914F913F912F910F9057
S11326500FBE0F901F9018951F920F920FB60F92F6
S113266011248F93809132388F5F809332388C336A
S113267001F510923238809110388F5F80931038B2
S11326808C33B9F410921038809111388F5F809395
S11326901138809111388C3029F4809133388F5F50
S11326A080933338809111388D3019F481E0809310
S11326B0113880913638811103C081E08093343819
S11326C081E0809353018F910F900FBE0F901F9064
S11326D01895CF9388ED84BF1092610080916300B8
S11326E084FFFCCF88ED84BF81E080937C008091DF
S11326F041018111FCCF80E88093400182E0809306
S11327004701809151018111FCCF81E780935001F1
S1132710C1E0C09352018AE18093000483E3809373
S113272020041092400488E880935004809351045C
S1132730809352048093530499E8909315048093F2
S113274016048093170481E38093200880E090E0CE
S11327500E94630780E880932108C093450A80E1C2
S113276097E280934C0A90934D0A83E08093400A49
S113277081E48093010A1092280A1092290A88E0C1
S11327808093000A84E080930202C093000683E1F0
S11327908093020692E090930606C09340068093CD
S11327A0420686E08093460685E080935000789444
S11327B00E94D3070E94BA1280E090E0CF9108955E
S11327C0A1E21A2EAA1BBB1BFD010DC0AA1FBB1F31
S11327D0EE1FFF1FA217B307E407F50720F0A21BA3
S11327E0B30BE40BF50B661F771F881F991F1A9410
S11327F069F760957095809590959B01AC01BD013A
S1132800CF010895DC0101C06D9341505040E0F7C1
S10928100895F894FFCFC7
S11328165041555345440053544147453A005343A8
S11328264F52453A004C495645533A0041202042FE
S1132836202043202044202045202046006D7E7E13
S11328466E7E7E6E7E7E6E7E7E6E7E7E6F004741DF
S11328564D45204F56455200474554202052454188
S1132866445900422B41203D20534C454550004DD0
S1132876454E55203D2057414B4500434845434B63
S1132886504F494E54004D4F4F4E20464F524345EC
S11328960042203D20484947482053434F52455360
S11328A60041203D2053544152542047414D450098
S11328B64D474320323032310042592042454E20A2
S11328C64845434B00434845434B504F494E5420DB
S11328D628302900F0FF8000FDFFFEFFFFFFFFFF09
S11328E60000FFFF000000000000000001000000DF
S10B28F60100010002000300CF
S11328FE500A80FFFFFF0101F401E3E4E533109673
S105290E050BB3
S9030000FC
