:100000000C9492020C94AF020C94AF020C94A207D1
:100010000C94AF020C94AF020C94AF020C94D00776
:100020000C94AF020C94AF020C94AF020C94AF028C
:100030000C94AF020C9476070C94AF020C94AF02B0
:100040000C94AF020C94AF020C94AF020C94AF026C
:100050000C94AF020C94AF020C94AF020C94AF025C
:100060000C94AF020C94AF020C94AF020C94AF024C
:100070000C94AF020C94AF020C94AF0200404040CD
:10008000587C7C7E7E7A767C787A7C787E7F7F7FD7
:100090007F7D633E00400040004040404060607013
:1000A00074747C7E7E7E7E7A74483000002020202E
:1000B0002030343034343E3E3E2A341800100010D4
:1000C0001018181C1C1C1C1C141C0C080010001000
:1000D0001018101010101818181418101FEFF7FB34
:1000E0003EDFFFFF7BB7CFFE7F8F77FF3FDFEFF76E
:1000F000B7F67BDFFFFFFFFFFFFFFFFFD4D4E8E889
:10010000F4F4EAEA80C0A090A88894838480808078
:100110008080808080888081848890A2A1828C9059
:1001200090A0A0C080E09CA3848080818680808095
:10013000818081838F9181838F97828284A890A010
:10014000C0C0C0808060903E67FB7F3F3F7FFFFE66
:1001500078F040800000000000FCB8F0C0C08000D3
:1001600000000000000000E03E7FFBFE3E1C386007
:1001700040808080C0F0B8F0C00000000107171F69
:100180003F3F2F371F1F0F0B0B0F0F070F0F4F5F37
:100190007F3F3F3F3F2F2F2F371F070F0F0F0F0FAF
:1001A0000F4F5F5F5F5F7F3F3F2F2F371B0F0707AB
:1001B000070717171F1F0B0D07030301000000009F
:1001C000000000000000000000000000000000002F
:1001D000000000000000000000000000000000001F
:1001E000000000000000000000000000000000000F
:1001F00000000000000000000000000010080000E7
:1002000080C0E0E0F0F8FCFCFCFCFCFCB8900000D6
:10021000000080402020102804844444A89028082E
:1002200080C0E0E0F0F8FCFCFEFFFF7F7F7F7FFFF7
:10023000FFF7E7CF8F0F1F1F3F3F7E7EFCFCF8F8D4
:10024000F0F0E0E0C0C08080000080402020500836
:1002500004048A414120312858B462C3840404084C
:1002600009111222244448889010202040408080A8
:100270001810041EFEFEFEFEFEFCFCFCFCF8F8F866
:10028000F0F0E0E0C0C0C080800010393F3F3F1F69
:100290001F1F0F0F0F0F0F070303030303030303B6
:1002A000030100041CF4F4B4FC88888898909090B2
:1002B000A0E0C0C00080800000000010191D1D0DCE
:1002C0000D0D0505050505010101000001010101F4
:1002D0000100127FFFFFFFFEFEFCFCFCFCFCFCF8B3
:1002E000F0E0E0C0C0C0C080800040E2FFFFFF7FC0
:1002F0007F7F3F3F3F3F3F1F070707070707070372
:100300000301001272D6D6D4F428282828282860A1
:1003100040C0C0800080800000000040627B7B3ACB
:100320003B3A1A1A1A1A1A020203030102030301C2
:100330000100040EFEFEFEFCFCFCF8F8F8F8F0F0FC
:10034000E0E0C0C0C0C0C080800020797F7F7F3FD8
:100350003F1F1F1F1F1F1F0F070707070707070361
:10036000030100040C3C7C78787870707070600039
:10037000808000008080800000000020313B3B1B1B
:100380001B0B0B0B0B0B0B030303030303030301F7
:10039000010028280080F8FCFCFCFCFEFFFFFFFFAA
:1003A000FFFFFFFFFFFFFFFFFFFEFEFEFFFFFEFE62
:1003B000FCF8E0C0800000000000000000070FFF14
:1003C000FFFFFFFFFFFFFFFFFFFFFFFFFFFFFFFF3D
:1003D000FFFFFFFFFFFFFFFFFFFFFF7F7F7F0600A5
:1003E0000000000000000F0FFFFFFFFFFFFFFFFFF7
:1003F000FFFFFFFFFFFF7FFFFFFFFFFFFFE3810026
:100400000000E0F8F0C080C08000000000000000A4
:10041000030303071F1FFFFF1F1F0F07C1C0F0F1DA
:10042000F1E76FFFFFFFFFFCFEFFDF8FCFE3C101AE
:1004300000000000000000000000000000000707AE
:1004400000000000000C8CD8D8F0F8FFFFFFFFFF81
:10045000FFFFFFFFFFFFE3C0C080000000000010AF
:10046000B850A8A85454AAAA44040A8A1414AA8802
:1004700050FCA8A854541428884040800000000074
:10048000000000000000060BF555AAAA15452AAE8B
:100490005D5DBAEAD450B0E2D555BEE25555D1AA59
:1004A0002A10552A0A7D0400000000000000000602
:1004B0000DF52A6A4014AAA04555AAAA55D76E7A06
:1004C000F7DD8A0F1D638100000000C030C000000E
:1004D00080000000000000000003000007150AFA79
:1004E00011180A06018080A0A1E14648F00003042B
:1004F0000824D2090C82C1010000000080808080A5
:1005000080808080808080878080808080808888D4
:10051000909060301807008C72828C71013C6340AF
:100520008080808011241FBECFEFCDBFDFE3DEBF10
:1005300018E3A0E0B8E3E8EFF0E102C005900D9207
:10054000AA30B107D9F72DE3AAE0B8E301C01D92A4
:10055000A233B207E1F70E940D080C947A080C94BC
:10056000000080910A3881111BC081E0809326042D
:10057000E1E3F8E38081809324088091230885FFDC
:10058000FCCF8181809324088091230885FFFCCFD4
:1005900032968CE3E133F80769F781E08093250414
:1005A0009091480420910804207E892F8F70822B1F
:1005B000089580910B3890910C38009761F0019765
:1005C00080930B3890930C38892B29F48091000A82
:1005D0008E7F8093000A0895E0E0FAE080A791A75B
:1005E00080818160808360930B3870930C3808950C
:1005F000882321F080E180932504089580E1809391
:10060000260408957F928F929F92AF92BF92CF92CD
:10061000DF92EF92FF920F931F93CF93DF93EC0142
:1006200081E08093260480910F38882309F485C0E7
:1006300080900D3858E0581990910E389295907F1F
:1006400021E2E22E28E3F22E30E8732E790EA12C5F
:10065000B12CD7014D917D01DB01A90FB11D8C910A
:10066000F42FE8E08E9FF00D11248F2F242F30E01F
:10067000903F41F4FB011081F8E01F9F200D311DD8
:10068000112408C050961C915097E8E01E9F200D41
:10069000311D112485010F5C174C912C6D01F0E187
:1006A000CF0ED11CF801E153F8435F01F0E89F162B
:1006B00081F1FE01E80FF11DA490FE01E20FF31F8E
:1006C000E491B12C082C02C0B594A7940A94E2F7E7
:1006D000052E01C0EE0F0A94EAF7AE2AF801A192A6
:1006E0008F014F5F483021F08F5F2F5F3F4F0FC06A
:1006F0008C91880F880F880F903F11F4FB0101C087
:10070000F6012081F8E02F9F9001112440E093949E
:10071000C9CF905F97119DCF81E080932504DF9131
:10072000CF911F910F91FF90EF90DF90CF90BF90EE
:10073000AF909F908F907F900895A1E2B8E309E277
:1007400018E389E2C82E88E3D82EB12C812C912C95
:100750008D91F80191918F017B01EB0CF11C9701B8
:10076000290F311DF9014081282F30E0F8E04F9F1B
:10077000200D311D1124A4014F5C574CA12CFA010E
:10078000E153F8434F01F0E8AF16E1F0FE01E20F4C
:10079000F31F9490FA019192AF018F5F883019F0A6
:1007A0002F5F3F4F0DC09F5F903208F090E0F70140
:1007B000E90FF11D2081F8E02F9F9001112480E0C6
:1007C000A394DDCF20E2B20ECA16DB0609F0C0CF3B
:1007D000A3CF70E0FB01E75DF74C982F96959695B7
:1007E00096959083FB01EF5DF74C877080830895A9
:1007F0002F923F924F925F926F927F928F929F9231
:10080000AF92BF92CF92DF92EF92FF920F931F931E
:10081000CF93DF93CDB7DEB72897CDBFDEBFFC0106
:1008200054913296E983FA8331978491869586951F
:100830008695A82EB12C589FC0011124F42FF77073
:100840005F2E38E0432E4F1A459545954595A62FC6
:10085000062E000CBB0B30E84303A00DB11D112484
:10086000E22FF0E0EE0FFF1FE89F9001E99F300DAF
:10087000F89F300D1124E980FA802E0D3F1D452F81
:1008800050E00F3F11F4240F351F71E0511001C0EB
:1008900070E07A01EE0CFF1CF7013197E983FA83CF
:1008A0001F8218867501E70EF11CED82FE823C0165
:1008B000641A750A802E002E000C9908EF80F884C7
:1008C000ED81FE81EE16FF060CF077C0FD01EF5CB6
:1008D000F74C6F017D01362EFA01EA0FFB1FEB8307
:1008E000FC83EB81FC81EE16FF060CF058C0F7018B
:1008F000EE27FC7FEF2B09F048C037FC46C055209F
:1009000009F438C0EF81F885EF2BC9F0F901E41B39
:10091000F50BE491F0E0042C02C0F595E7950A94FC
:10092000E2F71E2FF901E60DF71DE491F0E0042C2B
:1009300002C0F595E7950A94E2F77E2F02C070E0B9
:1009400010E0EF81F885EA15FB05CCF4F90124905D
:10095000E22D052C01C0EE0F0A94EAF71E2BF901D7
:10096000E80FF91FE491052C01C0EE0F0A94EAF795
:100970007E2B05C0F9011491E80FF91F74911095B1
:10098000F60120801221712B7083280D391D3394BC
:10099000FFEFEF1AFF0A7FEFC71AD70AA2CFA058BE
:1009A000BF4F0F3F21F4E980FA802E0D3F1DEF81EC
:1009B000F8853196EF83F88781CF2896CDBFDEBFCB
:1009C000DF91CF911F910F91FF90EF90DF90CF902B
:1009D000BF90AF909F908F907F906F905F904F905F
:1009E0003F902F90089580930F38089580932408A6
:1009F0008091230887FFFCCF0895CF93DF93E6E231
:100A0000F4E0C2E0C083D1E0D0830E94F604E5E2C6
:100A1000F4E0D083C083DF91CF91089581E080938B
:100A2000260490E190930604909305048093250496
:100A30008EEA0E94FD0485ED0E94FD0480E80E947C
:100A4000FD0488EA0E94FD048FE30E94FD0483ED0B
:100A50000E94FD0480E00E94FD0480E40E94FD04E9
:100A60008DE80E94FD0484E10E94FD0480E20E9462
:100A7000FD0480E00E94FD0481EA0E94FD0488ECF0
:100A80000E94FD048AED0E94FD0482E10E94FD04A3
:100A900081E80E94FD048FE80E94FD0489ED0E9418
:100AA000FD0481EF0E94FD048BED0E94FD0480E4B3
:100AB0000E94FD0484EA0E94FD0486EA0E94FD046F
:100AC0008FEA0C94FD0410922108882329F00E94DB
:100AD0000E0510920A3806C08EEA0E94FD0481E0DD
:100AE00080930A3880E880932108089581E08093FC
:100AF0001E3880E00E94630580E00C94F8020F939A
:100B00000E94B1028093313D61E37CE38CE790E089
:100B10000E9402030091053820E048E06091063809
:100B200082E993E00E94F803009102382091143882
:100B30004091033864E180E792E00E94F80301E00D
:100B400020E048E3609115388EE192E00E94F803BE
:100B500060911538685F20E040E38CEF91E00E94DF
:100B6000F803109214388091313D86FD0E9476057D
:100B70002091313D20FF0FC08091033890910438BF
:100B80001816190644F4019780930338909304389B
:100B900082E08093143821FF0FC080910338909138
:100BA00004388033910544F4019680930338909380
:100BB000043881E08093143822FF49C08FEF80937E
:100BC0000238809117389091183801978093173820
:100BD0009093183880911038909111380397809332
:100BE0001038909311388091003890910138019617
:100BF000809300389093013880910638909107389F
:100C000001968038910511F488ED9FEF80930638A6
:100C10009093073880911238909113380197809300
:100C200012389093133880911538909116380496A5
:100C30008038910514F088ED9FEF809315389093DC
:100C4000163868EC70E088E592E00E94EC02809132
:100C5000313D83FF51C021E0209302388091173845
:100C60009091183801968093173890931838809196
:100C7000123890911338029680931238909313385B
:100C800080910038909101380197809300389093BB
:100C9000013880910638909107380197883D3FEFE1
:100CA000930729F0809306389093073810C080E8A6
:100CB00090E0809306389093073880910538813012
:100CC00021F48FEF8093053802C02093053880917E
:100CD0001538909116380497883D2FEF920714F439
:100CE0008FE790E0809315389093163864E170E0B8
:100CF00080EB94E00E94EC028091313D85FF03C0BF
:100D000094E09093193887FF03C095E090931938C9
:100D100086FF03C086E08093193880911238909145
:100D200013380197809312389093133896958795CE
:100D300060E00E94E90380911238909113389695F3
:100D400087959695879561E00E94E9038091123816
:100D50009091133843E0969587954A95E1F762E0C4
:100D60000E94E903809117389091183895958795DE
:100D700063E00E94E90380911738909118389595A7
:100D8000879564E00E94E9038091173890911838A4
:100D90009595879565E00E94E90366E08091173894
:100DA0000E94E9038091173867E0880F0E94E903E9
:100DB00080E00F910C94F80280911E38882311F086
:100DC0008895FACF80911D388431B1F710921D3883
:100DD00081E00E94F8020E947F0580E00E94F802F4
:100DE000EBCF90E0FC01EF5CF34C840F911D9F0171
:100DF00021533C43281739071CF461936F5FF7CFE9
:100E00000895CF9380E00E94F30440E051E06FE248
:100E100070E081E39CE30E947308C0E048E060E278
:100E20008C2F0E94F106C85FC032C1F743E060E03A
:100E30008C2F0E94F10643E063E084E08C0F0E9457
:100E4000F106C85FC03491F742E066E082E40E9498
:100E5000F10642E068E087E40E94F10642E06AE0C1
:100E60008BE40E94F10642E066E082E50E94F10612
:100E700042E068E087E50E94F10642E06AE08BE527
:100E80000E94F106C0EA48E061E18C2F0E94F10661
:100E900042E069E181EE8C0F0E94F10642E06DE1D3
:100EA00084EE8C0F0E94F10642E06BE181EC8C0F26
:100EB0000E94F106C85FC03C31F7A1EFBCE3E1E15D
:100EC000FDE380E18D934DE3A131B407D9F73CE018
:100ED0002DE09EE08FE030832183928383833496DC
:100EE0004DE3E133F407B9F7CF9108951F920F92C4
:100EF0000FB60F9211242F933F934F935F936F93ED
:100F00007F938F939F93AF93BF93EF93FF938091C2
:100F10001D388F5F80931D380E94D90281E0809335
:100F2000460AFF91EF91BF91AF919F918F917F9171
:100F30006F915F914F913F912F910F900FBE0F9046
:100F40001F9018951F920F920FB60F9211242F9396
:100F50003F934F935F936F937F938F939F93AF9341
:100F6000BF93EF93FF9380911E38882329F010924E
:100F70001E3881E00E94630580E280930904FF919E
:100F8000EF91BF91AF919F918F917F916F915F9101
:100F90004F913F912F910F900FBE0F901F9018957A
:100FA0001F920F920FB60F9211248F9380911A38CF
:100FB0008F5F80931A388C3301F510921A38809124
:100FC00008388F5F809308388C33B9F41092083852
:100FD000809109388F5F80930938809109388C306F
:100FE00029F480911B388F5F80931B3880910938DA
:100FF0008D3019F481E08093093880911E38811179
:1010000003C081E080931C3881E0809353018F916D
:101010000F900FBE0F901F90189588ED84BF10920F
:1010200061008091630084FFFCCF8AE1809300041B
:1010300083E3809320041092400488E88093500456
:1010400080935104809352048093530499E89093C1
:101050001504809316048093170481E3809320087D
:1010600080E090E00E940E0580E88093210881E0F6
:101070008093450A20E137E220934C0A30934D0AD1
:1010800093E09093400A91E49093010A1092280A09
:101090001092290A98E09093000A94E0909302023B
:1010A00098ED94BF80937C00809141018111FCCF29
:1010B00080E88093400182E0809347018091510154
:1010C0008111FCCF81E78093500181E08093520130
:1010D00085E08093500078940E9401070E94DC060E
:1010E00080E090E00895DC0101C06D9341505040D4
:0810F000E0F70895F894FFCF2A
:0A10F8006400011800014E00050B12
:00000001FF
