:1000000050090020F1000000ED000000ED000000AC
:1000100000000000000000000000000000000000E0
:10002000000000000000000000000000ED000000E3
:100030000000000000000000ED000000892A000020
:10004000ED000000ED000000ED000000ED000000FC
:10005000ED000000ED00000069030000ED0000006D
:10006000ED000000ED000000ED00000000000000C9
:10007000ED000000ED000000ED000000ED000000CC
:10008000ED000000ED000000ED00000010B5064C92
:100090002378002B07D1054B002B02D0044800E049
:1000A00000BF0123237010BD3000002000000000BD
:1000B000443E0000084B10B5002B03D00749084808
:1000C00000E000BF07480368002B00D110BD064BBD
:1000D000002BFBD09847F9E7000000003400002017
:1000E000443E0000443E000000000000FEE7000027
:1000F0002148224970B5884204D00023204CCA18F8
:10010000A24232D300211F4B1F4A934231D3FF2119
:100110001E4B1F4A8B43936002220C250824302675
:100120001C4B1D485A62C378FC398B431343C37080
:10013000C378AB432343C370184B987BB04306008E
:10014000202030439873987BA84304439C73987B8A
:10015000884302439A738023114A51680B435360CA
:10016000104B9847104B9847FEE7C558043315606D
:10017000C5E702C3C9E7C046443E000000000020B6
:100180002C000020300000204C080020000000005F
:1001900000ED00E0FC7000410050004100480041CB
:1001A00000400041152D0000A52A0000014A024B25
:1001B0001A60704740420F000000002030B5254B08
:1001C00025491A6A25480A4080211A621A6A8A4318
:1001D0001A62426862398A43110002220A4342606D
:1001E0001F49204A9160204951605178C909FCD1CA
:1001F00082218020C9015180998C81439984D968DA
:10020000C906FCD5812189009984D968C906FCD525
:10021000164908681649850E0968AD028C05A40DBB
:100220002C4389059C62C90D124C0904C00E214360
:10023000800608430221D862988C01439984D968CA
:100240004906FCD5002393600B4B53605378DB09C0
:10025000FCD130BD00080040FFFCFFFF0040004122
:1002600001FA0000000C0040010603002460800039
:1002700028608000DC050000000703002022F8B59C
:10028000174B184C596900250A435A611022D96945
:1002900002271143D961144B14495C6399631449D3
:1002A000198019003F310D704E78BE434E70012603
:1002B0004E701969B14319610E4959640E4B0F49CB
:1002C0001B68CD6028338B600D4B4B800D4B0B8032
:1002D000013BC01848600C4B20009847F8BDC04651
:1002E00000040040A0000020004800411001002050
:1002F000020F000000028000040000209000002097
:10030000FE030000010400005D2D0000054B0021EC
:100310001A003F3211700222403319780A431A70D2
:100320007047C04600480041042270B5084B094D93
:100330005A619A612878084CA047084B1870687871
:10034000A047074B98470122064B1A7070BDC04664
:1003500000440041E2010020E5080000E40500201F
:100360000D0300004C0000200223064A11780B43C5
:100370001370054A137E9B07FCD50022034B1A70AD
:100380007047C0464E480041000800424C00002023
:100390000B00F7B506000C00103301920093237890
:1003A000DB001F000837F05C5D1C019BADB21840FC
:1003B000044B98472B00BD42F5D1009B0134A3426A
:1003C000EDD1F7BDE5080000014B18787047C04635
:1003D000E40500200D4A10B55368002B06D00C49E7
:1003E000886CC0188864086C1B180B641389002B78
:1003F0000AD0013B9BB21381002B05D10224044893
:100400000168A1430160937210BDC0464C000020FA
:100410000014004230B5084CA57A95420BD8A27260
:1004200002226360054B9864400080B2186418682B
:1004300002431A60218130BD4C00002000140042AC
:1004400070470000802230B50C490D4C0D4B520016
:100450009A610C6002210C4C2578294321700B4CC9
:10046000217EC907FCD55A6109490A4B0A881B88B5
:10047000541C9B1818400C8030BDC0461020004210
:1004800018190000004400410C20004200200042E6
:10049000E20500201A200042F0B5494B89B0DA7A13
:1004A00001908C46002A58D01A7B0025029208221F
:1004B0000299521A597BD2B209010392C9B2414B37
:1004C000AEB2585D0B0063441A78F401D200821872
:1004D000A4B20093D2B2F02914D163461B7801363E
:1004E000F601B6B205960E00DB0066441B180796AF
:1004F000059EB44209D110310135C9B2082DDED1B3
:1005000009B0F0BD009B1B7CE9E7661CB6B20496FF
:10051000019E029FB65C01303E41019F0696FF5C42
:10052000039EC0B2B740069E3E43274F3E55082863
:1005300005D001320133D2B29BB2049CD8E7009BB4
:100540001A78D200D2B2F02904D163461B78DB00BE
:100550000020F2E7079B1B7CF9E71400194B1600FB
:10056000185D1A4B6501195D6346EDB25B185B5D62
:100570008036DB00B6B21B180296029EB24203D14F
:100580000134082CEAD1BBE7571CBEB20096019E8D
:100590000130F65CC0B237000B4EB754082803D0C8
:1005A00001339BB2009AE8E70131C9B21F2900D993
:1005B000002163465B185B5D0020DB00F2E7C0466C
:1005C0004C000020D2010020E2010020DA010020CE
:1005D00007220023F0B5CC08C7081140064D074E8E
:1005E000EF5405001540F5540133082BF6D1044BA8
:1005F0005C731973F0BDC046DA010020D2010020FF
:100600004C000020034BC2085A5407231840024BE9
:1006100058547047DA010020D2010020F0B58BB0A9
:10062000059110A90978841C49B203910178072526
:100630008C4641781540C908029161460298D21053
:10064000414301910821491BC9B204910599D20186
:10065000521892B20692019A52005343039AE31839
:10066000013202D16246013A9B182A00511E8A418A
:10067000D2B2079262460024520008920699E20123
:100680008A180298079912B209188C4243DA1100AD
:100690006144059E09912DE0FC2109020A4223D103
:1006A000002E21DB002D32D0002C2DD06146494296
:1006B000585C049F3841019FC0B2DF19795C049FE8
:1006C0003941C9B2029FBC4208DA1F78AF403843B3
:1006D000019FC0B2DF5DAF403943C9B20F4FBF5C6D
:1006E00087430F430D498F540399013601325B183C
:1006F00076B212B209998A42CEDB039A013201D155
:10070000089A9B180134B9E721002000DAE7019923
:100710001878595CE2E70BB0F0BDC046E20100205A
:10072000014BD8727047C0464C00002030B58A1883
:10073000054B92B2914200D130BD05784C1C5D54FE
:100740000130A1B2F6E7C046E201002070B50425F1
:10075000024C034B65619847A56170BD00440041A0
:10076000E508000070B50B4CFF280DD1A37B5A4261
:100770005341A373A37B084D002B07D0A020A847AB
:10078000C020A847A07B70BDA073F3E7A120A847B5
:10079000C820F6E74C0000204D07000010B5084BBC
:1007A000FF280BD1DA7B51424A41DA73DA7BA7206A
:1007B000044B002A00D1A620984710BDD873F5E756
:1007C0004C0000204D07000080221E4B920070B5A7
:1007D000AE205A611C4C9A61A047D520A0478020CA
:1007E000A047A820A0473F20A047D320A047002033
:1007F000A0474020A0478D20A0471420A0472020DC
:10080000A0470020A047114D114BA87B9847DA2044
:10081000A0471220A0478120A0478F20A047D920C1
:10082000A047F120A047DB20A0474020A047A420FC
:10083000A047E87B074B9847AF20A0470648074BE7
:10084000984770BD004400414D0700004C00002057
:10085000650700009D070000E20100207D02000006
:1008600010B5064C002804D0054B9847002323748C
:1008700010BD044BAE2098470123F8E74C00002040
:10088000C90700004D0700007047704704230E4A57
:10089000116A0B4313620D4B0D4A5A805A78D209E4
:1008A000FCD10C4B0C4A0D491A60802292025A600E
:1008B00001221A730A4A9162022219680A431A60D5
:1008C000DA699207FCD4704700040040000C004035
:1008D0000E400000000800420C00200010C0015231
:1008E00000440041054B1A00197EC907FCD59862E7
:1008F000137E9B07FCD5906AC0B270470008004287
:10090000084B1B78002B0CD0074B1B78002B08D012
:10091000064B1B785B0704D003010548C0188023F1
:1009200083717047470800202707002060000020DF
:1009300040070020074B1B78002B09D0064B1B7883
:100940005B0705D0054B1B788B4201D8044B1A80FE
:100950007047C046470800206000002008000020C3
:10096000000700200022044B1A70044B013218705B
:10097000034B1A707047C04602070020460800204B
:100980004208002010B50F4C0F4960780F4B020150
:1009900053508B180E4AA02112780130DA815F2261
:1009A0009A8099329A71F73A9A720022D9715A72E2
:1009B000DA725A73C3B2102B01D0637010BD62702B
:1009C000FCE7C0466000002040070020802D0000AA
:1009D00024070020F0B51020002501270E490F4AFA
:1009E0004B781C011619B67976B2803607D1002DE6
:1009F00000D04B7000231219D37201200AE001339A
:100A0000DBB2102B00D100230138C0B23D0000281A
:100A1000E7D14B70F0BDC0466000002040070020C9
:100A200070B50C001B4B05009847601E1A4B1B4A03
:100A300007280AD802F0CEF8040B09100909092684
:100A40005178174809010230585030200AE0517897
:100A5000134809012430F7E751781148090166303D
:100A60005850382051780E019B19987101200918AF
:100A7000C9B29D80DC715873102908D05170094BA0
:100A80001C7070BD5178084809010830E8E7002360
:100A90005370F4E7D50900004007002060000020F3
:100AA000002E000040080020802E000070B5134B7F
:100AB0000D00060014009847114B1249802C0FD0EE
:100AC000902C13D04A7810011B1800200132D2B2AA
:100AD0009E809D71DC715873102A0CD04A7070BDD5
:100AE0004A78094812013A309850EBE74A780648AC
:100AF00012014C30F8E74870F1E7C046D509000014
:100B00004007002060000020802E0000F7B51E0086
:100B10001D4B0700009101929847002822D01B4CE2
:100B20001B4B202E1FD0402E21D0102E04D15B78DD
:100B3000184A1B015E32E250154A537819016418B5
:100B40001421E181694609780133A1716946097967
:100B5000DBB261720021A780E6716173102B11D0A6
:100B600053700120FEBD5B780B4A1B01E3E75D7803
:100B7000094B2D0142336351FF20084B98476519FB
:100B8000A872D9E75170ECE7D509000040070020B2
:100B900060000020802E0000002F000045040000AF
:100BA000F8B50D0014000F4B060098470E490F488A
:100BB0004A780F4B17016430F850DB199D710125FD
:100BC000DC8100209C7230245219D2B29E80D872EF
:100BD0005D72DC715D73102A01D04A70F8BD4870F7
:100BE000FCE7C046D509000060000020002F00008F
:100BF00040070020F7B5802601250E4C764222687A
:100C0000130080330FD000210B48231F595652B2D6
:100C1000002300952630094FB8472368013B1A008E
:100C2000083205D02360064B08349C42E7D1F7BD5B
:100C30002660F8E7F0050020003000001D060000E7
:100C4000000600208022024B52425A60DA60704750
:100C5000EC05002010B5012080240022064B074936
:100C60001C709870DA7110338B42F9D1044B5A70B2
:100C7000044B1A7010BDC0464607002046080020ED
:100C8000600000204008002070B5002407220E4BB1
:100C900001261C700D4B0E4D5A70ED329A70E43ADD
:100CA000DA7023321A700B4A2E70147080221A7177
:100CB000094B6C802C719847084B9847084B6C7116
:100CC0001C80084B1E7070BD020700200800002029
:100CD0006000002026070020450C0000550C000095
:100CE0000007002041080020F0B5C74DC74CEB8835
:100CF000E1782A785B18DB1085B02B81022A00D1BD
:100D0000CAE054D8012A69D0C14B98470421BF4C8E
:100D1000BD4D61560B00803311D0012012226B882B
:100D2000AA569B0803400090BA48BB4E7E30B0479D
:100D3000237902335BB27D2B00DD13E12371B74EC3
:100D40003278002A18D0FA20531EB5495B109B0058
:100D50004000CB18504321781B6C80B25B18237085
:100D6000082200231421AF4FB84733780133DBB298
:100D7000212B00D1F8E033702B785B0700D11EE106
:100D80002A7EA94B002A00D103E11A78D30604D5A4
:100D9000E378002B01D0013BE370930600D403E11C
:100DA000E378662B00D9FFE00133E370FCE0102A02
:100DB00000D1A6E0202AA7D12B8A013B9BB22B822F
:100DC000002BA1D199490A78013AD2B20A70FF2AC0
:100DD00000D0C4E0F93A62706B8095E7002006000D
:100DE0001F3BDBB2E02B4FD9914A8354904A914F7D
:100DF000825C0133BA5C013094466644F6B2DBB2E1
:100E00000328EFD101236A881A4200D0FE338A4DAD
:100E100023722800012322787608063A921900935B
:100E20007D4E52B249B238300023B047814F6379CA
:100E30000321FA5C23786A35D2180823E3566156F9
:100E40002800009352B20023B047794BE1785B78D9
:100E50000831FA5C23782800D2180823E35652B2EE
:100E6000009349B20023B047714BE1789B78103171
:100E7000FA5C237849B2D2180823E35652B20093A1
:100E800028000023B0473FE72022524294469C446A
:100E90006246674FC255A9E7012300226648A25661
:100EA0005D4D009349B200233830A8475B4B0625BF
:100EB0001B78182B00D9023D0127032122785E4EB2
:100EC000AA186A3661563000039652B20097002382
:100ED000514EB0472278E178AA180831039852B2EF
:100EE00049B2009700234C4EB0472278E178AA1807
:100EF000103152B249B2009700230398464CA047E4
:100F000002E701204D4B22781B78103AC91AC9B26A
:100F1000E1702B7B00904848043152B249B27C30DA
:100F20003D4CA04796202B8A400058430A220523B7
:100F300080B214213B4CA0472B8A013B9BB2002B73
:100F400001D02B82E0E605232B82EB680133EB60B6
:100F5000042B00D0D8E61C332B701C33F1E7384B40
:100F60009847D1E68023E9E60021364A317013889C
:100F70008B420AD068691180C3186B61052308226F
:100F800031485B42C831B847F6E60822C8212F48ED
:100F9000F9E71A78930604D5E378002B01D0013BDA
:100FA000E370D30600D5FBE6294B1B785A0704D51E
:100FB0003278002A01D1013232701B0752D42B79CA
:100FC000002B1DD00423688806211840214B00D037
:100FD000802098472B8A013B9BB22B82002B0FD19C
:100FE0001D496B800A786B7101320A700F490A78CB
:100FF00001320A7007226270184A1370104B98472A
:1010000005B0F0BD002346E060000020080000208D
:10101000F50B0000803100001D06000026070020AF
:101020000032000015040000030700203F070020E5
:101030000D000020FC0500200030000041080020C9
:10104000890C000000070020881300001027000012
:101050003E07002005060000050700204408002088
:10106000033B2DE06B7E1748DB00C1184A688032D5
:1010700012D1E278144F02321A502378C820083B6C
:101080004B600A2364211A008000B8476B7E01334D
:10109000DBB2012BB6D86B760423E356803300D045
:1010A0008DE7E378C820103323710A2364211A00E6
:1010B0008000054FB84732782378002AD0D0023319
:1010C000AB747CE7EC05002015040000002210B58D
:1010D000064B1A70064B1A7814235B425343054A99
:1010E000743B1370044B984710BDC0464408002061
:1010F0000507002024070020890C00000122064B70
:1011000010B51A700022054B5A61054B04321A7053
:10111000044B984710BDC046050700206000002022
:101120003F070020CD100000F8B500260A22012557
:10113000354B364C1E70364B65721E70354B1E702B
:10114000354B1A70354B9847354F3648364B3A7801
:10115000057036481E7036495308033300780B700B
:1011600053002E00DBB2334D052816D801F032FDB6
:1011700003182B343B42302304202F4EA372B04778
:101180003B78012B09D9032002225843254904301A
:101190000A70C0B258326272B0470123AB83F8BD07
:1011A0002648012A07D150236B834E3B037002333C
:1011B000A2720B70F1E70122A2722732D31A6B835D
:1011C00004230370E9E73122A2721532D31A6B832C
:1011D000433A1A4B1A70E0E70222A2723032D31A55
:1011E0006B832F3AF5E71322A2722932D31A6B834D
:1011F000383AEEE73422124B6E711A700023A37254
:10120000104B9847C9E7C046E805002008000020B9
:10121000420800200207002046080020550C00006C
:101220000507002041080020040700204408002092
:101230002507002060000020650900004808002004
:101240003D07002085090000802210B5D200044B24
:101250000021044898470122034B1A7010BDC04674
:101260002D070000803200004508002030B50F4BEC
:101270000021DB7841201A000D4C0D00A735625586
:101280000132D2B25A2A00D9020001310929F4D11F
:1012900007225A20013BDBB2402B00D8030011008B
:1012A000013A9F316354002AF4D130BD0800002078
:1012B000FC050020FF23F0B50621002401250A4A81
:1012C0000A4856690A4FC3728A00043ABA58B242B1
:1012D00003D9002C00D0C372F0BDCBB201392C0071
:1012E0000029F1D1F7E7C046600000200800002087
:1012F00008070020084B10B501209847074B1A7BC0
:10130000002805D0002A01D0013A1A73187B10BDBD
:10131000012AFBD80132F8E745040000080000204C
:1013200010B5054B1218904200DB10BD4C1C19542F
:101330000130E1B2F7E7C046FC050020400170B57E
:10134000C4B2104D200010228021A8472000103088
:10135000C0B210228021A84720220B4BA0181B19D5
:101360009A715A729A729A755A769A76C0B2103AEF
:101370009021A84720003030C0B210229021A84709
:1013800070BDC04621130000FC0500200923F7B5FD
:1013900006000C000027134D0193AE421AD329001A
:1013A0003000114B984730302070290030000F4B2F
:1013B0009847671C3C000E00012728000A4B0A21B1
:1013C0009847019B0500013B0193002BE5D1203399
:1013D0002370F7BD002F01D1012DEED130232370F2
:1013E0000134EAE700E1F505FD2B0000092D0000BE
:1013F0000023C25C002A00D17047CA540133F8E7C9
:1014000070B50400C82005230A22154D6421400050
:10141000A847144D144A6B69FA336B611378013B8A
:10142000DBB21370002B1AD10621104B24011C19BA
:101430000423E05E615614220D4EB0470621A088B9
:101440006156103000B21822B0478023A3717F3B51
:101450002B71B3332B8207490748084B984770BD5F
:1014600015040000600000203D0700204007002018
:10147000A10B0000CE060020C83C0000F1130000C4
:10148000F0B50027AF4C87B00622A2561300803378
:1014900000D1A2E0082004212056E37A6156009092
:1014A0002068A94DA8472368A8491B78A8485AB2C4
:1014B00001335BB2059300230492CD78A54A0370F3
:1014C00013700423E65E2B001333B34206DB049B48
:1014D000043B9B199D4201DA01230370062309781E
:1014E000E356C81D984205DB0598C318994201DAF6
:1014F00001231370984D2B681A00803227D02A1FC1
:1015000012680421605ED11D814220DB0499091814
:101510008A421CDA06216156DA1D8A4217DB059AD7
:101520005218934213DAE379302B10D0A02B5BD101
:10153000F8B28A4B9847A179A0880831083049B29F
:1015400000B20522864B984780235B422B60854B77
:101550000835AB42CFD1042200237C4EB256039310
:101560001300803319D00421635E11000F319942BA
:1015700013DB0499CB189A420FDA7B4B997C062334
:10158000E356CA1D9A4208DB059AD31801229942F4
:1015900001DB6B461A7BD3B20393637B002B0BD02A
:1015A000724BA2881B78D21A049B12B25B42A280B3
:1015B0009A4201DA8023A371062161560B00803321
:1015C0000BD0E579102D00D111E136D8022D00D1D4
:1015D00096E029D8012D00D17BE001371034102F7F
:1015E00000D051E707B0F0BD7022134217D0FA26A1
:1015F0005F4AB6001378013B13705B4A53699B192D
:1016000053610622564B984780239621AF20A37141
:101610000A22813B49008000564EB04794E7524A67
:1016200053690A335361EFE7042D00D184E0082D9C
:10163000D3D19622F8B2920081E0802D00D1A1E0B2
:1016400013D8202D00D1EEE0302DC6D1E389013B27
:101650009BB2E381002BC0D1E37A0133DBB2E372AA
:10166000032B33D17D33A371B7E7902D00D1A4E0D4
:10167000A02DB2D13C4D6B88AA7F1A4200D123E144
:1016800001232372039B002B0BD08023F8B233710C
:10169000324B984706210423E05E61560522304B09
:1016A0009847062161560B00803300D195E7A07A58
:1016B0000138072800D990E701F096FA08012001C7
:1016C000420176018C019801A701C3010623E38141
:1016D00083E7039B002B0CD08023A3713371763BEF
:1016E0001A00C8212448234DA8471F4A5369643370
:1016F0005361FA22F8B252002C21204B98476CE734
:10170000039B002B14D01E4BC820023323600123FF
:10171000E371A3880A220833A380802364213371F4
:1017200040007D3B134DA8470F4A53693233536144
:10173000FA22F8B29200DFE79622F8B25200322184
:10174000DBE7C046400700201D060000080000201F
:101750004708002027070020F005002001140000A2
:10176000A10B0000000600206000002041080020BE
:10177000E805002015040000DC0500003509000024
:10178000002E0000C14BF8B29847A37901335BB239
:10179000342B10DCA371039B002B00D11DE78023A9
:1017A0009621AF20A37133710922813B490080004B
:1017B000B74DA84711E7A571EDE7B44BF8B29847CC
:1017C000A37901335BB2A371342BE4DD9621FA20B7
:1017D000012308224900C000AD4DA8478023A088FE
:1017E000A371083800B20421AA4B9847D3E7AA4B4B
:1017F0005B881B0711D5012323720923A288E356B6
:101800009B181BB2A380002B09DC01236372E389C0
:10181000002B00D1E1E6013B59E7FF23ECE76F2BFA
:10182000F5DDFF23F2E79C4B5B881B0748D50123BE
:10183000092023722056A388C01880B202B2A28069
:101840000123002A02DD6F2A01DDFF236372E38991
:10185000002B17D1F378562B34D904339A4211D187
:101860008E4B08311B780430E38149B240B290229C
:101870008B4B9847012396205B420A22642180000B
:10188000834DA847F0780423E25E030028339A4290
:10189000BDD1E389002BBAD1804BA1791B780831E7
:1018A0002C30E38149B240B290227D4B984701230E
:1018B00096205B420A2264218000754DA847A6E766
:1018C000FF23B5E72833C9E7FF23DAE60823AB7720
:1018D0006B88DB0700D480E6013149B2A17124296D
:1018E00000D07AE602230720A3726E4B98470723A5
:1018F00058431E30E0815833EB776EE6EB7F0133BF
:10190000DBB2802B1AD0EB77EB7F674AD2562423C9
:1019100092109B1AA371E389013B9BB2E381002BD8
:1019200000D05AE603203C33E381A0725D4B984718
:101930005E4B1B780533C01820734EE60023E2E7A8
:10194000EB7F0133DBB2802B24D0EB77EB7F564A61
:10195000D15624238910C9B25B1AA371E389013BD4
:101960009BB2E381002B00D037E6237B013BDBB247
:101970002373002B10D02C23A088591A0C309022EE
:10198000474B49B240B29847484B1B789A009B1A84
:101990005A339CE60023D8E70422A272023AAA77BF
:1019A0004432E281637218E6082909DD637A013363
:1019B0005BB26372042B03D100230139A1716372FE
:1019C000E389013B9BB2E381002B00D005E60533A0
:1019D000A37202E6033149B2362901DCA171FCE5AC
:1019E0003723A371313BA372223370E66B88DB0788
:1019F00002D5A3880133A380E389013B9BB2E38135
:101A0000002B00D0E9E50733E2E7A388023B1BB2D5
:101A1000A380203300DBE0E50823224EA3720720D9
:101A2000B047062358438038A0800320B0470323E3
:101A300058430023083063730433AB77A0711A3323
:101A400045E60423E05E002812DDE389013B9BB2FA
:101A5000E381002B0CD108310C308022104B49B2AD
:101A600040B29847114B1A780A239B1A9B00E381D6
:101A7000A38801331BB2A3805E2B00DCADE50123FC
:101A8000ED18A372EB7F013336E7C0460109000071
:101A900015040000210A0000600000202407002037
:101AA000AD0A000045040000803600000507002054
:101AB000F7B513000322012620275A434901D2B269
:101AC0000818D31CC0B2DBB20193801A0D4B9400EE
:101AD000E35811189C4600230B4CC9B261186446A8
:101AE0001C415D0134420AD000244C550133052BC2
:101AF000F5D10132019BD2B29342E7D1F7BD4F55E8
:101B0000F4E7C04600370000FC050020802210B535
:101B1000520020210148024B984710BDFC050020CF
:101B20006F2D0000F8B5184B98470021174B08009F
:101B300098473C23164D17492B700233EB73164818
:101B4000164B9847002403263000E3B2991C490144
:101B500060433133C9B26B54114BC0180023CA180B
:101B6000C75CAA1801339770032BF8D10D4AA30064
:101B70000631D05869180C4B01349847062CE3D134
:101B800001220A4B1A70F8BD0D1B0000D1050000A0
:101B9000FC050020FF050020D73C0000F1130000E9
:101BA00028070020080700208D13000045080020AA
:101BB00010B51A4B98470021194B080098473C2252
:101BC000184B194C1A70194902321948DA73A04798
:101BD00018491948A04719491948A04719491A48EE
:101BE000A0471A491A48A0471A491B48A0471B4951
:101BF0001B48A0471B4B1B781B070ED51A4C23789C
:101C00007F2B02D9FF20194B984723789B0604D5D8
:101C1000174BFF209847174B187610BD0D1B00007F
:101C2000D1050000FC050020F11300000106002092
:101C3000E23C00001C060020EA3C00003D060020BB
:101C4000ED3C00005D060020FD3C00007D0600200C
:101C5000073D00009D060020133D0000DC0600202B
:101C60001B3D0000030700203E0700209D070000E9
:101C70006507000060000020F8B5494B9847002137
:101C8000484B08009847484C484E657B637BEDB253
:101C9000092B03D9012203210020B047444B28001F
:101CA0000A219847CAB203210800B047414DAB1C36
:101CB000DB7FDB0703D50A2203210720B047A77B80
:101CC0000022FFB2092F04D90A2138003A4B984765
:101CD000C2B203210920B047354B0A21380098478A
:101CE0000D20CAB20321B0472B8A002B39D03C22E9
:101CF000013B2B82314B1A700232DA73EB1CDB7F13
:101D0000012B34D0002B2DD0022B33D0EE1CF37FCF
:101D1000002B26D02A4B2B492B4898472B4B1A785F
:101D200053B2002B0CDA9623F17F5B002B82012942
:101D300023D1637B0133DBB263730D2B00D161735D
:101D400053060ED596235B002B820335EB7F012BC8
:101D50001CD1637B013BDBB26373002B01D10C33DD
:101D60006373F8BD17491A48154B9847CEE71949D0
:101D70001948F9E719491A48F6E7A37B0133DBB2A2
:101D8000A3733C2BDCD10023A373D9E7A37B013BD6
:101D9000DBB2A373FF2BE4D1C43BA373E1E7C046DE
:101DA0000D1B0000D105000008000020B11A000042
:101DB000092D000060000020FD2B0000FC05002024
:101DC000F1130000FE0500204C3D00003E070020FE
:101DD0002B3D00003F060020383D0000400600205B
:101DE000413D000010B50E4B984705200D4B98471C
:101DF00000210D4B080098473C220C4B0C4C1A70EC
:101E00000C4902320C48DA73A0470C490C48A04731
:101E10000C490D48A04701220C4B1A7010BDC0465A
:101E20000D1B00003D130000D1050000FC05002043
:101E3000F1130000FF050020553D00005D06002065
:101E4000603D0000DE0600206F3D000045080020D8
:101E5000F8B51A4B98470021194B08009847194CC0
:101E600000252000184F03227C21184B0F30FD80E5
:101E70009847174B9847E37AFF2B04D1F73B6370E1
:101E8000144B1D70F8BD14491448154B9847E37A5C
:101E9000144E3033B37314497869144B98475D235B
:101EA000C73633701C3BE37011490D4B1148257048
:101EB00098470123074A3D821370E3E70D1B00009A
:101EC000D105000008000020600000206F2D0000F8
:101ED000B512000045080020FD0500208C3D0000E3
:101EE000F1130000FC050020600600208D130000A7
:101EF000DC060020993D000070B5494B9847494CDD
:101F0000862120000B2289232C300170E01CC2772F
:101F1000E01DC3772000293001700E20424E63710E
:101F2000A3771D3BE37233782270C01AE171E2732C
:101F3000C0B2083A6C393D4DA8472E2033780322B1
:101F4000C01AC0B21D21A8470220394B98473278E9
:101F5000A0207C23D20737D50D220321A8470222D7
:101F600011218020A847022213218720A84705229B
:101F700015218B20A8470022A3181900803108786A
:101F8000B03308742031097801321970102AF3D166
:101F90000025284B98472B000135E033E054202DD5
:101FA000F7D10025244BDE34DD80244B9847244BA9
:101FB000984724492448254B9847254B1B784133A3
:101FC0002370244B5D8270BD23540130C028FBD1A7
:101FD000032260214038A84703227021A020A8478F
:101FE000022263218420A84702227321A420A8474B
:101FF000022265218720A84702227521A720A84731
:10200000032267218A20A84703227721AA20A84714
:1020100002226A218D20A84702227A21AD20A9E759
:102020000D1B0000FC050020050700202113000007
:102030003D130000F512000060000020450C000078
:10204000550C0000CE060020AA3D0000F113000050
:102050004408002008000020F0B5284985B0CB7A5C
:10206000013BDBB2CB72042B15D90320244A584321
:102070005569CE7B234A9B0086541218087C507009
:10208000487C9070204A9D500A2300224B701F4BC1
:102090001A7005B0F0BD032058431A4D033840199B
:1020A00003901B481B4A4578067880781A4C844672
:1020B000002002900190039F97420FD1019A002ABD
:1020C00001D0134A1670029A002A01D0104A5570A6
:1020D0000028CAD060460E4A9070C6E790781678FD
:1020E000507184462068557860600120D670157163
:1020F000043C033A01900290DDE7C046080000204E
:102100006000002028070020080700204508002064
:10211000FC060020340700201807002070B5802539
:10212000054C6D00A561054B9847054805490430ED
:10213000054B9847656170BD0044004129030000CC
:1021400080370000FC05002099040000F7B5C64B5D
:102150009847C64BC54A5B88002701335380C44B60
:102160009847C44B9847C44BC4495A8A8A4247D1BE
:102170009D7A0F231D40BD4200D0C2E00027C04B16
:10218000C04C1878C049A047C04BC1491878A04737
:10219000C04BC1491878A047C04BC1491878A04727
:1021A0000F22B54DAB7A93432AD0BE4B03209847FC
:1021B000BD4B06001C783C22012C04D9BB4B1B787C
:1021C000002B00D1143AAB7A9B0601D401260640BD
:1021D0006B7A013BDBB26B72002B11D1A4000F2094
:1021E000B04B141B9847E4B22018C0B2012E00D99E
:1021F0000EE10121B1406872C9B27F20AC4B984713
:10220000AC4B9A4A1B78D2889B4C9B18974A608AA1
:10221000D3809A4B984210D0A74BC0B20621984762
:10222000A44B628A1B789B189BB26382FF2B04D954
:10223000A24B984701235B4263828C4BDB88DB43D4
:102240005B070BD1A3780133DBB2002B00D1E1E0B7
:10225000A3709B4BA57898478B4B58550121834B16
:102260001A1D5B880B40D17F5B18D3777F4B5B795E
:10227000002B21D003221020924BA021984713233A
:10228000A3228148C2540133202BFBD11F22A72651
:102290008D4B7D4D1B789908511AC9B28A4200DDD9
:1022A000BAE00322134001D05D3B43546F4B8020C2
:1022B00059880123194001D0002108007E4B98471E
:1022C0007D4D01210020A847684B02211E1DF07F93
:1022D0004008A847F07F03214008A847F07F042169
:1022E000A847F07F0521A847604B07219879A847A8
:1022F0005E4BDB88FF2B00D991E0002F00D097E0E8
:10230000F7BD5F49614B0A781B78644C934269D9E9
:10231000564B9B8B002B00D130E7013B53489BB2BF
:102320008383002B00D029E701320A705D4E022D15
:1023300022D0032D30D0012D13D12800B047430007
:1023400062480630C0183E23C75E2800B047C00070
:1023500041B210232A0038005D4DA8472378C018E9
:102360002070504B07209847032358433F4B5B8B0B
:10237000C0183E4B988301E70120B0474300534803
:102380000630C0183E23C55E0120B047C00041B2F0
:10239000202301222800DFE70120B0474B4B070034
:1023A00006330193019A4300D31801203E255D5F57
:1023B000B047C00041B2012210232800444DA84775
:1023C0002378C0187B425F41019B7F00DF1920709A
:1023D00001203E23FF5EB047C00041B2202301220E
:1023E0003800BAE72778002F00D0C7E6294A0F70D7
:1023F0001378013BDBB21370002B03D050231B4A30
:102400009383BCE6334B01271A78334B1A70B6E638
:102410001430EEE6E0231BE7AE54013A3EE7134AE0
:10242000013BFF3BD380638A144A934200D064E7A8
:10243000294A2A49137809785B182649DBB20978BA
:102440001370994200D95BE7002101231170194AEA
:1024500061821370154A1378581C10700A4A42336F
:10246000DE3213704CE7C0461D21000060000020E2
:10247000E90C00008114000008000020FFFF0000AC
:10248000040700208D130000FC05002048080020F0
:10249000010600202507002006060020E805002090
:1024A0001C06002045040000050700204408002009
:1024B000210A000041080020050600002911000043
:1024C000F5120000211300003D070020803C0000B1
:1024D0000D0B0000460800200207002042080020E3
:1024E00010B50648064CFF2221000430054B9847E2
:1024F000102220212000044B984710BD8037000097
:102500000C060020910300006F2D0000012210B581
:10251000044B00200533DA77034B98470020034B28
:10252000984710BD600000206108000041040000D1
:10253000F8B5414B06009847404B404A5B88013351
:102540009BB253809B0605D5002E03D13C493D48E4
:102550003D4B98473D4CA0473D4F3B4D39003D48D2
:10256000A8473D4B3D4918783D4B9847A047390057
:102570003C48A847314B39495869394B9847A047DF
:1025800039483900A847394B1878FF2802D0334919
:10259000334B9847A04739003548A847A047390032
:1025A0003448A847344B35481A7803235343DBB2E9
:1025B0001900478A3248103149B2874206D1042AAD
:1025C00004D87D22012E05D0113359B22522022EC6
:1025D00000D05832194B58882A4B00071AD55A5444
:1025E000A047002E1FD0A047022E15D1264927480C
:1025F000A847A047264B98470C22264B1B78134030
:10260000934206D1002E04D1234B0B3A1A70234B70
:102610009847F8BD0232E2E7084B5B881B07E8D514
:102620001F492048E4E7204F20483900A847A04729
:1026300039001F48DCE7C0468B080000600000201E
:1026400016060020B93D0000F1130000E12400004F
:102650000C060020C03D00000507002012060020E7
:102660008D130000C73D0000CE3D00003F07002055
:10267000D53D0000E63D0000440800200800002091
:10268000FFFF0000FC05002010060020F73D0000C1
:102690008908000003070020FF0600200D25000028
:1026A0000F060020013E0000110600200C3E000035
:1026B000183E0000F7B5B34B98476A460090127871
:1026C000B14B01271A7000239C461E001D00AF4A23
:1026D000AF4C1370AF4A1178AF4A12780192AF4AEB
:1026E0000098AA5C024258D0019810404FD016437F
:1026F000BC460135072DF2D16246A44D002A00D117
:1027000078E12E70002B01D0A24B19702A78D307E4
:1027100007D5637859B2002903DA902B40D1103BDA
:10272000637008210098084020D1D3060DD5637846
:102730000B420AD096279A4E7F0037820133994E7A
:10274000DBB230700D2B31D0637093060ED56378F9
:102750001A070BD50021934A013B11702D31904A85
:10276000FF31DBB21182072B22D063706378092B13
:1027700000D18CE048D8062B00D17AE01AD8052B7E
:1027800000D1A2E08022884B52009A61F7BD11422D
:10279000AFD0164301003B00AAE711433B00A8E776
:1027A0009023202163707E4B5980BAE76170CCE79B
:1027B0000C23DAE7072B4ED0082BE3D1794B1B789B
:1027C000002B01D1794B9847794B9847744C63881B
:1027D00001339BB26380DB0702D5E3880133E380DA
:1027E000E088744E4008C0B20521B047E088062159
:1027F0004008C0B2B047A0790721B0472B785B07EB
:10280000C0D56D4B9847BDE70C2B10D007D80A2BCD
:1028100053D00B2BB6D1664B9847684BF2E7802B11
:1028200025D0902BAED10020654B9847AAE75D4D8F
:102830002B78002B01D1634B9847634B9847E37E7D
:10284000002B9FD0013BDBB2E376002B9AD108220C
:102850002B70627096E75A4B01209847504B5B886B
:10286000782B00D08EE708336370584BCAE7584B7B
:10287000C8E7534B02209847494B5B88B42B00D0E4
:1028800080E70022AF3B6370464B1A707AE7484BF3
:102890009847504B98472B781B0700D472E7962235
:1028A0003F4B52001A820333DA7F0132D2B2032A3D
:1028B00001D0DA7766E70022FBE73A4B1B78002B62
:1028C00001D1454B98473A4B9CE7364B1B78002B80
:1028D00001D1424B9847424B9847424BE67B1A0046
:1028E0001800A732117822006030067018000F32ED
:1028F0005678613006709078294E62331870338AAA
:10290000002B0CD001339BB233825A2B01D1364BB2
:102910009847274B984773880133738032E7708854
:10292000237800072BD57C20D0542A78130708D5AC
:102930002378002B05D0581E207020007C250F30F6
:10294000C55453070AD5200023780F30C1540133F2
:10295000DBB22370032B01D1023B3382D30605D5B2
:10296000E3780133DBB25A2B40D8E3709306D0D51D
:10297000E378013BDBB2402B3AD9E370C9E7D1548D
:10298000D3E7C046C9030000030700203E0700202C
:1029900008000020FF060020E90500201C000020A0
:1029A000600000204508002000440041E51D0000B3
:1029B0001D21000005060000FD100000B11B0000F5
:1029C000312500004912000029030000F91E000013
:1029D0004D210000791C0000251B0000511E000045
:1029E0006D120000FC050020592000004123BCE7C7
:1029F0005A23C2E7002B00D086E62A7891E6C0462B
:102A000010B5074B581D0633C27FD2B2002AFBD146
:102A1000D97F1029F8D1DA77024B9847F1E7C04601
:102A200060000020B5260000F0B5012203254124F6
:102A3000422043212B005343094E0A4F9B19DE1EAF
:102A400034709E1E013B30701970074B9600534343
:102A5000DB19064F043E0132BB51082AEAD1F0BD12
:102A6000280700207C1500000CFEFFFF080700204F
:102A700010B5034B98470020024B984710BDC04645
:102A8000292A00002107000010B5044A0632D37F2E
:102A90000133DBB2D377024B984710BD60000020B2
:102AA000D503000070B5334B9847334B9847042348
:102AB000324C8025A360A361FD33FF33A360A36183
:102AC00080236D005B04A360A361A5602C4B65614E
:102AD00098472C4B984720212B4A2C48136A0B43CC
:102AE00013622B4A2B4B5A8000232B4A136010642D
:102AF0000220D063A02040015361106027480843A2
:102B0000A062A16093642649264A27480B604A6068
:102B1000026A1202120A026207228B600A60234ACA
:102B200011680D4315602249224A11800321224A6F
:102B3000117022490A78D2B20A70214A1370214AD0
:102B4000110013785BB2002BFBDB1F4B9A8892B20B
:102B50009A800A7852B2002AFBDB022219780A43D3
:102B60001A705C7EE409FCD1184B9847184B9847C3
:102B7000200070BDAD010000BD0100000044004117
:102B80008D080000C9070000000400407017000015
:102B900011400000000C00400014004200000355EA
:102BA00010E000E080BB000000ED00E020040040E9
:102BB00013400000020C00400120004202200042AD
:102BC000032000421920004200200042712A000028
:102BD000012A000002B4714649084900095C490015
:102BE0008E4402BC7047C04603B471464908400099
:102BF0004900095A49008E4403BC7047002243082B
:102C00008B4274D303098B425FD3030A8B4244D3B4
:102C1000030B8B4228D3030C8B420DD3FF220902F6
:102C200012BA030C8B4202D31212090265D0030BB5
:102C30008B4219D300E0090AC30B8B4201D3CB03AB
:102C4000C01A5241830B8B4201D38B03C01A5241ED
:102C5000430B8B4201D34B03C01A5241030B8B42EF
:102C600001D30B03C01A5241C30A8B4201D3CB02DA
:102C7000C01A5241830A8B4201D38B02C01A5241BF
:102C8000430A8B4201D34B02C01A5241030A8B42C2
:102C900001D30B02C01A5241CDD2C3098B4201D3DA
:102CA000CB01C01A524183098B4201D38B01C01A58
:102CB000524143098B4201D34B01C01A52410309CF
:102CC0008B4201D30B01C01A5241C3088B4201D37E
:102CD000CB00C01A524183088B4201D38B00C01A2B
:102CE000524143088B4201D34B00C01A5241411A52
:102CF00000D20146524110467047FFE701B500205F
:102D000000F006F802BDC0460029F7D076E770470C
:102D10007047C04670B500260C4D0D4C641BA410C6
:102D2000A64209D1002601F07DF80A4D0A4C641B29
:102D3000A410A64205D170BDB300EB5898470136E8
:102D4000EEE7B300EB5898470136F2E7303E00005B
:102D5000303E0000303E0000343E0000002310B53D
:102D60009A4200D110BDCC5CC4540133F8E7030093
:102D70008218934200D1704719700133F9E70000BF
:102D80002010C0E0F0F0F8F8FCFCFEFEFFFFFFFFB3
:102D9000FFFFFFFFFFFFFFFFFEFEFCFCF8F8F0F077
:102DA000E0C0070F1F1F1F1F1F1F1F1F1F3F3F7F59
:102DB000FFFFFFFF7F3F3F1F1F1F1F1F1F1F1F1F03
:102DC0000F070040606070504848646472727A7AFD
:102DD0007A7A7A7A7A7E7E7E7C7C7878707060608F
:102DE000400000030B0B0B0B0B080808081B1B3BD8
:102DF0007B7B7B6B2B1B1B080808080B0B0B0B0B3F
:102E00000300081080E0FCFEFEFCF880FFFFFFFFDF
:102E1000FFFFFFFF80E0BCEAFEFCF880FBFEFFFF47
:102E2000FFFFF7FF1010C0E0F8FCFEFEFEFEFEFE06
:102E3000FCF8F0E0C080FFFFFFFFFFFFFFFFFFFF98
:102E4000FFFFFFFFFFFFC0E0B8D4FAFEFEFEBEFAB0
:102E5000FCD8B0E0C080F7FEFFFFFFFFFFFFFFFFE1
:102E6000FFFFFFFFFEF7100801030307070F1F7F97
:102E7000FFFF3F1F0F030101FEFCFCF8F8F0E080AC
:102E80000000C0E0F0FCFEFE180801030307070F76
:102E90000F0F1F3F7FFFFFFFFFFFFF3F1F0F0703C6
:102EA0000101FEFCFCF8F8F0F0F0E0C0800000004A
:102EB000000000C0E0F0F8FCFEFE08080F7FFCFFF9
:102EC000FFFC7F0F070C70C6C6700C07080830782F
:102ED000FEFFFFFF7B31003068F6FD7931001008FE
:102EE000387C7C7C7E7EFFFFFFFF7E7E7C7C7C3896
:102EF000002828282420686C6E4E2C2C28282800B6
:102F00001010001C3E7F7F7FFEFCC0E0F0F0F0E080
:102F1000C0000000387CFEFEFF7F3F030707070369
:102F2000010000001C3A3E3E5C8000C0E0A0E0C012
:102F30000000000000387C7C5C3A000103030301C0
:102F400000001008183C7E7FFFFFFFFFFFFFFFFF20
:102F5000FFA581810018343C7E7E7E7E7E24240085
:102F600024000000101000C6DFFEFCF8F0F0FEF0B8
:102F7000E0F0784C4600010347FF7F3F1F1F3F7F73
:102F80003F1F0F1E1C200000461CB8B0C0C0F4C07C
:102F900060B00844000000010145311F0F051F3FCC
:102FA0000316060C10000FDFE32B12389C1C3BC0ED
:102FB000C49627733F1E7079FBFA64410C3072E3AC
:102FC000FB7158993F1E060BC12A00180C0C01001A
:102FD000C0920321311E6070D9CA4001082060C22E
:102FE000F3611890311E464701022440000C000096
:102FF0001232A889232670F2C294B44010080060EF
:1030000031029880F07846010002200000040000A0
:1030100000122088012270C28014A000100000401D
:103020002002108080700808067FFF7F7FFF7F06E8
:103030000006AF0000AF0600180878F8F8F8FFFFA8
:10304000FEFCF8F8F8FEFFFFFFFFFFFFFFFEFCFCB1
:10305000F87000707070707E7478707070707E7E22
:1030600072727272727478787000080800183C7E70
:103070007E3C18000000182C3418000010180000C6
:1030800000000000E0F8E000000000000000000088
:10309000C00CFCF0FFFFFFE0E0E81800008070705B
:1030A000F1FFFFFFFFFF7FFFFF7FFEEFE340000028
:1030B0000000000000D00000000000000000000040
:1030C000800430E080FFE080C060080000802020A5
:1030D000A052747DFF373F7DBF3E6C4240000040F0
:1030E000C0847CF8C0FEFEF07E8EF8FE0600001064
:1030F00071FF9EFFFFFFFFFCFCCFF73C0E02000CB0
:1031000038717F7FFF030703FFFF130804040040AB
:10311000800478C0007E8000700E80F806000010E9
:10312000619E0093E07CEFFCC008C7300C020008F1
:10313000300106770000030001FE03080004060FBB
:103140002333FFEE066783FBE26EE7C31F3E0002F8
:10315000331B73C61C7C00FFFF00780C86800004C4
:103160000C0000010600001801000000010106012A
:10317000211336E00227037B222026C3071E00020C
:10318000110932C4180000007F00380402800004D6
:1031900000000000020000080000000000003C7F6A
:1031A00067E3C0000408201041E1E7FFFE7C000750
:1031B0000F0C0840820400004020090F0E00181870
:1031C00000000000000000003030000006063C66F1
:1031D00043C18000040000100041C1E67C180007D4
:1031E0000C0800400200000000200008060010004B
:1031F0000000000000000000002000000004100893
:103200001800425A185A5A5AFFFFFFFFFF7E3C1817
:1032100018004218001842185A7E767E7A34180038
:103220004242185A5A5A187EFFFFFFFFFF7E3C1891
:1032300042000018421800247E6E7E7E5E2C18002C
:10324000FDFFFFFFFEFFFFFFFFFFFFFFFFFFFFFF91
:1032500000000000FFFFFFFF000000000000000072
:10326000000000000000000001000000000000005D
:103270000100000001000000020000000300000047
:10328000000000000000000000000000000000003E
:10329000000000000000E0F0F880000000000000E6
:1032A000000080E0F0E00000000080C0800000002E
:1032B00000000000000000C0F8FE3C00000000001C
:1032C000000000000000000000008000000080C03E
:1032D000C08000000000000080808000181818984E
:1032E000FCFEFF1D0C0C0C000000000000000000A4
:1032F00000000000000000000000000000000000CE
:1033000000000000000000000000000000000000BD
:103310000000000000001FFFFF1F3C70E0E0603075
:103320001C0E03FFFF0700000003C3C300000000E2
:103330000000C0E070188CFFFFC700000080E0783C
:10334000FCFC80C0F8FEFE00C07C0F00607FF9DD51
:10335000C7C1C060301806C3CFFFFF6030180E072A
:103360007FFFF3603010000000000000000000004C
:10337000000000000000000000000000000000004D
:10338000E0E0F0F0F0F0F0F0F0F0F0F0F0787878C5
:10339000787800000000003F7F400000000000003F
:1033A0000000003F1F00000C0603030F1F1C0C0C45
:1033B000079F9F9D8C878180818387878381000001
:1033C00001074FC7C0C10707010000E0E0E0E0E1EE
:1033D000E1E0E0E0F0F0F1F1F3F1F0F0C000000026
:1033E00000F8F8F8F838383838383C3C3C3C3CFCBD
:1033F000FCFCF800000000000000000000000000DD
:1034000011F1F0F0E0000000000000C0C0C0E0E0FA
:10341000E0E0C0000000041C1C1C1C1E1E1E1E1E22
:103420001E0E0E0E0EFEFFFEF000000000FFFFFF5E
:1034300087070707FFFFFF07030303FFFFFFFC00EA
:10344000000000FFFFFFFF00000000FFFFFFFF0084
:10345000000000000000000000FFFFFFFF00000070
:1034600000FFFFFFFF000000000000000000000759
:10347000FFFFFFF00000000000000000000000005F
:1034800000FFFFFFFF00000000000001010101FF3D
:10349000FFFFFF000000003CFEFEFE0E0E0E0E0EB3
:1034A0000E0E0F0F0787FFFFFF800000001FFFFFBA
:1034B000FF00000000FFFFFF00000001FFFFFFE032
:1034C00000000007FFFFFFF800000001FF7F7F7C86
:1034D000000000000000000000033F3F3F3E0000EE
:1034E00000001F1F1F1C1C1C1E1E1E1E1E1E9E8E4B
:1034F000BFFFFFFF80000000000000000000000090
:1035000000011F3F3F3F3C3C1C1C1C1C1C1C1E1E82
:103510001F1F1F8E8080C0C00F0F0F0F0F0FCFC750
:10352000C7070707070707070703000080F0737343
:10353000C30000000003010100E0F0F8F9B9B9018F
:10354000000000000030F8FCFCDCDC800000000023
:1035500000003EFEFE8000000000000030FCFECEB9
:103560008787878400000000010707070707070710
:103570000707070301000000000000000000000032
:10358000000000000000000000000000000000003B
:10359000003E7F7FE3E1E1E1C00000000000077F23
:1035A0007F707070700000000000303C3F0F060616
:1035B0000F3F3C1800000000041C1D1D1F0F0F07CB
:1035C0000000000000020E0E0E0F070300000000B6
:1035D0000000000707070000000000000000E121D4
:1035E00023232323E00000E0202020A020E000008F
:1035F000E02020202020E00000E02020202020E00B
:1036000000000000000000000000000000000000BA
:1036100000000000000000000000000000000000AA
:10362000000000000000000000000000000000009A
:10363000000000000000000000000000000000008A
:10364000000000000000000000000000000000007A
:103650000000000000000000000000000000F988E9
:1036600088888888CF0000FF808080BF80FF0000AE
:10367000F98888888888CF0000F98888888888CF6A
:10368000101112121314151516171818191A1A1BDF
:103690001B1C1C1D1D1E1E1E1F1F1F202020202046
:1036A0002020202020201F1F1F1E1E1E1D1D1C1C31
:1036B0001B1B1A1A191818171615151413121211A4
:1036C000100F0E0E0D0C0B0B0A0908080706060555
:1036D00005040403030202020101010000000000CE
:1036E00000000000000001010102020203030404C3
:1036F00005050606070808090A0B0B0C0D0E0E0F30
:103700001F000000110000001F000000000000006A
:103710001F000000000000001D0000001500000058
:103720001700000011000000150000001F0000003D
:1037300007000000040000001F0000001700000048
:10374000150000001D0000001F0000001500000013
:103750001D00000001000000010000001F0000002B
:103760001F000000150000001F00000007000000FF
:10377000050000001F0000000A000000000000001B
:1037800000000000FEFEFEFEFEFEFEFEFCFCFCFC59
:10379000FCFCFCFCF8F8F8F8F8F8F8F8130B050254
:1037A00000000103010004000101011202020404EF
:1037B00004480808889090B0B0989898584C2C26E7
:1037C000161303070703060A02021404444C4C2C88
:1037D0002616130B09050404020000000000000077
:1037E000020000000901020616121212131313132D
:1037F000130B090909090504040404020202020169
:10380000010101000000020000000400000080C06F
:10381000E0C08080C0808080000000008080C0C048
:10382000603070783030A02040408080808080C040
:10383000C0C0C0C060606060303030B098584C4C40
:103840000C0E0E0C082808080850101020204040CC
:103850004040808000004050B82C7CFEFEF77FFF87
:10386000FFFFFFFFFEFEFCFCF8F0C00000010015AA
:103870000249120A0A241515090A230B8B0B230A85
:10388000230B230B0000000000000000000000DEFE
:10389000DEDE0000001E1E00001E1E00006CFEFE8C
:1038A0006CFEFE6C00485C54FE5474243072BCB054
:1038B000FC30FC320060F49EBA6EE4A03070BCB202
:1038C000F832FC300000007CFEC68200000082C698
:1038D000FE7C000010547C38387C54100018187E90
:1038E0007E181800000080E0E06000000018181842
:1038F00018181800000000E0E0E0000000C0603090
:10390000180C0400007CFEFEFE82FE7C00000CFC15
:10391000FEFEFE0000C4E6F2DEDEDECC0044D692FF
:10392000FEFEFE7C003E3E303EFEFE30005EDEDAF5
:10393000DADAFA72007CFE8AFAFAFA72000202F20D
:10394000FAFE0E06006CFE92FEFEFE6C001CBEA28D
:10395000FEFEFE7C0000006C6C6C0000000080EC41
:10396000EC6C0000000010387CFE0000006C6C6CF9
:103970006C6C6C000000FE7C38100000000C06D25D
:10398000DADE0E04007CFEC6BAAAB6BC00FCFE124B
:10399000FEFEFEFC00FEFEFEFE92FE6C007CFEFEC5
:1039A000FE82C64400FEFEFEFE82FE7C00FEFEFE9F
:1039B000FE92928200FEFEFEFE121202007CFEFECD
:1039C000FE82A6E400FEFE10FEFEFEFE0082FEFE6B
:1039D000FEFE82000040C282FEFE7E0200FEFEFE6F
:1039E000FE38EEC600FEFEFEFE80808000FEFE1E5B
:1039F000FC1EFEFE00FEFEFE1C38FEFE007CFE826B
:103A0000FEFEFE7C00FEFEFEFE223E1C007CFEA2B0
:103A1000FEFEFE7C00FEFEFEFE22FEDC004CDE9E74
:103A2000FEF2F664000202FEFEFE0202007EFE804E
:103A3000FEFEFE7E003E7EE0FEFE7E3E007EFEE05E
:103A40007CE0FE7E00C6EE7C387CEEC6000E1EFEDC
:103A5000F8FE1E0E00E2F2FAFEBE9E8E000000008E
:103A600000000000000000000000000000203038CE
:103A70003C38302000103070F0703010003078FC8E
:103A8000FC783000000000FC00C0E0A0FCB8B8FFEB
:103A9000B0A0F4BAA1A1A1A5AEB4E0C0181434FF3F
:103AA0001ED6161E1F17171E1EFEFF3C0080E0D0FC
:103AB000D8FCDED0F0E080E0C0FFC0800000FC0059
:103AC0000000387456DE76D65C7C38000090F090AA
:103AD00000000000C00000FE58585F7A5E5A5E7E0B
:103AE0007F7FE0C00000060F0F0600000000007F8F
:103AF0007F4040404040407F7F4040404040407FCA
:103B00007F00000080C0209F505152520E000000E4
:103B1000000000000000081C141623C18080FE0174
:103B2000FC030000000000000003FFFCC122178A14
:103B300043221302834223333A3F77E3C0201F908E
:103B4000482828080C0704070C08080818103FE04C
:103B5000C0808080FFF01009C5231008000000001D
:103B60000C1EF3E18080808080808080187E181E8B
:103B7000DA1A7C1840404060604040400CCF0C0F87
:103B80003D0DCE0C000000000000008040800000D1
:103B900000000000000000000080E050A0C0800095
:103BA00080000000000000E03816682850608000A7
:103BB0000000000000000200000000000000000003
:103BC0000000807028D0E0C08000000000000008E5
:103BD00000000000000002002000000000000000C3
:103BE00000008040A0303816412204087080008018
:103BF0008040A0408040B00828174A3C9A34386082
:103C0000C000804001050A1C9A22110000050A0F1D
:103C10001408105028940A25010D020805010327F5
:103C2000060D0E081E451A0D100A000000011207AD
:103C3000850A0408105028940A25111E287050D0B7
:103C40002C824301040240010B163C7050D0289492
:103C5000442201020A14387050880408281444349D
:103C60000A2502098400010000080000000001008C
:103C7000020184032303040201000000000000018C
:103C8000820706097F4936003E413E004649310021
:103C900046493100080808492A1C080000000000B5
:103CA000000000000000000000007F000000000095
:103CB0007F007F0000007F007F007F007F007F008B
:103CC0007F007F00F0FF8000204558545241204C77
:103CD00049464521202000544F502053434F524520
:103CE00053004F5054494F4E5300422B00444F57FE
:103CF0004E3D434C522053434F5245530055503D87
:103D0000494E56455254004C4546543D524F54413D
:103D1000544500413D534C454550004D454E553DA1
:103D200057414B4520534C4545500042203D2053C0
:103D300045542054494D45005D5E20484F5552532F
:103D4000004D494E55544553205D5E0042203D20B4
:103D50004E455854004D4F4F4E20464F524345005C
:103D600041203D2053544152542047414D45004D80
:103D7000474320323032322020202047414D452019
:103D800042592042454E204845434B004849474848
:103D90002053434F5245202300423D52554220209C
:103DA0002020413D454E54455200434845434B5029
:103DB0004F494E5420283029005041555345440066
:103DC00053544147453A0053434F52453A004C49FA
:103DD0005645533A004120204220204320204420D1
:103DE0002045202046006D7E7E6E7E7E6E7E7E6E3D
:103DF0007E7E6E7E7E6F0047414D45204F56455278
:103E0000004745542020524541445900422B41204F
:103E10003D20534C454550004D454E55203D2057C3
:103E2000414B4500F8B5C046F8BC08BC9E467047FB
:103E3000B5000000F8B5C046F8BC08BC9E46704707
:043E40008D000000F1
:103E440040420F0000080042330CF41080E3E4E524
:103E5400010AFF0101061E414243FFFF804020107A
:0C3E6400010804640000FFFFFFFF0000E5
:00000001FF
