S015000067616D6542616467652041524D2E73726563A2
S113000028090020F1000000ED000000ED000000D0
S113001000000000000000000000000000000000DC
S1130020000000000000000000000000ED000000DF
S11300300000000000000000ED000000A505000025
S1130040ED000000ED000000ED000000ED000000F8
S1130050ED000000ED000000ED000000ED000000E8
S1130060ED000000ED000000ED00000000000000C5
S1130070ED000000ED000000ED000000ED000000C8
S1130080ED000000ED000000ED00000010B5064C8E
S11300902378002B07D1054B002B02D0044800E045
S11300A000BF0123237010BD3000002000000000B9
S11300B034160000084B10B5002B03D0074908483C
S11300C000E000BF07480368002B00D110BD064BB9
S11300D0002BFBD09847F9E7000000003400002013
S11300E0341600003416000000000000FEE7000093
S11300F02148224970B5884204D00023204CCA18F4
S1130100A24232D300211F4B1F4A934231D3FF2115
S11301101E4B1F4A8B43936002220C250824302671
S11301201C4B1D485A62C378FC398B431343C3707C
S1130130C378AB432343C370184B987BB04306008A
S1130140202030439873987BA84304439C73987B86
S1130150884302439A738023114A51680B435360C6
S1130160104B9847104B9847FEE7C5580433156069
S1130170C5E702C3C9E7C0463416000000000020EA
S11301802800002030000020240800200000000087
S113019000ED00E0FC7000410050004100480041C7
S11301A00040004171060000B5050000014A024B01
S11301B01A60704740420F000000002030B5254B04
S11301C025491A6A25480A4080211A621A6A8A4314
S11301D01A62426862398A43110002220A43426069
S11301E01F49204A9160204951605178C909FCD1C6
S11301F082218020C9015180998C81439984D968D6
S1130200C906FCD5812189009984D968C906FCD521
S1130210164908681649850E0968AD028C05A40DB7
S11302202C4389059C62C90D124C0904C00E21435C
S1130230800608430221D862988C01439984D968C6
S11302404906FCD5002393600B4B53605378DB09BC
S1130250FCD130BD00080040FFFCFFFF004000411E
S113026001FA0000000C0040010603002460800035
S113027028608000DC050000000703002022F8B598
S1130280184B194C596900250A435A611022D9693F
S113029002271143D961154B15495C6399631549CC
S11302A0198019003F310D704E78BE434E700126FF
S11302B04E701969B14319610F49596407214D33CF
S11302C019700E4B0E491B68CD6028338B600D4BA3
S11302D04B800D4B0B80013BC01848600B4B20003A
S11302E09847F8BD00040040A000002000480041E9
S11302F010010020020F0000000280000400002012
S113030090000020FF03000001040000B906000073
S1130310054B00211A003F32117002224033197834
S11303200A431A707047C04600480041802210B545
S1130330064B52005A619A61054B1878054B984751
S1130340054B1870054B984710BDC046004400414A
S1130350E2010020F9040000E4050020110300007C
S1130360014B18787047C046E405002030B58A1860
S1130370054B92B2914200D130BD05784C1C5D54BE
S11303800130A1B2F6E7C046E201002070B50425B1
S1130390024C034B65619847A56170BD0044004160
S11303A0F904000070B50B4CFF280DD1E37A5A42D2
S11303B05341E372E37A084D002B07D0A020A847ED
S11303C0C020A847E07A70BDE072F3E7A120A847F7
S11303D0C820F6E74C0000208D03000010B5084B40
S11303E0FF280BD11A7B51424A411A731A7BA7206A
S11303F0044B002A00D1A620984710BD1873F5E7D6
S11304004C0000208D03000080221E4B920070B52A
S1130410AE205A611C4C9A61A047D520A047802089
S1130420A047A820A0473F20A047D320A0470020F2
S1130430A0474020A0478D20A0471420A04720209B
S1130440A0470020A047114D114BE87A9847DA20C5
S1130450A0471220A0478120A0478F20A047D92081
S1130460A047F120A047DB20A0474020A047A420BC
S1130470A047287B074B9847AF20A0470648074B67
S1130480984770BD004400418D0300004C000020DB
S1130490A5030000DD030000E20100207D0200004E
S11304A004230E4A116A0B4313620D4B0D4A5A8002
S11304B05A78D209FCD10C4B0C4A0D491A6080229F
S11304C092025A6002220B481A73886219680A431E
S11304D01A60DA699207FCD47047C04600040040F1
S11304E0000C00400E400000000800420C002000F8
S11304F00044004110C00152054B1A00197EC9077F
S1130500FCD59862137E5B07FCD5906AC0B2704735
S113051000080042802210B5D200044B0021044898
S113052098474022034B1A7010BDC0466D0300006B
S1130530CC0600000800002010B50C4B98470022A0
S11305400B4B802418700B4B0B491A700123073294
S11305506404034208D08C615B00013ADBB2002AD8
S1130560F7D1064B984710BD4C61F5E761030000D5
S1130570030700200B070020004400412D03000066
S113058010B5064A1378DBB2002BFBD15178102941
S1130590F8D15370024B9847F3E7C0465C00002043
S11305A039050000024A53780133DBB253707047B7
S11305B05C00002070B51F4B98471F4B98470423DD
S11305C01E4C0025A360A361FD33FF33A360A36128
S11305D0013BFF3BA360A36180235B04A3606361D1
S11305E0174B9847174B9847202217490B6A134318
S11305F00B621649164B59800121164B1D60196474
S11306004918D9635D611960134B14491A43A262F6
S1130610134B144A156053600B6A1B021B0A0B62CE
S1130620072395601360104B9847104B9847280098
S113063070BDC046AD010000BD0100000044004192
S1130640A10400000904000000040040114000005F
S1130650000C0040001400420000035500ED00E0CF
S113066080BB000010E000E01505000081050000DB
S113067070B500260C4D0D4C641BA410A64209D184
S1130680002600F0C7FF0A4D0A4C641BA410A642C2
S113069005D170BDB300EB5898470136EEE7B300BF
S11306A0EB5898470136F2E72016000020160000A8
S11306B02016000024160000002310B59A4200D131
S11306C010BDCC5CC4540133F8E700000000000006
S11306D00000000000000000000000000000000016
S11306E00000E0F0F880000000000000000080E05E
S11306F0F0E00000000080C0800000000000000066
S1130700000000C0F8FE3C000000000000000000F3
S11307100000000000008000000080C0C0800000D5
S1130720000000008080800018181898FCFEFF1D4F
S11307300C0C0C0000000000000000000000000091
S113074000000000000000000000000000000000A5
S11307500000000000000000000000000000000095
S113076000001FFFFF1F3C70E0E060301C0E03FF21
S1130770FF0700000003C3C3000000000000C0E046
S113078070188CFFFFC700000080E078FCFC80C07C
S1130790F8FEFE00C07C0F00607FF9DDC7C1C060B9
S11307A0301806C3CFFFFF6030180E077FFFF360D9
S11307B030100000000000000000000000000000F5
S11307C0000000000000000000000000E0E0F0F085
S11307D0F0F0F0F0F0F0F0F0F0787878787800004D
S11307E00000003F7F400000000000000000003FC8
S11307F01F00000C0603030F1F1C0C0C079F9F9D7A
S11308008C878180818387878381000001074FC79C
S1130810C0C10707010000E0E0E0E0E1E1E0E0E062
S1130820F0F0F1F1F3F1F0F0C000000000F8F8F896
S1130830F838383838383C3C3C3C3CFCFCFCF8008C
S113084000000000000000000000000011F1F0F0C2
S1130850E0000000000000C0C0C0E0E0E0E0C00034
S11308600000041C1C1C1C1E1E1E1E1E1E0E0E0E32
S11308700EFEFFFEF000000000FFFFFF87070707E2
S1130880FFFFFF07030303FFFFFFFC00000000FF5F
S1130890FFFFFF00000000FFFFFFFF00000000005B
S11308A00000000000FFFFFFFF00000000FFFFFF4B
S11308B0FF0000000000000000000007FFFFFFF041
S11308C000000000000000000000000000FFFFFF27
S11308D0FF00000000000001010101FFFFFFFF0015
S11308E00000003CFEFEFE0E0E0E0E0E0E0E0F0F4E
S11308F00787FFFFFF800000001FFFFFFF000000CD
S113090000FFFFFF00000001FFFFFFE00000000701
S1130910FFFFFFF800000001FF7F7F7C0000000064
S11309200000000000033F3F3F3E000000001F1F87
S11309301F1C1C1C1E1E1E1E1E1E9E8EBFFFFFFFA4
S113094080000000000000000000000000011F3FC4
S11309503F3F3C3C1C1C1C1C1C1C1E1E1F1F1F8ECE
S11309608080C0C00F0F0F0F0F0FCFC7C707070737
S1130970070707070703000080F07373C300000034
S11309800003010100E0F0F8F9B9B901000000002A
S11309900030F8FCFCDCDC800000000000003EFEBF
S11309A0FE8000000000000030FCFECE87878784B4
S11309B000000000010707070707070707070703E9
S11309C00100000000000000000000000000000022
S11309D0000000000000000000000000003E7F7FD7
S11309E0E3E1E1E1C00000000000077F7F70707068
S11309F0700000000000303C3F0F06060F3F3C181B
S1130A0000000000041C1D1D1F0F0F070000000044
S1130A1000020E0E0E0F0703000000000000000786
S1130A2007070000000000000000E1212323232326
S1130A30E00000E0202020A020E00000E0202020B2
S1130A402020E00000E02020202020E00000000022
S1130A500000000000000000000000000000000092
S1130A600000000000000000000000000000000082
S1130A700000000000000000000000000000000072
S1130A800000000000000000000000000000000062
S1130A900000000000000000000000000000000052
S1130AA000000000000000000000F98888888888A1
S1130AB0CF0000FF808080BF80FF0000F988888815
S1130AC08888CF0000F98888888888CF2010C0E003
S1130AD0F0F0F8F8FCFCFEFEFFFFFFFFFFFFFFFF56
S1130AE0FFFFFFFFFEFEFCFCF8F8F0F0E0C0070F8C
S1130AF01F1F1F1F1F1F1F1F1F3F3F7FFFFFFFFFE2
S1130B007F3F3F1F1F1F1F1F1F1F1F1F0F07004077
S1130B10606070504848646472727A7A7A7A7A7A39
S1130B207A7E7E7E7C7C7878707060604000000302
S1130B300B0B0B0B0B080808081B1B3B7B7B7B6B0D
S1130B402B1B1B080808080B0B0B0B0B03000810CE
S1130B5080E0FCFEFEFCF880FFFFFFFFFFFFFFFFCD
S1130B6080E0BCEAFEFCF880FBFEFFFFFFFFF7FF1E
S1130B701010C0E0F8FCFEFEFEFEFEFEFCF8F0E005
S1130B80C080FFFFFFFFFFFFFFFFFFFFFFFFFFFF2F
S1130B90FFFFC0E0B8D4FAFEFEFEBEFAFCD8B0E017
S1130BA0C080F7FEFFFFFFFFFFFFFFFFFFFFFFFF18
S1130BB0FEF7100801030307070F1F7FFFFF3F1F06
S1130BC00F030101FEFCFCF8F8F0E0800000C0E037
S1130BD0F0FCFEFE180801030307070F0F0F1F3F69
S1130BE07FFFFFFFFFFFFF3F1F0F07030101FEFC15
S1130BF0FCF8F8F0F0F0E0C080000000000000C055
S1130C00E0F0F8FCFEFE08080F7FFCFFFFFC7F0FFE
S1130C10070C70C6C6700C0708083078FEFFFFFF8B
S1130C207B31003068F6FD7931001008387C7C7C1B
S1130C307E7EFFFFFFFF7E7E7C7C7C380028282898
S1130C402420686C6E4E2C2C282828001010001CC0
S1130C503E7F7F7FFEFCC0E0F0F0F0E0C0000000CB
S1130C60387CFEFEFF7F3F030707070301000000F7
S1130C701C3A3E3E5C8000C0E0A0E0C000000000E2
S1130C8000387C7C5C3A0001030303010000100877
S1130C90183C7E7FFFFFFFFFFFFFFFFFFFA5818161
S1130CA00018343C7E7E7E7E7E24240024000000D6
S1130CB0101000C6DFFEFCF8F0F0FEF0E0F0784C17
S1130CC04600010347FF7F3F1F1F3F7F3F1F0F1E4B
S1130CD01C200000461CB8B0C0C0F4C060B008447A
S1130CE0000000010145311F0F051F3F0316060CCC
S1130CF010000FDFE32B12389C1C3BC0C4962773F3
S1130D003F1E7079FBFA64410C3072E3FB71589911
S1130D103F1E060BC12A00180C0C0100C0920321CF
S1130D20311E6070D9CA4001082060C2F361189076
S1130D30311E464701022440000C00001232A889EB
S1130D40232670F2C294B4401008006031029880E7
S1130D50F078460100022000000400000012208800
S1130D60012270C28014A0001000004020021080F4
S1130D7080700808067FFF7F7FFF7F060006AF00B4
S1130D8000AF0600180878F8F8F8FFFFFEFCF8F842
S1130D90F8FEFFFFFFFFFFFFFFFEFCFCF870007092
S1130DA07070707E7478707070707E7E7272727201
S1130DB0727478787000080800183C7E7E3C180035
S1130DC00000182C34180000101800000000000067
S1130DD0E0F8E0000000000000000000C00CFCF09F
S1130DE0FFFFFFE0E0E8180000807070F1FFFFFFF4
S1130DF0FFFF7FFFFF7FFEEFE340000000000000E5
S1130E0000D000000000000000000000800430E07A
S1130E1080FFE080C060080000802020A052747D24
S1130E20FF373F7DBF3E6C4240000040C0847CF8E9
S1130E30C0FEFEF07E8EF8FE0600001071FF9EFFDD
S1130E40FFFFFFFCFCCFF73C0E02000C38717F7FE4
S1130E50FF030703FFFF130804040040800478C065
S1130E60007E8000700E80F806000010619E0093E2
S1130E70E07CEFFCC008C7300C02000830010677A4
S1130E800000030001FE03080004060F2333FFEEF5
S1130E90066783FBE26EE7C31F3E0002331B73C683
S1130EA01C7C00FFFF00780C868000040C0000010D
S1130EB0060000180100000001010601211336E0BC
S1130EC00227037B222026C3071E0002110932C415
S1130ED0180000007F0038040280000400000000B5
S1130EE0020000080000000000003C7F67E3C0002F
S1130EF00408201041E1E7FFFE7C00070F0C0840C6
S1130F00820400004020090F0E00181800000000A1
S1130F10000000003030000006063C6643C180003B
S1130F20040000100041C1E67C1800070C080040D2
S1130F30020000000020000806001000000000006D
S1130F400000000000200000000410081800425AAD
S1130F50185A5A5AFFFFFFFFFF7E3C181800421828
S1130F60001842185A7E767E7A3418004242185A83
S1130F705A5A187EFFFFFFFFFF7E3C1842000018FC
S1130F80421800247E6E7E7E5E2C1800FDFFFFFF5B
S1130F90FEFFFFFFFFFFFFFFFFFFFFFF000000005A
S1130FA0FFFFFFFF00000000000000000000000041
S1130FB0000000000100000000000000010000002B
S1130FC001000000020000000300000010111212D2
S1130FD01314151516171818191A1A1B1B1C1C1D87
S1130FE01D1E1E1E1F1F1F20202020202020202009
S1130FF020201F1F1F1E1E1E1D1D1C1C1B1B1A1A1A
S1131000191818171615151413121211100F0E0EA5
S11310100D0C0B0B0A090808070606050504040352
S113102003020202010101000000000000000000B0
S1131030000001010102020203030404050506067F
S1131040070808090A0B0B0C0D0E0E0F1F000000F9
S1131050110000001F000000000000001F0000003D
S1131060000000001D000000150000001700000033
S113107011000000150000001F0000000700000020
S1131080040000001F00000017000000150000000D
S11310901D0000001F000000150000001D000000DE
S11310A001000000010000001F0000001F000000FC
S11310B0150000001F0000000700000005000000EC
S11310C01F0000000A0000000000000000000000F3
S11310D0FEFEFEFEFEFEFEFEFCFCFCFCFCFCFCFC3C
S11310E0F8F8F8F8F8F8F8F8130B05020000010313
S11310F0010004000101011202020404044808086A
S1131100889090B0B0989898584C2C2616130307E2
S11311100703060A02021404444C4C2C2616130B33
S113112009050404020000000000000002000000A1
S1131130090102061612121213131313130B0909D1
S11311400909050404040402020202010101010068
S11311500000020000000400000080C0E0C08080A5
S1131160C0808080000000008080C0C06030707843
S11311703030A02040408080808080C0C0C0C0C08B
S113118060606060303030B098584C4C0C0E0E0CDF
S11311900828080808501010202040404040808053
S11311A000004050B82C7CFEFEF77FFFFFFFFFFFDE
S11311B0FEFEFCFCF8F0C000000100150249120A12
S11311C00A241515090A230B8B0B230A230B230B63
S11311D00000000000000000000000DEDEDE000071
S11311E0001E1E00001E1E00006CFEFE6CFEFE6C47
S11311F000485C54FE5474243072BCB0FC30FC32A1
S11312000060F49EBA6EE4A03070BCB2F832FC30D8
S11312100000007CFEC68200000082C6FE7C000046
S113122010547C38387C54100018187E7E1818002E
S1131230000080E0E060000000181818181818007A
S1131240000000E0E0E0000000C06030180C040082
S1131250007CFEFEFE82FE7C00000CFCFEFEFE0016
S113126000C4E6F2DEDEDECC0044D692FEFEFE7C56
S1131270003E3E303EFEFE30005EDEDADADAFA721E
S1131280007CFE8AFAFAFA72000202F2FAFE0E06F4
S1131290006CFE92FEFEFE6C001CBEA2FEFEFE7CF6
S11312A00000006C6C6C0000000080ECEC6C000032
S11312B0000010387CFE0000006C6C6C6C6C6C00E0
S11312C00000FE7C38100000000C06D2DADE0E04AA
S11312D0007CFEC6BAAAB6BC00FCFE12FEFEFEFCF2
S11312E000FEFEFEFE92FE6C007CFEFEFE82C64404
S11312F000FEFEFEFE82FE7C00FEFEFEFE92928258
S113130000FEFEFEFE121202007CFEFEFE82A6E439
S113131000FEFE10FEFEFEFE0082FEFEFEFE8200C9
S11313200040C282FEFE7E0200FEFEFEFE38EEC6D5
S113133000FEFEFEFE80808000FEFE1EFC1EFEFE01
S113134000FEFEFE1C38FEFE007CFE82FEFEFE7CDD
S113135000FEFEFEFE223E1C007CFEA2FEFEFE7C83
S113136000FEFEFEFE22FEDC004CDE9EFEF2F66473
S1131370000202FEFEFE0202007EFE80FEFEFE7EF3
S1131380003E7EE0FEFE7E3E007EFEE07CE0FE7ED1
S113139000C6EE7C387CEEC6000E1EFEF8FE1E0E65
S11313A000E2F2FAFEBE9E8E000000000000000083
S11313B00000000000000000002030383C383020DD
S11313C000103070F0703010003078FCFC78300081
S11313D0000000FC00C0E0A0FCB8B8FFB0A0F4BA64
S11313E0A1A1A1A5AEB4E0C0181434FF1ED6161EE8
S11313F01F17171E1EFEFF3C0080E0D0D8FCDED075
S1131400F0E080E0C0FFC0800000FC000000387401
S113141056DE76D65C7C38000090F0900000000028
S1131420C00000FE58585F7A5E5A5E7E7F7FE0C03F
S11314300000060F0F0600000000007F7F404040C0
S11314404040407F7F4040404040407F7F0000005C
S113145080C0209F505152520E0000000000000036
S11314600000081C141623C18080FE01FC03000048
S1131470000000000003FFFCC122178A432213026C
S1131480834223333A3F77E3C0201F90482828083B
S11314900C0704070C08080818103FE0C08080807F
S11314A0FFF01009C5231008000000000C1EF3E132
S11314B08080808080808080187E181EDA1A7C18D4
S11314C040404060604040400CCF0C0F3D0DCE0CBE
S11314D000000000000000804080000000000000C8
S11314E0000000000080E050A0C0800080000000E8
S11314F0000000E0381668285060800000000000FA
S113150000000200000000000000000000008070E5
S113151028D0E0C0800000000000000800000000A7
S113152000000200200000000000000000008040D5
S1131530A030381641220408708000808040A0400A
S11315408040B00828174A3C9A343860C000804074
S113155001050A1C9A22110000050A0F14081050F4
S113156028940A25010D020805010327060D0E081B
S11315701E451A0D100A000000011207850A04080E
S1131580105028940A25111E287050D02C82430133
S1131590040240010B163C7050D0289444220102EE
S11315A00A14387050880408281444340A2502099F
S11315B0840001000008000000000100020184030F
S11315C02303040201000000000000018207060951
S11315D07F4936003E413E004649310046493100CC
S11315E0080808492A1C0800000000000000000048
S11315F00000000000007F00000000007F007F006A
S113160000007F007F007F007F007F007F007F005D
S1131610F0FF8000F8B5C046F8BC08BC9E46704791
S1131620B5000000F8B5C046F8BC08BC9E4670473B
S10716308D00000025
S113163440420F000008004210330CF480E3E4E558
S1131644010AFF0101061E00FFFF4142436400003A
S10B1654FFFFFFFF000000008E
S9030000FC
