S00E00005465737465722E737265639F
S113000078080020F1000000ED000000ED00000081
S113001000000000000000000000000000000000DC
S1130020000000000000000000000000ED000000DF
S11300300000000000000000ED000000ED000000E2
S1130040ED000000ED000000ED000000ED000000F8
S1130050ED000000ED000000ED000000ED000000E8
S1130060ED000000ED000000ED00000000000000C5
S1130070ED000000ED000000ED000000ED000000C8
S1130080ED000000ED000000ED00000010B5064C8E
S11300902378002B07D1054B002B02D0044800E045
S11300A000BF0123237010BD3404002000000000B1
S11300B09C040000084B10B5002B03D007490848E6
S11300C000E000BF07480368002B00D110BD064BB9
S11300D0002BFBD09847F9E700000000380400200B
S11300E09C0400009C04000000000000FEE70000E7
S11300F02148224970B5884204D00023204CCA18F4
S1130100A24232D300211F4B1F4A934231D3FF2115
S11301101E4B1F4A8B43936002220C250824302671
S11301201C4B1D485A62C378FC398B431343C3707C
S1130130C378AB432343C370184B987BB04306008A
S1130140202030439873987BA84304439C73987B86
S1130150884302439A738023114A51680B435360C6
S1130160104B9847104B9847FEE7C5580433156069
S1130170C5E702C3C9E7C0469C0400000000002094
S11301803404002034040020740400200000000023
S113019000ED00E0FC7000410050004100480041C7
S11301A000400041D50200007D020000014A024BDC
S11301B01A60704740420F000000002030B5254B04
S11301C025491A6A25480A4080211A621A6A8A4314
S11301D01A62426862398A43110002220A43426069
S11301E01F49204A9160204951605178C909FCD1C6
S11301F082218020C9015180998C81439984D968D6
S1130200C906FCD5812189009984D968C906FCD521
S1130210164908681649850E0968AD028C05A40DB7
S11302202C4389059C62C90D124C0904C00E21435C
S1130230800608430221D862988C01439984D968C6
S11302404906FCD5002393600B4B53605378DB09BC
S1130250FCD130BD00080040FFFCFFFF004000411E
S113026001FA0000000C0040010603002460800035
S113027028608000DC0500000007030010B50D4B6A
S113028098470D4B984720220C4902200B6A002402
S113029013430B620A490B4B598001210A4B1C6022
S11302A01964D8635C611860084802430848826294
S11302B09964FEE7AD010000BD01000000040040A8
S11302C011400000000C00400014004200000355DF
S11302D00044004170B50D4E0D4D0024AD1BAD1012
S11302E005D0A300F35801349847A542F9D100F092
S11302F0C3F8084E084D0024AD1BAD1005D0A30073
S1130300F35801349847A542F9D170BD8404000024
S113031084040000840400008C040000034B10B526
S1130320002B02D0024800F005F810BD00000000C8
S11303304503000010B5010000230022002000F056
S11303401FF810BD70B5094B094CE41AA41009D06C
S1130350084AA518AD00ED182B68013C9847043DE8
S1130360002CF9D100F092F870BDC046980400004A
S11303709C040000FFFFFF3F7047C0467047C04623
S1130380F0B54E464546DE465746E0B5364D83B099
S11303900600286898460F009146FFF7EDFF334B9F
S11303A01C68A4235B00E058002852D043681F2B2C
S11303B013DC5A1C0192002E28D1019A02339B00AF
S11303C042601F502868FFF7D9FF002003B03CBCEF
S11303D090469946A246AB46F0BD254B002B3DD036
S11303E0C820400000E000BF002837D0A42200232A
S11303F05200A15843600160A0504032835004323F
S11304008350013301930023002ED6D09A009246E4
S113041082444A46882154466250C422520091467E
S113042081444A468739994012688B460A43944668
S11304304A4661461160842241465200A150022E70
S1130440BBD102005C468D32FF3211680C4314604C
S1130450B3E720004D30FF30E050A7E72868FFF7EE
S11304608DFF01204042B1E73004002074040000F5
S11304700000000008000020F8B5C046F8BC08BC25
S11304809E4670471D030000B5000000F8B5C04645
S10F0490F8BC08BC9E4670478D000000BC
S113049C40420F000000000000000000F4020020A5
S11304AC5C030020C40300200000000000000000D6
S11304BC000000000000000000000000000000002C
S11304CC000000000000000000000000000000001C
S11304DC000000000000000000000000000000000C
S11304EC00000000000000000000000000000000FC
S11304FC00000000000000000000000000000000EC
S113050C00000000000000000000000000000000DB
S113051C00000000000000000000000000000000CB
S113052C00000000000000000000000000000000BB
S113053C00000000000000000000000000000000AB
S113054C01000000000000000E33CDAB34126DE648
S113055CECDE05000B0000000000000000000000B1
S113056C000000000000000000000000000000007B
S113057C000000000000000000000000000000006B
S113058C000000000000000000000000000000005B
S113059C000000000000000000000000000000004B
S10708CC50040020B0
S9030000FC
