:100000000C9492020C94AF020C94AF020C940C0866
:100010000C94AF020C94AF020C94AF020C943A080B
:100020000C94AF020C94AF020C94AF020C94AF028C
:100030000C94AF020C94E0070C94AF020C94AF0246
:100040000C94AF020C94AF020C94AF020C94AF026C
:100050000C94AF020C94AF020C94AF020C94AF025C
:100060000C94AF020C94AF020C94AF020C94AF024C
:100070000C94AF020C94AF020C94AF0200404040CD
:10008000587C7C7E7E7A767C787A7C787E7F7F7FD7
:100090007F7D633E00400040004040404060607013
:1000A00074747C7E7E7E7E7A74483000002020202E
:1000B0002030343034343E3E3E2A341800100010D4
:1000C0001018181C1C1C1C1C141C0C080010001000
:1000D0001018101010101818181418101FEFF7FB34
:1000E0003EDFFFFF7BB7CFFE7F8F77FF3FDFEFF76E
:1000F000B7F67BDFFFFFFFFFFFFFFFFFD4D4E8E889
:10010000F4F4EAEA80C0A090A88894838480808078
:100110008080808080888081848890A2A1828C9059
:1001200090A0A0C080E09CA3848080818680808095
:10013000818081838F9181838F97828284A890A010
:10014000C0C0C0808060903E67FB7F3F3F7FFFFE66
:1001500078F040800000000000FCB8F0C0C08000D3
:1001600000000000000000E03E7FFBFE3E1C386007
:1001700040808080C0F0B8F0C00000000107171F69
:100180003F3F2F371F1F0F0B0B0F0F070F0F4F5F37
:100190007F3F3F3F3F2F2F2F371F070F0F0F0F0FAF
:1001A0000F4F5F5F5F5F7F3F3F2F2F371B0F0707AB
:1001B000070717171F1F0B0D07030301000000009F
:1001C000000000000000000000000000000000002F
:1001D000000000000000000000000000000000001F
:1001E000000000000000000000000000000000000F
:1001F00000000000000000000000000010080000E7
:1002000080C0E0E0F0F8FCFCFCFCFCFCB8900000D6
:10021000000080402020102804844444A89028082E
:1002200080C0E0E0F0F8FCFCFEFFFF7F7F7F7FFFF7
:10023000FFF7E7CF8F0F1F1F3F3F7E7EFCFCF8F8D4
:10024000F0F0E0E0C0C08080000080402020500836
:1002500004048A414120312858B462C3840404084C
:1002600009111222244448889010202040408080A8
:100270001810041EFEFEFEFEFEFCFCFCFCF8F8F866
:10028000F0F0E0E0C0C0C080800010393F3F3F1F69
:100290001F1F0F0F0F0F0F070303030303030303B6
:1002A000030100041CF4F4B4FC88888898909090B2
:1002B000A0E0C0C00080800000000010191D1D0DCE
:1002C0000D0D0505050505010101000001010101F4
:1002D0000100127FFFFFFFFEFEFCFCFCFCFCFCF8B3
:1002E000F0E0E0C0C0C0C080800040E2FFFFFF7FC0
:1002F0007F7F3F3F3F3F3F1F070707070707070372
:100300000301001272D6D6D4F428282828282860A1
:1003100040C0C0800080800000000040627B7B3ACB
:100320003B3A1A1A1A1A1A020203030102030301C2
:100330000100040EFEFEFEFCFCFCF8F8F8F8F0F0FC
:10034000E0E0C0C0C0C0C080800020797F7F7F3FD8
:100350003F1F1F1F1F1F1F0F070707070707070361
:10036000030100040C3C7C78787870707070600039
:10037000808000008080800000000020313B3B1B1B
:100380001B0B0B0B0B0B0B030303030303030301F7
:10039000010028280080F8FCFCFCFCFEFFFFFFFFAA
:1003A000FFFFFFFFFFFFFFFFFFFEFEFEFFFFFEFE62
:1003B000FCF8E0C0800000000000000000070FFF14
:1003C000FFFFFFFFFFFFFFFFFFFFFFFFFFFFFFFF3D
:1003D000FFFFFFFFFFFFFFFFFFFFFF7F7F7F0600A5
:1003E0000000000000000F0FFFFFFFFFFFFFFFFFF7
:1003F000FFFFFFFFFFFF7FFFFFFFFFFFFFE3810026
:100400000000E0F8F0C080C08000000000000000A4
:10041000030303071F1FFFFF1F1F0F07C1C0F0F1DA
:10042000F1E76FFFFFFFFFFCFEFFDF8FCFE3C101AE
:1004300000000000000000000000000000000707AE
:1004400000000000000C8CD8D8F0F8FFFFFFFFFF81
:10045000FFFFFFFFFFFFE3C0C080000000000010AF
:10046000B850A8A85454AAAA44040A8A1414AA8802
:1004700050FCA8A854541428884040800000000074
:10048000000000000000060BF555AAAA15452AAE8B
:100490005D5DBAEAD450B0E2D555BEE25555D1AA59
:1004A0002A10552A0A7D0400000000000000000602
:1004B0000DF52A6A4014AAA04555AAAA55D76E7A06
:1004C000F7DD8A0F1D638100000000C030C000000E
:1004D00080000000000000000003000007150AFA79
:1004E00011180A06018080A0A1E14648F00003042B
:1004F0000824D2090C82C1010000000080808080A5
:1005000080808080808080878080808080808888D4
:10051000909060301807008C72828C71013C6340AF
:100520008080808011241FBECFEFCDBFDFE3DEBF10
:1005300018E3A0E0B8E3E8ECF1E102C005900D9209
:10054000AA30B107D9F72DE3AAE0B8E301C01D92A4
:10055000A233B207E1F70E9477080C94E2080C94EA
:10056000000080910B3890910C38009761F0019752
:1005700080930B3890930C38892B29F4E0E0FAE053
:1005800080818E7F80830895E0E0FAE080A791A7C4
:1005900080818160808360930B3870930C3808955C
:1005A000882321F080E180932504089580E18093E1
:1005B0002604089570E0FB01E75DF74C982F9695AF
:1005C000969596959083FB01EF5DF74C877080833D
:1005D00008956F927F928F929F92AF92BF92CF9227
:1005E000DF92EF92FF920F931F93CF93DF93DC0183
:1005F0001196FC0164900296FD01A491A695A69522
:10060000A695C62DD0E0AA2EB12CCA9D6001CB9D27
:10061000D00CDA9DD00C1124742F777018E0171BC2
:10062000459545954595A62F062E000CBB0B30E849
:100630004303A00DB11D11242C9DA0012D9D500D33
:1006400011249A01220F331F820F931F0F3F11F4C1
:10065000860D911D711102C0712C02C07724739414
:10066000E12CF12C75C0F901EE27FC7FEF2B09F08E
:1006700050C044230CF44DC0772309F43DC0E1146D
:10068000F104E9F0862C912CFC01E819F909E491B8
:10069000F0E0012E02C0F595E7950A94E2F75E2F8F
:1006A000F601E819F909E80FF91FE491F0E0012ECD
:1006B00002C0F595E7950A94E2F78E2E02C0812CD0
:1006C00050E0EA14FB04ECF4FC019490E92DF0E016
:1006D000072E02C0EE0FFF1F0A94E2F75E2BFC010B
:1006E000EC0DFD1DE491F0E0072E02C0EE0FFF1FA0
:1006F0000A94E2F78E2A05C0FC015491EC0DFD1D11
:100700008490F901EF5CF74C50959080592158295D
:100710005083800F911D07FD9A954F5F2F5F3F4FCC
:1007200002C09D01462FFD01EC0FFD1F2E173F0754
:100730000CF499CFA058BF4F0F3F39F49E01220F00
:10074000331F21503109820F931FFFEFEF1AFF0A69
:100750009501270D311DE216F3061CF3DF91CF91B1
:100760001F910F91FF90EF90DF90CF90BF90AF90CF
:100770009F908F907F906F90089580930F38089589
:1007800080932408809123088823E4F7089582E069
:1007900080932504089582E080932604089581E0E3
:1007A00080932504089581E0809326040895809124
:1007B0000A38811126C00E94D30340E050E020E0B7
:1007C00030E019C0F9013196D901AF5CB74C8C917A
:1007D000809324088091230885FFFCCF2E5F3F4F34
:1007E000EF5CF74C8081809324088091230885FF7B
:1007F000FCCF4F5F5F4F411582E058071CF30E940A
:10080000CF03909148049F7080910804807E892BCB
:1008100008955F926F927F928F929F92AF92BF9254
:10082000CF92DF92EF92FF920F931F93CF93DF93BC
:10083000EC018B010E94D30380910F38882309F4C7
:10084000DBC070900D3888E0882E871860900E38D5
:10085000660C660C660C660C512C40E050E07FC0C4
:10086000E52DF0E0EF5DF74CA081E62CF12C68015E
:10087000CE0CDF1CF6012081220F220F220F2A0F3F
:10088000F0EF6F120DC0F801808190E0880F991F82
:10089000880F991F880F991F8A0F911DB0E059C0CA
:1008A000F801EE0DFF1D808990E0880F991F880FD9
:1008B000991F880F991F8A0F911DF0CF9924939447
:1008C000920EFE01E20FF11D249130E0072C02C0D0
:1008D000359527950A94E2F7BC016F5F7F4FFE01C3
:1008E000E80FF91FE491F0E0082C02C0EE0FFF1FA3
:1008F0000A94E2F75A018FEFA81AB80A4F5C574CD6
:100900002E2BFA012083AF5FA830F9F4F601908016
:10091000990C990C990CF0EF6F120BC0F8016081E3
:1009200070E0660F771F660F771F660F771FA0E0D6
:100930000CC0F801EE0DFF1D608970E0660F771F97
:10094000660F771F660F771FA0E0BF5FCB01292DD1
:10095000A501BB230CF0B2CFF0E16F0E539427E05A
:10096000251508F07DCF50C02E2D30E0F901EF5D48
:10097000F74C6081F901E75DF74CF0802D2D30E0F8
:10098000F901EF0DF11DE00FF11FE081F0E0EE0F36
:10099000FF1FEE0FFF1FEE0FFF1FE60FF11D70E0B0
:1009A00025C0DC011196AF014F5F5F4FEC0FFD1FBB
:1009B000C4908F5C974CFC01C0826F5F683099F4E3
:1009C000F394FFE1FF1508F4F12CF901EF0DF11D8F
:1009D000E00FF11F408150E0440F551F440F551F99
:1009E000440F551F60E07F5FFA01CD017723CCF6FD
:1009F00020E2D20EE39404C0E12CD12C80E090E000
:100A0000E7E0EE1508F0B0CF0E94CF03DF91CF9161
:100A10001F910F91FF90EF90DF90CF90BF90AF901C
:100A20009F908F907F906F905F900895CF93C82F85
:100A30000E94CB030E94D3038C2F0E94C0030E940C
:100A4000CF030E94C703CF9108950E94D30380E192
:100A500080930604809305040E94CF038EEA0E94CF
:100A6000160585ED0E94160580E80E94160588EAA5
:100A70000E9416058FE30E94160583ED0E9416055D
:100A800080E00E94160580E40E9416058DE80E9411
:100A9000160584E10E94160580E20E94160580E09A
:100AA0000E94160581EA0E94160588EC0E94160530
:100AB0008AED0E94160582E10E94160581E80E94D7
:100AC00016058FE80E94160589ED0E94160581EF34
:100AD0000E9416058BED0E94160580E40E94160503
:100AE00084EA0E94160586EA0E9416058FEA0E9493
:100AF0001605089510922108882329F00E942505E3
:100B000010920A3806C08EEA0E94160581E0809392
:100B10000A3880E880932108089581E080931E3888
:100B200080E00E947A0580E00E94D00208950F9331
:100B3000CF93DF930E94D7038093313D61E37CE341
:100B40008CE790E00E9409040091053820E048E01D
:100B50006091063882E993E00E94E9020091023830
:100B6000209114384091033864E180E792E00E94BC
:100B7000E902C5E1D8E301E020E048E368818EE1C5
:100B800092E00E94E9026881685F20E040E38CEF18
:100B900091E00E94E902109214388091313D86FD67
:100BA0000E948D058091313D80FF10C02091033857
:100BB00030910438121613064CF421503109209359
:100BC00003383093043892E09093143881FF10C0BA
:100BD0002091033830910438203331054CF42F5FD5
:100BE0003F4F209303383093043891E090931438AA
:100BF00082FF51C08FEF8093023880911738909117
:100C000018380197809317389093183880911038CE
:100C100090911138039780931038909311388091F8
:100C200000389091013801968093003890930138F4
:100C300080910638909107380196809306389093FA
:100C400007388038910531F488ED9FEF809306389E
:100C500090930738809112389091133801978093C0
:100C60001238909313388091153890911638049665
:100C700080931538909316388038910534F088EDBC
:100C80009FEF809315389093163868EC70E088E5F4
:100C900092E00E94C4028091313D83FF52C081E006
:100CA000809302388091173890911838019680937C
:100CB0001738909318388091123890911338029613
:100CC00080931238909313388091003890910138B6
:100CD0000197809300389093013880910638909165
:100CE000073801978093063890930738889689F4DF
:100CF00080E890E08093063890930738809105381B
:100D0000813021F48FEF8093053803C081E0809318
:100D100005388091153890911638049780931538CE
:100D200090931638883D9F4F34F48FE790E080937E
:100D300015389093163864E170E080EB94E00E94DF
:100D4000C4028091313D85FF03C094E0909319382F
:100D500088231CF495E09093193886FF03C086E041
:100D600080931938809112389091133801978093AD
:100D70001238909313389695879560E00E94DA02B6
:100D8000809112389091133896958795969587950E
:100D900061E00E94DA0280911238909113389695A2
:100DA0008795969587959695879562E00E94DA02D9
:100DB00080911738909118389595879563E00E9437
:100DC000DA0280911738909118389595879564E0EC
:100DD0000E94DA028091173890911838959587957E
:100DE00065E00E94DA02C7E1D8E366E088810E94EC
:100DF000DA02888167E0880F0E94DA0280E00E94B0
:100E0000D002DF91CF910F91089580911E388823F1
:100E100011F08895FACF80911D388431B1F7109286
:100E20001D3881E00E94D0020E94970580E00E9458
:100E3000D002EBCFA82FB0E0CD0106C0FC01EF5CE3
:100E4000F34C608301966F5F9D01240F311D821763
:100E50009307A4F308950F931F93CF93DF9380E03C
:100E60000E94BD0340E051E06FE270E081E39CE34B
:100E70000E94DB08C0E0D0E009C048E060E28C2FAF
:100E8000880F880F880F0E941A072196C430D10559
:100E9000A4F300E010E013C0C8010496C82FCC0FE3
:100EA000CC0FCC0F43E060E08C2F0E941A0743E088
:100EB00063E084E08C0F0E941A070F5F1F4F04301D
:100EC000110554F300E010E019C0C8010496C82FC2
:100ED000C295C07F42E066E082E08C0F0E941A0754
:100EE00042E068E087E08C0F0E941A0742E06AE067
:100EF0008BE08C0F0E941A070F5F1F4F0230110505
:100F000024F3C0E0D0E026C0CE01449648E061E181
:100F1000880F880F880F0E941A07CE014096182F5D
:100F2000110F110F110F42E069E181E0810F0E9462
:100F30001A0742E06DE184E0810F0E941A07CE019A
:100F40000C96880F880F880F42E06BE18F5F0E943C
:100F50001A072196C430D105BCF280E090E006C0AB
:100F6000FC01EF50F34C20E1208301968032910583
:100F7000BCF320E030E01CC0C901C896880F991F5F
:100F8000880F991FFC01EF5CF34C4CE04083FC019F
:100F9000EE5CF34C4DE04083FC01ED5CF34C4EE025
:100FA0004083FC01EC5CF34C4FE040832F5F3F4FEC
:100FB000283031050CF3DF91CF911F910F910895E7
:100FC0001F920F920FB60F9211242F933F934F93BE
:100FD0005F936F937F938F939F93AF93BF93EF93A1
:100FE000FF9380911D388F5F80931D380E94B1025E
:100FF00081E08093460AFF91EF91BF91AF919F915D
:101000008F917F916F915F914F913F912F910F90B1
:101010000FBE0F901F9018951F920F920FB60F9250
:1010200011242F933F934F935F936F937F938F93ED
:101030009F93AF93BF93EF93FF9380911E388823C4
:1010400029F010921E3881E00E947A0580E2809398
:101050000904FF91EF91BF91AF919F918F917F9183
:101060006F915F914F913F912F910F900FBE0F9015
:101070001F9018951F920F920FB60F9211248F9305
:1010800080911A388F5F80931A388C3301F5109253
:101090001A38809108388F5F809308388C33B9F400
:1010A00010920838809109388F5F809309388091B9
:1010B00009388C3029F480911B388F5F80931B385E
:1010C000809109388D3019F481E08093093880913E
:1010D0001E38811103C081E080931C3881E0809329
:1010E00053018F910F900FBE0F901F90189588EDB0
:1010F00084BF109261008091630084FFFCCF8AE17D
:101100008093000483E3809320041092400488E8D5
:10111000809350048093510480935204809353042D
:1011200099E890931504809316048093170481E343
:101130008093200880E090E00E94250580E880935D
:101140002108E0E4FAE081E0858320E137E22093A2
:101150004C0A30934D0A93E09083E0E0FAE091E48A
:10116000918310A611A698E0908394E090930202D8
:1011700098ED94BF80937C00809141018111FCCF58
:10118000E0E4F1E080E8808382E087838091510190
:101190008111FCCFE0E4F1E081E7808B81E0828B7C
:1011A00085E08093500078940E942B070E940507E9
:1011B00080E090E00895DC0101C06D934150504003
:0811C000E0F70895F894FFCF59
:0A11C8006400011800014E00050B41
:00000001FF
